{
  "address": "0x0162764e7F50192299B337fA652797bcea6c0978",
  "abi": [
    {
      "anonymous": false,
      "inputs": [
        {
          "indexed": true,
          "internalType": "address",
          "name": "previousOwner",
          "type": "address"
        },
        {
          "indexed": true,
          "internalType": "address",
          "name": "newOwner",
          "type": "address"
        }
      ],
      "name": "OwnershipTransferred",
      "type": "event"
    },
    {
      "anonymous": false,
      "inputs": [
        {
          "indexed": true,
          "internalType": "address",
          "name": "newTreasury",
          "type": "address"
        }
      ],
      "name": "TreasuryChanged",
      "type": "event"
    },
    {
      "inputs": [
        {
          "internalType": "address",
          "name": "_token",
          "type": "address"
        }
      ],
      "name": "fundBalance",
      "outputs": [
        {
          "internalType": "uint256",
          "name": "",
          "type": "uint256"
        }
      ],
      "stateMutability": "view",
      "type": "function"
    },
    {
      "inputs": [
        {
          "internalType": "address",
          "name": "_treasury",
          "type": "address"
        }
      ],
      "name": "initialize",
      "outputs": [],
      "stateMutability": "nonpayable",
      "type": "function"
    },
    {
      "inputs": [],
      "name": "owner",
      "outputs": [
        {
          "internalType": "address",
          "name": "",
          "type": "address"
        }
      ],
      "stateMutability": "view",
      "type": "function"
    },
    {
      "inputs": [],
      "name": "renounceOwnership",
      "outputs": [],
      "stateMutability": "nonpayable",
      "type": "function"
    },
    {
      "inputs": [
        {
          "internalType": "address",
          "name": "_treasury",
          "type": "address"
        }
      ],
      "name": "setTreasury",
      "outputs": [],
      "stateMutability": "nonpayable",
      "type": "function"
    },
    {
      "inputs": [
        {
          "internalType": "address",
          "name": "newOwner",
          "type": "address"
        }
      ],
      "name": "transferOwnership",
      "outputs": [],
      "stateMutability": "nonpayable",
      "type": "function"
    },
    {
      "inputs": [
        {
          "internalType": "address",
          "name": "_token",
          "type": "address"
        },
        {
          "internalType": "address",
          "name": "_receiver",
          "type": "address"
        },
        {
          "internalType": "uint256",
          "name": "_amount",
          "type": "uint256"
        }
      ],
      "name": "transferTo",
      "outputs": [],
      "stateMutability": "nonpayable",
      "type": "function"
    },
    {
      "inputs": [],
      "name": "treasury",
      "outputs": [
        {
          "internalType": "address",
          "name": "",
          "type": "address"
        }
      ],
      "stateMutability": "view",
      "type": "function"
    }
  ],
  "transactionHash": "0xe96bc9c88e52da7373706b947ee2f220613bada4f5382a357631817ec39bcf48",
  "args": [],
  "solcInputHash": "528e37ad3cee8dde3b849d6f9ffe4ef0",
  "bytecode": "0x608060405234801561001057600080fd5b5060006100216100c460201b60201c565b9050806000806101000a81548173ffffffffffffffffffffffffffffffffffffffff021916908373ffffffffffffffffffffffffffffffffffffffff1602179055508073ffffffffffffffffffffffffffffffffffffffff16600073ffffffffffffffffffffffffffffffffffffffff167f8be0079c531659141344cd1fd0a4f28419497f9722a3daafe3b4186f6b6457e060405160405180910390a3506100cc565b600033905090565b611545806100db6000396000f3fe608060405234801561001057600080fd5b50600436106100885760003560e01c8063a5f2a1521161005b578063a5f2a15214610103578063c4d66de81461011f578063f0f442601461013b578063f2fde38b1461015757610088565b80630ad5a8651461008d57806361d027b3146100bd578063715018a6146100db5780638da5cb5b146100e5575b600080fd5b6100a760048036038101906100a29190610d98565b610173565b6040516100b491906111c2565b60405180910390f35b6100c5610205565b6040516100d2919061103c565b60405180910390f35b6100e361022b565b005b6100ed610365565b6040516100fa919061103c565b60405180910390f35b61011d60048036038101906101189190610dc1565b61038e565b005b61013960048036038101906101349190610d98565b610501565b005b61015560048036038101906101509190610d98565b61070b565b005b610171600480360381019061016c9190610d98565b6108a0565b005b60008173ffffffffffffffffffffffffffffffffffffffff166370a08231306040518263ffffffff1660e01b81526004016101ae919061103c565b60206040518083038186803b1580156101c657600080fd5b505afa1580156101da573d6000803e3d6000fd5b505050506040513d601f19601f820116820180604052508101906101fe9190610e39565b9050919050565b600160009054906101000a900473ffffffffffffffffffffffffffffffffffffffff1681565b610233610a49565b73ffffffffffffffffffffffffffffffffffffffff16610251610365565b73ffffffffffffffffffffffffffffffffffffffff16146102a7576040517f08c379a000000000000000000000000000000000000000000000000000000000815260040161029e90611142565b60405180910390fd5b600073ffffffffffffffffffffffffffffffffffffffff1660008054906101000a900473ffffffffffffffffffffffffffffffffffffffff1673ffffffffffffffffffffffffffffffffffffffff167f8be0079c531659141344cd1fd0a4f28419497f9722a3daafe3b4186f6b6457e060405160405180910390a360008060006101000a81548173ffffffffffffffffffffffffffffffffffffffff021916908373ffffffffffffffffffffffffffffffffffffffff160217905550565b60008060009054906101000a900473ffffffffffffffffffffffffffffffffffffffff16905090565b3373ffffffffffffffffffffffffffffffffffffffff16600160009054906101000a900473ffffffffffffffffffffffffffffffffffffffff1673ffffffffffffffffffffffffffffffffffffffff161461041e576040517f08c379a000000000000000000000000000000000000000000000000000000000815260040161041590611162565b60405180910390fd5b600073ffffffffffffffffffffffffffffffffffffffff168273ffffffffffffffffffffffffffffffffffffffff16141561048e576040517f08c379a0000000000000000000000000000000000000000000000000000000008152600401610485906110a2565b60405180910390fd5b600081116104d1576040517f08c379a00000000000000000000000000000000000000000000000000000000081526004016104c8906110e2565b60405180910390fd5b6104fc82828573ffffffffffffffffffffffffffffffffffffffff16610a519092919063ffffffff16565b505050565b610509610a49565b73ffffffffffffffffffffffffffffffffffffffff16610527610365565b73ffffffffffffffffffffffffffffffffffffffff161461057d576040517f08c379a000000000000000000000000000000000000000000000000000000000815260040161057490611142565b60405180910390fd5b600060159054906101000a900460ff16806105a55750600060149054906101000a900460ff16155b6105e4576040517f08c379a00000000000000000000000000000000000000000000000000000000081526004016105db90611122565b60405180910390fd5b60008060159054906101000a900460ff161590508015610635576001600060156101000a81548160ff0219169083151502179055506001600060146101000a81548160ff0219169083151502179055505b600073ffffffffffffffffffffffffffffffffffffffff168273ffffffffffffffffffffffffffffffffffffffff1614156106a5576040517f08c379a000000000000000000000000000000000000000000000000000000000815260040161069c906110a2565b60405180910390fd5b81600160006101000a81548173ffffffffffffffffffffffffffffffffffffffff021916908373ffffffffffffffffffffffffffffffffffffffff16021790555080156107075760008060156101000a81548160ff0219169083151502179055505b5050565b610713610a49565b73ffffffffffffffffffffffffffffffffffffffff16610731610365565b73ffffffffffffffffffffffffffffffffffffffff1614610787576040517f08c379a000000000000000000000000000000000000000000000000000000000815260040161077e90611142565b60405180910390fd5b600073ffffffffffffffffffffffffffffffffffffffff168173ffffffffffffffffffffffffffffffffffffffff1614156107f7576040517f08c379a00000000000000000000000000000000000000000000000000000000081526004016107ee906110a2565b60405180910390fd5b80600160006101000a81548173ffffffffffffffffffffffffffffffffffffffff021916908373ffffffffffffffffffffffffffffffffffffffff160217905550600160009054906101000a900473ffffffffffffffffffffffffffffffffffffffff1673ffffffffffffffffffffffffffffffffffffffff167fc714d22a2f08b695f81e7c707058db484aa5b4d6b4c9fd64beb10fe85832f60860405160405180910390a250565b6108a8610a49565b73ffffffffffffffffffffffffffffffffffffffff166108c6610365565b73ffffffffffffffffffffffffffffffffffffffff161461091c576040517f08c379a000000000000000000000000000000000000000000000000000000000815260040161091390611142565b60405180910390fd5b600073ffffffffffffffffffffffffffffffffffffffff168173ffffffffffffffffffffffffffffffffffffffff16141561098c576040517f08c379a0000000000000000000000000000000000000000000000000000000008152600401610983906110c2565b60405180910390fd5b8073ffffffffffffffffffffffffffffffffffffffff1660008054906101000a900473ffffffffffffffffffffffffffffffffffffffff1673ffffffffffffffffffffffffffffffffffffffff167f8be0079c531659141344cd1fd0a4f28419497f9722a3daafe3b4186f6b6457e060405160405180910390a3806000806101000a81548173ffffffffffffffffffffffffffffffffffffffff021916908373ffffffffffffffffffffffffffffffffffffffff16021790555050565b600033905090565b610ad28363a9059cbb60e01b8484604051602401610a70929190611057565b604051602081830303815290604052907bffffffffffffffffffffffffffffffffffffffffffffffffffffffff19166020820180517bffffffffffffffffffffffffffffffffffffffffffffffffffffffff8381831617835250505050610ad7565b505050565b6000610b39826040518060400160405280602081526020017f5361666545524332303a206c6f772d6c6576656c2063616c6c206661696c65648152508573ffffffffffffffffffffffffffffffffffffffff16610b9e9092919063ffffffff16565b9050600081511115610b995780806020019051810190610b599190610e10565b610b98576040517f08c379a0000000000000000000000000000000000000000000000000000000008152600401610b8f906111a2565b60405180910390fd5b5b505050565b6060610bad8484600085610bb6565b90509392505050565b606082471015610bfb576040517f08c379a0000000000000000000000000000000000000000000000000000000008152600401610bf290611102565b60405180910390fd5b610c0485610cca565b610c43576040517f08c379a0000000000000000000000000000000000000000000000000000000008152600401610c3a90611182565b60405180910390fd5b6000808673ffffffffffffffffffffffffffffffffffffffff168587604051610c6c9190611025565b60006040518083038185875af1925050503d8060008114610ca9576040519150601f19603f3d011682016040523d82523d6000602084013e610cae565b606091505b5091509150610cbe828286610cdd565b92505050949350505050565b600080823b905060008111915050919050565b60608315610ced57829050610d3d565b600083511115610d005782518084602001fd5b816040517f08c379a0000000000000000000000000000000000000000000000000000000008152600401610d349190611080565b60405180910390fd5b9392505050565b600081359050610d53816114ca565b92915050565b600081519050610d68816114e1565b92915050565b600081359050610d7d816114f8565b92915050565b600081519050610d92816114f8565b92915050565b600060208284031215610daa57600080fd5b6000610db884828501610d44565b91505092915050565b600080600060608486031215610dd657600080fd5b6000610de486828701610d44565b9350506020610df586828701610d44565b9250506040610e0686828701610d6e565b9150509250925092565b600060208284031215610e2257600080fd5b6000610e3084828501610d59565b91505092915050565b600060208284031215610e4b57600080fd5b6000610e5984828501610d83565b91505092915050565b610e6b8161120f565b82525050565b6000610e7c826111dd565b610e8681856111f3565b9350610e96818560208601611257565b80840191505092915050565b6000610ead826111e8565b610eb781856111fe565b9350610ec7818560208601611257565b610ed08161128a565b840191505092915050565b6000610ee8600f836111fe565b9150610ef38261129b565b602082019050919050565b6000610f0b6026836111fe565b9150610f16826112c4565b604082019050919050565b6000610f2e601b836111fe565b9150610f3982611313565b602082019050919050565b6000610f516026836111fe565b9150610f5c8261133c565b604082019050919050565b6000610f74602e836111fe565b9150610f7f8261138b565b604082019050919050565b6000610f976020836111fe565b9150610fa2826113da565b602082019050919050565b6000610fba6027836111fe565b9150610fc582611403565b604082019050919050565b6000610fdd601d836111fe565b9150610fe882611452565b602082019050919050565b6000611000602a836111fe565b915061100b8261147b565b604082019050919050565b61101f8161124d565b82525050565b60006110318284610e71565b915081905092915050565b60006020820190506110516000830184610e62565b92915050565b600060408201905061106c6000830185610e62565b6110796020830184611016565b9392505050565b6000602082019050818103600083015261109a8184610ea2565b905092915050565b600060208201905081810360008301526110bb81610edb565b9050919050565b600060208201905081810360008301526110db81610efe565b9050919050565b600060208201905081810360008301526110fb81610f21565b9050919050565b6000602082019050818103600083015261111b81610f44565b9050919050565b6000602082019050818103600083015261113b81610f67565b9050919050565b6000602082019050818103600083015261115b81610f8a565b9050919050565b6000602082019050818103600083015261117b81610fad565b9050919050565b6000602082019050818103600083015261119b81610fd0565b9050919050565b600060208201905081810360008301526111bb81610ff3565b9050919050565b60006020820190506111d76000830184611016565b92915050565b600081519050919050565b600081519050919050565b600081905092915050565b600082825260208201905092915050565b600061121a8261122d565b9050919050565b60008115159050919050565b600073ffffffffffffffffffffffffffffffffffffffff82169050919050565b6000819050919050565b60005b8381101561127557808201518184015260208101905061125a565b83811115611284576000848401525b50505050565b6000601f19601f8301169050919050565b7f496e76616c696420616464726573730000000000000000000000000000000000600082015250565b7f4f776e61626c653a206e6577206f776e657220697320746865207a65726f206160008201527f6464726573730000000000000000000000000000000000000000000000000000602082015250565b7f43616e6e6f74207472616e73666572207a65726f20616d6f756e740000000000600082015250565b7f416464726573733a20696e73756666696369656e742062616c616e636520666f60008201527f722063616c6c0000000000000000000000000000000000000000000000000000602082015250565b7f496e697469616c697a61626c653a20636f6e747261637420697320616c72656160008201527f647920696e697469616c697a6564000000000000000000000000000000000000602082015250565b7f4f776e61626c653a2063616c6c6572206973206e6f7420746865206f776e6572600082015250565b7f4f6e6c792074726561737572792063616e20747269676765722074686973206660008201527f756e6374696f6e00000000000000000000000000000000000000000000000000602082015250565b7f416464726573733a2063616c6c20746f206e6f6e2d636f6e7472616374000000600082015250565b7f5361666545524332303a204552433230206f7065726174696f6e20646964206e60008201527f6f74207375636365656400000000000000000000000000000000000000000000602082015250565b6114d38161120f565b81146114de57600080fd5b50565b6114ea81611221565b81146114f557600080fd5b50565b6115018161124d565b811461150c57600080fd5b5056fea2646970667358221220deceff916c524e3f1cd63c2d27f93b59906c0a4dc9a01bcbe264c9eb09b482ff64736f6c63430008040033",
  "devdoc": {
    "kind": "dev",
    "methods": {
      "owner()": {
        "details": "Returns the address of the current owner."
      },
      "renounceOwnership()": {
        "details": "Leaves the contract without owner. It will not be possible to call `onlyOwner` functions anymore. Can only be called by the current owner. NOTE: Renouncing ownership will leave the contract without an owner, thereby removing any functionality that is only available to the owner."
      },
      "transferOwnership(address)": {
        "details": "Transfers ownership of the contract to a new account (`newOwner`). Can only be called by the current owner."
      }
    },
    "version": 1
  },
  "userdoc": {
    "kind": "user",
    "methods": {},
    "version": 1
  },
  "storageLayout": {
    "storage": [
      {
        "astId": 99,
        "contract": "contracts/CollateralReserve.sol:CollateralReserve",
        "label": "_owner",
        "offset": 0,
        "slot": "0",
        "type": "t_address"
      },
      {
        "astId": 51,
        "contract": "contracts/CollateralReserve.sol:CollateralReserve",
        "label": "_initialized",
        "offset": 20,
        "slot": "0",
        "type": "t_bool"
      },
      {
        "astId": 54,
        "contract": "contracts/CollateralReserve.sol:CollateralReserve",
        "label": "_initializing",
        "offset": 21,
        "slot": "0",
        "type": "t_bool"
      },
      {
        "astId": 2150,
        "contract": "contracts/CollateralReserve.sol:CollateralReserve",
        "label": "treasury",
        "offset": 0,
        "slot": "1",
        "type": "t_address"
      }
    ],
    "types": {
      "t_address": {
        "encoding": "inplace",
        "label": "address",
        "numberOfBytes": "20"
      },
      "t_bool": {
        "encoding": "inplace",
        "label": "bool",
        "numberOfBytes": "1"
      }
    }
  }
}