{
  "address": "0x6566Ba24E068E8e2dD0c4A72Fe742f6d9F081a37",
  "abi": [
    {
      "anonymous": false,
      "inputs": [
        {
          "indexed": true,
          "internalType": "address",
          "name": "owner",
          "type": "address"
        },
        {
          "indexed": true,
          "internalType": "address",
          "name": "spender",
          "type": "address"
        },
        {
          "indexed": false,
          "internalType": "uint256",
          "name": "value",
          "type": "uint256"
        }
      ],
      "name": "Approval",
      "type": "event"
    },
    {
      "anonymous": false,
      "inputs": [
        {
          "indexed": true,
          "internalType": "address",
          "name": "from",
          "type": "address"
        },
        {
          "indexed": true,
          "internalType": "address",
          "name": "to",
          "type": "address"
        },
        {
          "indexed": false,
          "internalType": "uint256",
          "name": "amount",
          "type": "uint256"
        }
      ],
      "name": "DollarBurned",
      "type": "event"
    },
    {
      "anonymous": false,
      "inputs": [
        {
          "indexed": true,
          "internalType": "address",
          "name": "from",
          "type": "address"
        },
        {
          "indexed": true,
          "internalType": "address",
          "name": "to",
          "type": "address"
        },
        {
          "indexed": false,
          "internalType": "uint256",
          "name": "amount",
          "type": "uint256"
        }
      ],
      "name": "DollarMinted",
      "type": "event"
    },
    {
      "anonymous": false,
      "inputs": [
        {
          "indexed": true,
          "internalType": "address",
          "name": "previousOwner",
          "type": "address"
        },
        {
          "indexed": true,
          "internalType": "address",
          "name": "newOwner",
          "type": "address"
        }
      ],
      "name": "OwnershipTransferred",
      "type": "event"
    },
    {
      "anonymous": false,
      "inputs": [
        {
          "indexed": true,
          "internalType": "address",
          "name": "from",
          "type": "address"
        },
        {
          "indexed": true,
          "internalType": "address",
          "name": "to",
          "type": "address"
        },
        {
          "indexed": false,
          "internalType": "uint256",
          "name": "value",
          "type": "uint256"
        }
      ],
      "name": "Transfer",
      "type": "event"
    },
    {
      "anonymous": false,
      "inputs": [
        {
          "indexed": true,
          "internalType": "address",
          "name": "newTreasury",
          "type": "address"
        }
      ],
      "name": "TreasuryChanged",
      "type": "event"
    },
    {
      "inputs": [
        {
          "internalType": "address",
          "name": "owner",
          "type": "address"
        },
        {
          "internalType": "address",
          "name": "spender",
          "type": "address"
        }
      ],
      "name": "allowance",
      "outputs": [
        {
          "internalType": "uint256",
          "name": "",
          "type": "uint256"
        }
      ],
      "stateMutability": "view",
      "type": "function"
    },
    {
      "inputs": [
        {
          "internalType": "address",
          "name": "spender",
          "type": "address"
        },
        {
          "internalType": "uint256",
          "name": "amount",
          "type": "uint256"
        }
      ],
      "name": "approve",
      "outputs": [
        {
          "internalType": "bool",
          "name": "",
          "type": "bool"
        }
      ],
      "stateMutability": "nonpayable",
      "type": "function"
    },
    {
      "inputs": [
        {
          "internalType": "address",
          "name": "account",
          "type": "address"
        }
      ],
      "name": "balanceOf",
      "outputs": [
        {
          "internalType": "uint256",
          "name": "",
          "type": "uint256"
        }
      ],
      "stateMutability": "view",
      "type": "function"
    },
    {
      "inputs": [
        {
          "internalType": "uint256",
          "name": "amount",
          "type": "uint256"
        }
      ],
      "name": "burn",
      "outputs": [],
      "stateMutability": "nonpayable",
      "type": "function"
    },
    {
      "inputs": [
        {
          "internalType": "address",
          "name": "account",
          "type": "address"
        },
        {
          "internalType": "uint256",
          "name": "amount",
          "type": "uint256"
        }
      ],
      "name": "burnFrom",
      "outputs": [],
      "stateMutability": "nonpayable",
      "type": "function"
    },
    {
      "inputs": [],
      "name": "decimals",
      "outputs": [
        {
          "internalType": "uint8",
          "name": "",
          "type": "uint8"
        }
      ],
      "stateMutability": "view",
      "type": "function"
    },
    {
      "inputs": [
        {
          "internalType": "address",
          "name": "spender",
          "type": "address"
        },
        {
          "internalType": "uint256",
          "name": "subtractedValue",
          "type": "uint256"
        }
      ],
      "name": "decreaseAllowance",
      "outputs": [
        {
          "internalType": "bool",
          "name": "",
          "type": "bool"
        }
      ],
      "stateMutability": "nonpayable",
      "type": "function"
    },
    {
      "inputs": [],
      "name": "genesis_supply",
      "outputs": [
        {
          "internalType": "uint256",
          "name": "",
          "type": "uint256"
        }
      ],
      "stateMutability": "view",
      "type": "function"
    },
    {
      "inputs": [
        {
          "internalType": "address",
          "name": "spender",
          "type": "address"
        },
        {
          "internalType": "uint256",
          "name": "addedValue",
          "type": "uint256"
        }
      ],
      "name": "increaseAllowance",
      "outputs": [
        {
          "internalType": "bool",
          "name": "",
          "type": "bool"
        }
      ],
      "stateMutability": "nonpayable",
      "type": "function"
    },
    {
      "inputs": [
        {
          "internalType": "string",
          "name": "_name",
          "type": "string"
        },
        {
          "internalType": "string",
          "name": "_symbol",
          "type": "string"
        },
        {
          "internalType": "address",
          "name": "_treasury",
          "type": "address"
        }
      ],
      "name": "initialize",
      "outputs": [],
      "stateMutability": "nonpayable",
      "type": "function"
    },
    {
      "inputs": [],
      "name": "name",
      "outputs": [
        {
          "internalType": "string",
          "name": "",
          "type": "string"
        }
      ],
      "stateMutability": "view",
      "type": "function"
    },
    {
      "inputs": [],
      "name": "owner",
      "outputs": [
        {
          "internalType": "address",
          "name": "",
          "type": "address"
        }
      ],
      "stateMutability": "view",
      "type": "function"
    },
    {
      "inputs": [
        {
          "internalType": "address",
          "name": "_address",
          "type": "address"
        },
        {
          "internalType": "uint256",
          "name": "_amount",
          "type": "uint256"
        }
      ],
      "name": "poolBurnFrom",
      "outputs": [],
      "stateMutability": "nonpayable",
      "type": "function"
    },
    {
      "inputs": [
        {
          "internalType": "address",
          "name": "_address",
          "type": "address"
        },
        {
          "internalType": "uint256",
          "name": "_amount",
          "type": "uint256"
        }
      ],
      "name": "poolMint",
      "outputs": [],
      "stateMutability": "nonpayable",
      "type": "function"
    },
    {
      "inputs": [],
      "name": "renounceOwnership",
      "outputs": [],
      "stateMutability": "nonpayable",
      "type": "function"
    },
    {
      "inputs": [
        {
          "internalType": "address",
          "name": "_treasury",
          "type": "address"
        }
      ],
      "name": "setTreasuryAddress",
      "outputs": [],
      "stateMutability": "nonpayable",
      "type": "function"
    },
    {
      "inputs": [],
      "name": "symbol",
      "outputs": [
        {
          "internalType": "string",
          "name": "",
          "type": "string"
        }
      ],
      "stateMutability": "view",
      "type": "function"
    },
    {
      "inputs": [],
      "name": "totalSupply",
      "outputs": [
        {
          "internalType": "uint256",
          "name": "",
          "type": "uint256"
        }
      ],
      "stateMutability": "view",
      "type": "function"
    },
    {
      "inputs": [
        {
          "internalType": "address",
          "name": "recipient",
          "type": "address"
        },
        {
          "internalType": "uint256",
          "name": "amount",
          "type": "uint256"
        }
      ],
      "name": "transfer",
      "outputs": [
        {
          "internalType": "bool",
          "name": "",
          "type": "bool"
        }
      ],
      "stateMutability": "nonpayable",
      "type": "function"
    },
    {
      "inputs": [
        {
          "internalType": "address",
          "name": "sender",
          "type": "address"
        },
        {
          "internalType": "address",
          "name": "recipient",
          "type": "address"
        },
        {
          "internalType": "uint256",
          "name": "amount",
          "type": "uint256"
        }
      ],
      "name": "transferFrom",
      "outputs": [
        {
          "internalType": "bool",
          "name": "",
          "type": "bool"
        }
      ],
      "stateMutability": "nonpayable",
      "type": "function"
    },
    {
      "inputs": [
        {
          "internalType": "address",
          "name": "newOwner",
          "type": "address"
        }
      ],
      "name": "transferOwnership",
      "outputs": [],
      "stateMutability": "nonpayable",
      "type": "function"
    },
    {
      "inputs": [],
      "name": "treasury",
      "outputs": [
        {
          "internalType": "address",
          "name": "",
          "type": "address"
        }
      ],
      "stateMutability": "view",
      "type": "function"
    }
  ],
  "transactionHash": "0xf4f66a70306e8774eeaa6c0708aa3fafbde3f1d121af6ebb661fbb508841d439",
  "args": [],
  "solcInputHash": "528e37ad3cee8dde3b849d6f9ffe4ef0",
  "bytecode": "0x608060405234801561001057600080fd5b5060006100216100c560201b60201c565b905080600360006101000a81548173ffffffffffffffffffffffffffffffffffffffff021916908373ffffffffffffffffffffffffffffffffffffffff1602179055508073ffffffffffffffffffffffffffffffffffffffff16600073ffffffffffffffffffffffffffffffffffffffff167f8be0079c531659141344cd1fd0a4f28419497f9722a3daafe3b4186f6b6457e060405160405180910390a3506100cd565b600033905090565b612913806100dc6000396000f3fe608060405234801561001057600080fd5b50600436106101425760003560e01c806361d027b3116100b85780638da5cb5b1161007c5780638da5cb5b1461034f57806395d89b411461036d578063a457c2d71461038b578063a9059cbb146103bb578063dd62ed3e146103eb578063f2fde38b1461041b57610142565b806361d027b3146102bf5780636605bfda146102dd57806370a08231146102f9578063715018a61461032957806379cc67901461033357610142565b806318160ddd1161010a57806318160ddd146101e957806323b872dd14610207578063313ce56714610237578063395093511461025557806342966c681461028557806351e238e3146102a157610142565b806306fdde0314610147578063077f224a14610165578063095ea7b3146101815780630a0c165a146101b15780630c407d56146101cd575b600080fd5b61014f610437565b60405161015c91906120c6565b60405180910390f35b61017f600480360381019061017a9190611df2565b6104c5565b005b61019b60048036038101906101969190611d8d565b6106a5565b6040516101a891906120ab565b60405180910390f35b6101cb60048036038101906101c69190611d8d565b6106c3565b005b6101e760048036038101906101e29190611d8d565b610820565b005b6101f161097d565b6040516101fe9190612248565b60405180910390f35b610221600480360381019061021c9190611d3e565b610987565b60405161022e91906120ab565b60405180910390f35b61023f610a60565b60405161024c9190612263565b60405180910390f35b61026f600480360381019061026a9190611d8d565b610a65565b60405161027c91906120ab565b60405180910390f35b61029f600480360381019061029a9190611e71565b610b18565b005b6102a9610b2c565b6040516102b69190612248565b60405180910390f35b6102c7610b3a565b6040516102d49190612090565b60405180910390f35b6102f760048036038101906102f29190611cd9565b610b60565b005b610313600480360381019061030e9190611cd9565b610cd3565b6040516103209190612248565b60405180910390f35b610331610d1b565b005b61034d60048036038101906103489190611d8d565b610e58565b005b610357610eba565b6040516103649190612090565b60405180910390f35b610375610ee4565b60405161038291906120c6565b60405180910390f35b6103a560048036038101906103a09190611d8d565b610f72565b6040516103b291906120ab565b60405180910390f35b6103d560048036038101906103d09190611d8d565b61103f565b6040516103e291906120ab565b60405180910390f35b61040560048036038101906104009190611d02565b61105d565b6040516104129190612248565b60405180910390f35b61043560048036038101906104309190611cd9565b6110e4565b005b6005805461044490612411565b80601f016020809104026020016040519081016040528092919081815260200182805461047090612411565b80156104bd5780601f10610492576101008083540402835291602001916104bd565b820191906000526020600020905b8154815290600101906020018083116104a057829003601f168201915b505050505081565b600360159054906101000a900460ff16806104ed5750600360149054906101000a900460ff16155b61052c576040517f08c379a000000000000000000000000000000000000000000000000000000000815260040161052390612168565b60405180910390fd5b6000600360159054906101000a900460ff16159050801561057e576001600360156101000a81548160ff0219169083151502179055506001600360146101000a81548160ff0219169083151502179055505b610586611290565b73ffffffffffffffffffffffffffffffffffffffff166105a4610eba565b73ffffffffffffffffffffffffffffffffffffffff16146105fa576040517f08c379a00000000000000000000000000000000000000000000000000000000081526004016105f190612188565b60405180910390fd5b8360059080519060200190610610929190611b8f565b508260049080519060200190610627929190611b8f565b5081600660006101000a81548173ffffffffffffffffffffffffffffffffffffffff021916908373ffffffffffffffffffffffffffffffffffffffff16021790555061067d3369010f0cf064dd59200000611298565b801561069f576000600360156101000a81548160ff0219169083151502179055505b50505050565b60006106b96106b2611290565b848461142c565b6001905092915050565b600660009054906101000a900473ffffffffffffffffffffffffffffffffffffffff1673ffffffffffffffffffffffffffffffffffffffff16631246dbf5336040518263ffffffff1660e01b815260040161071e9190612090565b60206040518083038186803b15801561073657600080fd5b505afa15801561074a573d6000803e3d6000fd5b505050506040513d601f19601f8201168201806040525081019061076e9190611dc9565b6107ad576040517f08c379a00000000000000000000000000000000000000000000000000000000081526004016107a490612208565b60405180910390fd5b6107b782826115f7565b3373ffffffffffffffffffffffffffffffffffffffff168273ffffffffffffffffffffffffffffffffffffffff167fb53a8a5aa66e96b4627a60632ff728cd6991e142988ea8f28215fae565fe8ad0836040516108149190612248565b60405180910390a35050565b600660009054906101000a900473ffffffffffffffffffffffffffffffffffffffff1673ffffffffffffffffffffffffffffffffffffffff16631246dbf5336040518263ffffffff1660e01b815260040161087b9190612090565b60206040518083038186803b15801561089357600080fd5b505afa1580156108a7573d6000803e3d6000fd5b505050506040513d601f19601f820116820180604052508101906108cb9190611dc9565b61090a576040517f08c379a000000000000000000000000000000000000000000000000000000000815260040161090190612208565b60405180910390fd5b6109148282611298565b8173ffffffffffffffffffffffffffffffffffffffff163373ffffffffffffffffffffffffffffffffffffffff167f0c0f5df55f02a0601bce877b4f87152a1e95aa77aa55a08f16a8852fcf1f2bf9836040516109719190612248565b60405180910390a35050565b6000600254905090565b60006109948484846116c6565b610a55846109a0611290565b610a508560405180606001604052806028815260200161286d60289139600160008b73ffffffffffffffffffffffffffffffffffffffff1673ffffffffffffffffffffffffffffffffffffffff1681526020019081526020016000206000610a06611290565b73ffffffffffffffffffffffffffffffffffffffff1673ffffffffffffffffffffffffffffffffffffffff1681526020019081526020016000205461195b9092919063ffffffff16565b61142c565b600190509392505050565b601281565b6000610b0e610a72611290565b84610b098560016000610a83611290565b73ffffffffffffffffffffffffffffffffffffffff1673ffffffffffffffffffffffffffffffffffffffff16815260200190815260200160002060008973ffffffffffffffffffffffffffffffffffffffff1673ffffffffffffffffffffffffffffffffffffffff168152602001908152602001600020546119b090919063ffffffff16565b61142c565b6001905092915050565b610b29610b23611290565b826119c6565b50565b69010f0cf064dd5920000081565b600660009054906101000a900473ffffffffffffffffffffffffffffffffffffffff1681565b610b68611290565b73ffffffffffffffffffffffffffffffffffffffff16610b86610eba565b73ffffffffffffffffffffffffffffffffffffffff1614610bdc576040517f08c379a0000000000000000000000000000000000000000000000000000000008152600401610bd390612188565b60405180910390fd5b600073ffffffffffffffffffffffffffffffffffffffff168173ffffffffffffffffffffffffffffffffffffffff161415610c4c576040517f08c379a0000000000000000000000000000000000000000000000000000000008152600401610c4390612108565b60405180910390fd5b80600660006101000a81548173ffffffffffffffffffffffffffffffffffffffff021916908373ffffffffffffffffffffffffffffffffffffffff1602179055508073ffffffffffffffffffffffffffffffffffffffff167fc714d22a2f08b695f81e7c707058db484aa5b4d6b4c9fd64beb10fe85832f60860405160405180910390a250565b60008060008373ffffffffffffffffffffffffffffffffffffffff1673ffffffffffffffffffffffffffffffffffffffff168152602001908152602001600020549050919050565b610d23611290565b73ffffffffffffffffffffffffffffffffffffffff16610d41610eba565b73ffffffffffffffffffffffffffffffffffffffff1614610d97576040517f08c379a0000000000000000000000000000000000000000000000000000000008152600401610d8e90612188565b60405180910390fd5b600073ffffffffffffffffffffffffffffffffffffffff16600360009054906101000a900473ffffffffffffffffffffffffffffffffffffffff1673ffffffffffffffffffffffffffffffffffffffff167f8be0079c531659141344cd1fd0a4f28419497f9722a3daafe3b4186f6b6457e060405160405180910390a36000600360006101000a81548173ffffffffffffffffffffffffffffffffffffffff021916908373ffffffffffffffffffffffffffffffffffffffff160217905550565b6000610e978260405180606001604052806024815260200161289560249139610e8886610e83611290565b61105d565b61195b9092919063ffffffff16565b9050610eab83610ea5611290565b8361142c565b610eb583836119c6565b505050565b6000600360009054906101000a900473ffffffffffffffffffffffffffffffffffffffff16905090565b60048054610ef190612411565b80601f0160208091040260200160405190810160405280929190818152602001828054610f1d90612411565b8015610f6a5780601f10610f3f57610100808354040283529160200191610f6a565b820191906000526020600020905b815481529060010190602001808311610f4d57829003601f168201915b505050505081565b6000611035610f7f611290565b84611030856040518060600160405280602581526020016128b96025913960016000610fa9611290565b73ffffffffffffffffffffffffffffffffffffffff1673ffffffffffffffffffffffffffffffffffffffff16815260200190815260200160002060008a73ffffffffffffffffffffffffffffffffffffffff1673ffffffffffffffffffffffffffffffffffffffff1681526020019081526020016000205461195b9092919063ffffffff16565b61142c565b6001905092915050565b600061105361104c611290565b84846116c6565b6001905092915050565b6000600160008473ffffffffffffffffffffffffffffffffffffffff1673ffffffffffffffffffffffffffffffffffffffff16815260200190815260200160002060008373ffffffffffffffffffffffffffffffffffffffff1673ffffffffffffffffffffffffffffffffffffffff16815260200190815260200160002054905092915050565b6110ec611290565b73ffffffffffffffffffffffffffffffffffffffff1661110a610eba565b73ffffffffffffffffffffffffffffffffffffffff1614611160576040517f08c379a000000000000000000000000000000000000000000000000000000000815260040161115790612188565b60405180910390fd5b600073ffffffffffffffffffffffffffffffffffffffff168173ffffffffffffffffffffffffffffffffffffffff1614156111d0576040517f08c379a00000000000000000000000000000000000000000000000000000000081526004016111c790612128565b60405180910390fd5b8073ffffffffffffffffffffffffffffffffffffffff16600360009054906101000a900473ffffffffffffffffffffffffffffffffffffffff1673ffffffffffffffffffffffffffffffffffffffff167f8be0079c531659141344cd1fd0a4f28419497f9722a3daafe3b4186f6b6457e060405160405180910390a380600360006101000a81548173ffffffffffffffffffffffffffffffffffffffff021916908373ffffffffffffffffffffffffffffffffffffffff16021790555050565b600033905090565b600073ffffffffffffffffffffffffffffffffffffffff168273ffffffffffffffffffffffffffffffffffffffff161415611308576040517f08c379a00000000000000000000000000000000000000000000000000000000081526004016112ff90612228565b60405180910390fd5b61131460008383611b74565b611329816002546119b090919063ffffffff16565b600281905550611380816000808573ffffffffffffffffffffffffffffffffffffffff1673ffffffffffffffffffffffffffffffffffffffff168152602001908152602001600020546119b090919063ffffffff16565b6000808473ffffffffffffffffffffffffffffffffffffffff1673ffffffffffffffffffffffffffffffffffffffff168152602001908152602001600020819055508173ffffffffffffffffffffffffffffffffffffffff16600073ffffffffffffffffffffffffffffffffffffffff167fddf252ad1be2c89b69c2b068fc378daa952ba7f163c4a11628f55a4df523b3ef836040516114209190612248565b60405180910390a35050565b600073ffffffffffffffffffffffffffffffffffffffff168373ffffffffffffffffffffffffffffffffffffffff16141561149c576040517f08c379a0000000000000000000000000000000000000000000000000000000008152600401611493906121e8565b60405180910390fd5b600073ffffffffffffffffffffffffffffffffffffffff168273ffffffffffffffffffffffffffffffffffffffff16141561150c576040517f08c379a000000000000000000000000000000000000000000000000000000000815260040161150390612148565b60405180910390fd5b80600160008573ffffffffffffffffffffffffffffffffffffffff1673ffffffffffffffffffffffffffffffffffffffff16815260200190815260200160002060008473ffffffffffffffffffffffffffffffffffffffff1673ffffffffffffffffffffffffffffffffffffffff168152602001908152602001600020819055508173ffffffffffffffffffffffffffffffffffffffff168373ffffffffffffffffffffffffffffffffffffffff167f8c5be1e5ebec7d5bd14f71427d1e84f3dd0314c0f7b2291e5b200ac8c7c3b925836040516115ea9190612248565b60405180910390a3505050565b61160182826119c6565b6116c28261160d611290565b6116bd8460405180606001604052806024815260200161289560249139600160008973ffffffffffffffffffffffffffffffffffffffff1673ffffffffffffffffffffffffffffffffffffffff1681526020019081526020016000206000611673611290565b73ffffffffffffffffffffffffffffffffffffffff1673ffffffffffffffffffffffffffffffffffffffff1681526020019081526020016000205461195b9092919063ffffffff16565b61142c565b5050565b600073ffffffffffffffffffffffffffffffffffffffff168373ffffffffffffffffffffffffffffffffffffffff161415611736576040517f08c379a000000000000000000000000000000000000000000000000000000000815260040161172d906121c8565b60405180910390fd5b600073ffffffffffffffffffffffffffffffffffffffff168273ffffffffffffffffffffffffffffffffffffffff1614156117a6576040517f08c379a000000000000000000000000000000000000000000000000000000000815260040161179d906120e8565b60405180910390fd5b6117b1838383611b74565b61181c81604051806060016040528060268152602001612847602691396000808773ffffffffffffffffffffffffffffffffffffffff1673ffffffffffffffffffffffffffffffffffffffff1681526020019081526020016000205461195b9092919063ffffffff16565b6000808573ffffffffffffffffffffffffffffffffffffffff1673ffffffffffffffffffffffffffffffffffffffff168152602001908152602001600020819055506118af816000808573ffffffffffffffffffffffffffffffffffffffff1673ffffffffffffffffffffffffffffffffffffffff168152602001908152602001600020546119b090919063ffffffff16565b6000808473ffffffffffffffffffffffffffffffffffffffff1673ffffffffffffffffffffffffffffffffffffffff168152602001908152602001600020819055508173ffffffffffffffffffffffffffffffffffffffff168373ffffffffffffffffffffffffffffffffffffffff167fddf252ad1be2c89b69c2b068fc378daa952ba7f163c4a11628f55a4df523b3ef8360405161194e9190612248565b60405180910390a3505050565b60008383111582906119a3576040517f08c379a000000000000000000000000000000000000000000000000000000000815260040161199a91906120c6565b60405180910390fd5b5082840390509392505050565b600081836119be91906122f0565b905092915050565b600073ffffffffffffffffffffffffffffffffffffffff168273ffffffffffffffffffffffffffffffffffffffff161415611a36576040517f08c379a0000000000000000000000000000000000000000000000000000000008152600401611a2d906121a8565b60405180910390fd5b611a4282600083611b74565b611aad81604051806060016040528060228152602001612825602291396000808673ffffffffffffffffffffffffffffffffffffffff1673ffffffffffffffffffffffffffffffffffffffff1681526020019081526020016000205461195b9092919063ffffffff16565b6000808473ffffffffffffffffffffffffffffffffffffffff1673ffffffffffffffffffffffffffffffffffffffff16815260200190815260200160002081905550611b0481600254611b7990919063ffffffff16565b600281905550600073ffffffffffffffffffffffffffffffffffffffff168273ffffffffffffffffffffffffffffffffffffffff167fddf252ad1be2c89b69c2b068fc378daa952ba7f163c4a11628f55a4df523b3ef83604051611b689190612248565b60405180910390a35050565b505050565b60008183611b879190612346565b905092915050565b828054611b9b90612411565b90600052602060002090601f016020900481019282611bbd5760008555611c04565b82601f10611bd657805160ff1916838001178555611c04565b82800160010185558215611c04579182015b82811115611c03578251825591602001919060010190611be8565b5b509050611c119190611c15565b5090565b5b80821115611c2e576000816000905550600101611c16565b5090565b6000611c45611c40846122a3565b61227e565b905082815260208101848484011115611c5d57600080fd5b611c688482856123cf565b509392505050565b600081359050611c7f816127df565b92915050565b600081519050611c94816127f6565b92915050565b600082601f830112611cab57600080fd5b8135611cbb848260208601611c32565b91505092915050565b600081359050611cd38161280d565b92915050565b600060208284031215611ceb57600080fd5b6000611cf984828501611c70565b91505092915050565b60008060408385031215611d1557600080fd5b6000611d2385828601611c70565b9250506020611d3485828601611c70565b9150509250929050565b600080600060608486031215611d5357600080fd5b6000611d6186828701611c70565b9350506020611d7286828701611c70565b9250506040611d8386828701611cc4565b9150509250925092565b60008060408385031215611da057600080fd5b6000611dae85828601611c70565b9250506020611dbf85828601611cc4565b9150509250929050565b600060208284031215611ddb57600080fd5b6000611de984828501611c85565b91505092915050565b600080600060608486031215611e0757600080fd5b600084013567ffffffffffffffff811115611e2157600080fd5b611e2d86828701611c9a565b935050602084013567ffffffffffffffff811115611e4a57600080fd5b611e5686828701611c9a565b9250506040611e6786828701611c70565b9150509250925092565b600060208284031215611e8357600080fd5b6000611e9184828501611cc4565b91505092915050565b611ea38161237a565b82525050565b611eb28161238c565b82525050565b6000611ec3826122d4565b611ecd81856122df565b9350611edd8185602086016123de565b611ee681612501565b840191505092915050565b6000611efe6023836122df565b9150611f0982612512565b604082019050919050565b6000611f21600f836122df565b9150611f2c82612561565b602082019050919050565b6000611f446026836122df565b9150611f4f8261258a565b604082019050919050565b6000611f676022836122df565b9150611f72826125d9565b604082019050919050565b6000611f8a602e836122df565b9150611f9582612628565b604082019050919050565b6000611fad6020836122df565b9150611fb882612677565b602082019050919050565b6000611fd06021836122df565b9150611fdb826126a0565b604082019050919050565b6000611ff36025836122df565b9150611ffe826126ef565b604082019050919050565b60006120166024836122df565b91506120218261273e565b604082019050919050565b60006120396006836122df565b91506120448261278d565b602082019050919050565b600061205c601f836122df565b9150612067826127b6565b602082019050919050565b61207b816123b8565b82525050565b61208a816123c2565b82525050565b60006020820190506120a56000830184611e9a565b92915050565b60006020820190506120c06000830184611ea9565b92915050565b600060208201905081810360008301526120e08184611eb8565b905092915050565b6000602082019050818103600083015261210181611ef1565b9050919050565b6000602082019050818103600083015261212181611f14565b9050919050565b6000602082019050818103600083015261214181611f37565b9050919050565b6000602082019050818103600083015261216181611f5a565b9050919050565b6000602082019050818103600083015261218181611f7d565b9050919050565b600060208201905081810360008301526121a181611fa0565b9050919050565b600060208201905081810360008301526121c181611fc3565b9050919050565b600060208201905081810360008301526121e181611fe6565b9050919050565b6000602082019050818103600083015261220181612009565b9050919050565b600060208201905081810360008301526122218161202c565b9050919050565b600060208201905081810360008301526122418161204f565b9050919050565b600060208201905061225d6000830184612072565b92915050565b60006020820190506122786000830184612081565b92915050565b6000612288612299565b90506122948282612443565b919050565b6000604051905090565b600067ffffffffffffffff8211156122be576122bd6124d2565b5b6122c782612501565b9050602081019050919050565b600081519050919050565b600082825260208201905092915050565b60006122fb826123b8565b9150612306836123b8565b9250827fffffffffffffffffffffffffffffffffffffffffffffffffffffffffffffffff0382111561233b5761233a612474565b5b828201905092915050565b6000612351826123b8565b915061235c836123b8565b92508282101561236f5761236e612474565b5b828203905092915050565b600061238582612398565b9050919050565b60008115159050919050565b600073ffffffffffffffffffffffffffffffffffffffff82169050919050565b6000819050919050565b600060ff82169050919050565b82818337600083830152505050565b60005b838110156123fc5780820151818401526020810190506123e1565b8381111561240b576000848401525b50505050565b6000600282049050600182168061242957607f821691505b6020821081141561243d5761243c6124a3565b5b50919050565b61244c82612501565b810181811067ffffffffffffffff8211171561246b5761246a6124d2565b5b80604052505050565b7f4e487b7100000000000000000000000000000000000000000000000000000000600052601160045260246000fd5b7f4e487b7100000000000000000000000000000000000000000000000000000000600052602260045260246000fd5b7f4e487b7100000000000000000000000000000000000000000000000000000000600052604160045260246000fd5b6000601f19601f8301169050919050565b7f45524332303a207472616e7366657220746f20746865207a65726f206164647260008201527f6573730000000000000000000000000000000000000000000000000000000000602082015250565b7f496e76616c696420616464726573730000000000000000000000000000000000600082015250565b7f4f776e61626c653a206e6577206f776e657220697320746865207a65726f206160008201527f6464726573730000000000000000000000000000000000000000000000000000602082015250565b7f45524332303a20617070726f766520746f20746865207a65726f20616464726560008201527f7373000000000000000000000000000000000000000000000000000000000000602082015250565b7f496e697469616c697a61626c653a20636f6e747261637420697320616c72656160008201527f647920696e697469616c697a6564000000000000000000000000000000000000602082015250565b7f4f776e61626c653a2063616c6c6572206973206e6f7420746865206f776e6572600082015250565b7f45524332303a206275726e2066726f6d20746865207a65726f2061646472657360008201527f7300000000000000000000000000000000000000000000000000000000000000602082015250565b7f45524332303a207472616e736665722066726f6d20746865207a65726f20616460008201527f6472657373000000000000000000000000000000000000000000000000000000602082015250565b7f45524332303a20617070726f76652066726f6d20746865207a65726f2061646460008201527f7265737300000000000000000000000000000000000000000000000000000000602082015250565b7f21706f6f6c730000000000000000000000000000000000000000000000000000600082015250565b7f45524332303a206d696e7420746f20746865207a65726f206164647265737300600082015250565b6127e88161237a565b81146127f357600080fd5b50565b6127ff8161238c565b811461280a57600080fd5b50565b612816816123b8565b811461282157600080fd5b5056fe45524332303a206275726e20616d6f756e7420657863656564732062616c616e636545524332303a207472616e7366657220616d6f756e7420657863656564732062616c616e636545524332303a207472616e7366657220616d6f756e74206578636565647320616c6c6f77616e636545524332303a206275726e20616d6f756e74206578636565647320616c6c6f77616e636545524332303a2064656372656173656420616c6c6f77616e63652062656c6f77207a65726fa2646970667358221220b8786a932e39a9e29e1fc6d819df55a03fb6ca6aac424df595696b8b94ae345564736f6c63430008040033",
  "devdoc": {
    "kind": "dev",
    "methods": {
      "allowance(address,address)": {
        "details": "See {IERC20-allowance}."
      },
      "approve(address,uint256)": {
        "details": "See {IERC20-approve}. Requirements: - `spender` cannot be the zero address.approve(address spender, uint256 amount)"
      },
      "balanceOf(address)": {
        "details": "See {IERC20-balanceOf}."
      },
      "burn(uint256)": {
        "details": "Destroys `amount` tokens from the caller. See {ERC20-_burn}."
      },
      "burnFrom(address,uint256)": {
        "details": "Destroys `amount` tokens from `account`, deducting from the caller's allowance. See {ERC20-_burn} and {ERC20-allowance}. Requirements: - the caller must have allowance for `accounts`'s tokens of at least `amount`."
      },
      "decreaseAllowance(address,uint256)": {
        "details": "Atomically decreases the allowance granted to `spender` by the caller. This is an alternative to {approve} that can be used as a mitigation for problems described in {IERC20-approve}. Emits an {Approval} event indicating the updated allowance. Requirements: - `spender` cannot be the zero address. - `spender` must have allowance for the caller of at least `subtractedValue`."
      },
      "increaseAllowance(address,uint256)": {
        "details": "Atomically increases the allowance granted to `spender` by the caller. This is an alternative to {approve} that can be used as a mitigation for problems described in {IERC20-approve}. Emits an {Approval} event indicating the updated allowance. Requirements: - `spender` cannot be the zero address."
      },
      "owner()": {
        "details": "Returns the address of the current owner."
      },
      "renounceOwnership()": {
        "details": "Leaves the contract without owner. It will not be possible to call `onlyOwner` functions anymore. Can only be called by the current owner. NOTE: Renouncing ownership will leave the contract without an owner, thereby removing any functionality that is only available to the owner."
      },
      "totalSupply()": {
        "details": "See {IERC20-totalSupply}."
      },
      "transfer(address,uint256)": {
        "details": "See {IERC20-transfer}. Requirements: - `recipient` cannot be the zero address. - the caller must have a balance of at least `amount`."
      },
      "transferFrom(address,address,uint256)": {
        "details": "See {IERC20-transferFrom}. Emits an {Approval} event indicating the updated allowance. This is not required by the EIP. See the note at the beginning of {ERC20}; Requirements: - `sender` and `recipient` cannot be the zero address. - `sender` must have a balance of at least `amount`. - the caller must have allowance for `sender`'s tokens of at least `amount`."
      },
      "transferOwnership(address)": {
        "details": "Transfers ownership of the contract to a new account (`newOwner`). Can only be called by the current owner."
      }
    },
    "version": 1
  },
  "userdoc": {
    "kind": "user",
    "methods": {},
    "version": 1
  },
  "storageLayout": {
    "storage": [
      {
        "astId": 2684,
        "contract": "contracts/Dollar.sol:Dollar",
        "label": "_balances",
        "offset": 0,
        "slot": "0",
        "type": "t_mapping(t_address,t_uint256)"
      },
      {
        "astId": 2690,
        "contract": "contracts/Dollar.sol:Dollar",
        "label": "_allowances",
        "offset": 0,
        "slot": "1",
        "type": "t_mapping(t_address,t_mapping(t_address,t_uint256))"
      },
      {
        "astId": 2692,
        "contract": "contracts/Dollar.sol:Dollar",
        "label": "_totalSupply",
        "offset": 0,
        "slot": "2",
        "type": "t_uint256"
      },
      {
        "astId": 99,
        "contract": "contracts/Dollar.sol:Dollar",
        "label": "_owner",
        "offset": 0,
        "slot": "3",
        "type": "t_address"
      },
      {
        "astId": 51,
        "contract": "contracts/Dollar.sol:Dollar",
        "label": "_initialized",
        "offset": 20,
        "slot": "3",
        "type": "t_bool"
      },
      {
        "astId": 54,
        "contract": "contracts/Dollar.sol:Dollar",
        "label": "_initializing",
        "offset": 21,
        "slot": "3",
        "type": "t_bool"
      },
      {
        "astId": 2512,
        "contract": "contracts/Dollar.sol:Dollar",
        "label": "symbol",
        "offset": 0,
        "slot": "4",
        "type": "t_string_storage"
      },
      {
        "astId": 2514,
        "contract": "contracts/Dollar.sol:Dollar",
        "label": "name",
        "offset": 0,
        "slot": "5",
        "type": "t_string_storage"
      },
      {
        "astId": 2522,
        "contract": "contracts/Dollar.sol:Dollar",
        "label": "treasury",
        "offset": 0,
        "slot": "6",
        "type": "t_address"
      }
    ],
    "types": {
      "t_address": {
        "encoding": "inplace",
        "label": "address",
        "numberOfBytes": "20"
      },
      "t_bool": {
        "encoding": "inplace",
        "label": "bool",
        "numberOfBytes": "1"
      },
      "t_mapping(t_address,t_mapping(t_address,t_uint256))": {
        "encoding": "mapping",
        "key": "t_address",
        "label": "mapping(address => mapping(address => uint256))",
        "numberOfBytes": "32",
        "value": "t_mapping(t_address,t_uint256)"
      },
      "t_mapping(t_address,t_uint256)": {
        "encoding": "mapping",
        "key": "t_address",
        "label": "mapping(address => uint256)",
        "numberOfBytes": "32",
        "value": "t_uint256"
      },
      "t_string_storage": {
        "encoding": "bytes",
        "label": "string",
        "numberOfBytes": "32"
      },
      "t_uint256": {
        "encoding": "inplace",
        "label": "uint256",
        "numberOfBytes": "32"
      }
    }
  }
}