{
  "address": "0xf72aB800797D1A1Dc92b407b78649913ff7f4923",
  "abi": [
    {
      "anonymous": false,
      "inputs": [
        {
          "indexed": true,
          "internalType": "address",
          "name": "owner",
          "type": "address"
        },
        {
          "indexed": true,
          "internalType": "address",
          "name": "spender",
          "type": "address"
        },
        {
          "indexed": false,
          "internalType": "uint256",
          "name": "value",
          "type": "uint256"
        }
      ],
      "name": "Approval",
      "type": "event"
    },
    {
      "anonymous": false,
      "inputs": [
        {
          "indexed": true,
          "internalType": "address",
          "name": "previousOwner",
          "type": "address"
        },
        {
          "indexed": true,
          "internalType": "address",
          "name": "newOwner",
          "type": "address"
        }
      ],
      "name": "OwnershipTransferred",
      "type": "event"
    },
    {
      "anonymous": false,
      "inputs": [
        {
          "indexed": true,
          "internalType": "address",
          "name": "from",
          "type": "address"
        },
        {
          "indexed": true,
          "internalType": "address",
          "name": "to",
          "type": "address"
        },
        {
          "indexed": false,
          "internalType": "uint256",
          "name": "amount",
          "type": "uint256"
        }
      ],
      "name": "ShareBurned",
      "type": "event"
    },
    {
      "anonymous": false,
      "inputs": [
        {
          "indexed": true,
          "internalType": "address",
          "name": "from",
          "type": "address"
        },
        {
          "indexed": true,
          "internalType": "address",
          "name": "to",
          "type": "address"
        },
        {
          "indexed": false,
          "internalType": "uint256",
          "name": "amount",
          "type": "uint256"
        }
      ],
      "name": "ShareMinted",
      "type": "event"
    },
    {
      "anonymous": false,
      "inputs": [
        {
          "indexed": true,
          "internalType": "address",
          "name": "from",
          "type": "address"
        },
        {
          "indexed": true,
          "internalType": "address",
          "name": "to",
          "type": "address"
        },
        {
          "indexed": false,
          "internalType": "uint256",
          "name": "value",
          "type": "uint256"
        }
      ],
      "name": "Transfer",
      "type": "event"
    },
    {
      "anonymous": false,
      "inputs": [
        {
          "indexed": true,
          "internalType": "address",
          "name": "newTreasury",
          "type": "address"
        }
      ],
      "name": "TreasuryChanged",
      "type": "event"
    },
    {
      "inputs": [],
      "name": "COMMUNITY_REWARD_ALLOCATION",
      "outputs": [
        {
          "internalType": "uint256",
          "name": "",
          "type": "uint256"
        }
      ],
      "stateMutability": "view",
      "type": "function"
    },
    {
      "inputs": [],
      "name": "TREASURY_FUND_ALLOCATION",
      "outputs": [
        {
          "internalType": "uint256",
          "name": "",
          "type": "uint256"
        }
      ],
      "stateMutability": "view",
      "type": "function"
    },
    {
      "inputs": [],
      "name": "TREASURY_FUND_VESTING_DURATION",
      "outputs": [
        {
          "internalType": "uint256",
          "name": "",
          "type": "uint256"
        }
      ],
      "stateMutability": "view",
      "type": "function"
    },
    {
      "inputs": [
        {
          "internalType": "address",
          "name": "owner",
          "type": "address"
        },
        {
          "internalType": "address",
          "name": "spender",
          "type": "address"
        }
      ],
      "name": "allowance",
      "outputs": [
        {
          "internalType": "uint256",
          "name": "",
          "type": "uint256"
        }
      ],
      "stateMutability": "view",
      "type": "function"
    },
    {
      "inputs": [
        {
          "internalType": "address",
          "name": "spender",
          "type": "address"
        },
        {
          "internalType": "uint256",
          "name": "amount",
          "type": "uint256"
        }
      ],
      "name": "approve",
      "outputs": [
        {
          "internalType": "bool",
          "name": "",
          "type": "bool"
        }
      ],
      "stateMutability": "nonpayable",
      "type": "function"
    },
    {
      "inputs": [
        {
          "internalType": "address",
          "name": "account",
          "type": "address"
        }
      ],
      "name": "balanceOf",
      "outputs": [
        {
          "internalType": "uint256",
          "name": "",
          "type": "uint256"
        }
      ],
      "stateMutability": "view",
      "type": "function"
    },
    {
      "inputs": [
        {
          "internalType": "uint256",
          "name": "amount",
          "type": "uint256"
        }
      ],
      "name": "burn",
      "outputs": [],
      "stateMutability": "nonpayable",
      "type": "function"
    },
    {
      "inputs": [
        {
          "internalType": "address",
          "name": "account",
          "type": "address"
        },
        {
          "internalType": "uint256",
          "name": "amount",
          "type": "uint256"
        }
      ],
      "name": "burnFrom",
      "outputs": [],
      "stateMutability": "nonpayable",
      "type": "function"
    },
    {
      "inputs": [
        {
          "internalType": "uint256",
          "name": "amount",
          "type": "uint256"
        }
      ],
      "name": "claimCommunityRewards",
      "outputs": [],
      "stateMutability": "nonpayable",
      "type": "function"
    },
    {
      "inputs": [],
      "name": "claimTreasuryFundRewards",
      "outputs": [],
      "stateMutability": "nonpayable",
      "type": "function"
    },
    {
      "inputs": [],
      "name": "communityRewardClaimed",
      "outputs": [
        {
          "internalType": "uint256",
          "name": "",
          "type": "uint256"
        }
      ],
      "stateMutability": "view",
      "type": "function"
    },
    {
      "inputs": [],
      "name": "communityRewardController",
      "outputs": [
        {
          "internalType": "address",
          "name": "",
          "type": "address"
        }
      ],
      "stateMutability": "view",
      "type": "function"
    },
    {
      "inputs": [],
      "name": "decimals",
      "outputs": [
        {
          "internalType": "uint8",
          "name": "",
          "type": "uint8"
        }
      ],
      "stateMutability": "view",
      "type": "function"
    },
    {
      "inputs": [
        {
          "internalType": "address",
          "name": "spender",
          "type": "address"
        },
        {
          "internalType": "uint256",
          "name": "subtractedValue",
          "type": "uint256"
        }
      ],
      "name": "decreaseAllowance",
      "outputs": [
        {
          "internalType": "bool",
          "name": "",
          "type": "bool"
        }
      ],
      "stateMutability": "nonpayable",
      "type": "function"
    },
    {
      "inputs": [],
      "name": "endTime",
      "outputs": [
        {
          "internalType": "uint256",
          "name": "",
          "type": "uint256"
        }
      ],
      "stateMutability": "view",
      "type": "function"
    },
    {
      "inputs": [],
      "name": "genesis_supply",
      "outputs": [
        {
          "internalType": "uint256",
          "name": "",
          "type": "uint256"
        }
      ],
      "stateMutability": "view",
      "type": "function"
    },
    {
      "inputs": [
        {
          "internalType": "address",
          "name": "spender",
          "type": "address"
        },
        {
          "internalType": "uint256",
          "name": "addedValue",
          "type": "uint256"
        }
      ],
      "name": "increaseAllowance",
      "outputs": [
        {
          "internalType": "bool",
          "name": "",
          "type": "bool"
        }
      ],
      "stateMutability": "nonpayable",
      "type": "function"
    },
    {
      "inputs": [
        {
          "internalType": "string",
          "name": "_name",
          "type": "string"
        },
        {
          "internalType": "string",
          "name": "_symbol",
          "type": "string"
        },
        {
          "internalType": "address",
          "name": "_treasury",
          "type": "address"
        },
        {
          "internalType": "address",
          "name": "_treasuryFund",
          "type": "address"
        },
        {
          "internalType": "address",
          "name": "_communityRewardController",
          "type": "address"
        },
        {
          "internalType": "uint256",
          "name": "_startTime",
          "type": "uint256"
        }
      ],
      "name": "initialize",
      "outputs": [],
      "stateMutability": "nonpayable",
      "type": "function"
    },
    {
      "inputs": [],
      "name": "name",
      "outputs": [
        {
          "internalType": "string",
          "name": "",
          "type": "string"
        }
      ],
      "stateMutability": "view",
      "type": "function"
    },
    {
      "inputs": [],
      "name": "owner",
      "outputs": [
        {
          "internalType": "address",
          "name": "",
          "type": "address"
        }
      ],
      "stateMutability": "view",
      "type": "function"
    },
    {
      "inputs": [
        {
          "internalType": "address",
          "name": "b_address",
          "type": "address"
        },
        {
          "internalType": "uint256",
          "name": "b_amount",
          "type": "uint256"
        }
      ],
      "name": "poolBurnFrom",
      "outputs": [],
      "stateMutability": "nonpayable",
      "type": "function"
    },
    {
      "inputs": [
        {
          "internalType": "address",
          "name": "m_address",
          "type": "address"
        },
        {
          "internalType": "uint256",
          "name": "m_amount",
          "type": "uint256"
        }
      ],
      "name": "poolMint",
      "outputs": [],
      "stateMutability": "nonpayable",
      "type": "function"
    },
    {
      "inputs": [],
      "name": "renounceOwnership",
      "outputs": [],
      "stateMutability": "nonpayable",
      "type": "function"
    },
    {
      "inputs": [
        {
          "internalType": "address",
          "name": "_communityRewardController",
          "type": "address"
        }
      ],
      "name": "setCommunityRewardController",
      "outputs": [],
      "stateMutability": "nonpayable",
      "type": "function"
    },
    {
      "inputs": [
        {
          "internalType": "address",
          "name": "_treasury",
          "type": "address"
        }
      ],
      "name": "setTreasuryAddress",
      "outputs": [],
      "stateMutability": "nonpayable",
      "type": "function"
    },
    {
      "inputs": [
        {
          "internalType": "address",
          "name": "_treasuryFund",
          "type": "address"
        }
      ],
      "name": "setTreasuryFund",
      "outputs": [],
      "stateMutability": "nonpayable",
      "type": "function"
    },
    {
      "inputs": [],
      "name": "startTime",
      "outputs": [
        {
          "internalType": "uint256",
          "name": "",
          "type": "uint256"
        }
      ],
      "stateMutability": "view",
      "type": "function"
    },
    {
      "inputs": [],
      "name": "symbol",
      "outputs": [
        {
          "internalType": "string",
          "name": "",
          "type": "string"
        }
      ],
      "stateMutability": "view",
      "type": "function"
    },
    {
      "inputs": [],
      "name": "totalSupply",
      "outputs": [
        {
          "internalType": "uint256",
          "name": "",
          "type": "uint256"
        }
      ],
      "stateMutability": "view",
      "type": "function"
    },
    {
      "inputs": [
        {
          "internalType": "address",
          "name": "recipient",
          "type": "address"
        },
        {
          "internalType": "uint256",
          "name": "amount",
          "type": "uint256"
        }
      ],
      "name": "transfer",
      "outputs": [
        {
          "internalType": "bool",
          "name": "",
          "type": "bool"
        }
      ],
      "stateMutability": "nonpayable",
      "type": "function"
    },
    {
      "inputs": [
        {
          "internalType": "address",
          "name": "sender",
          "type": "address"
        },
        {
          "internalType": "address",
          "name": "recipient",
          "type": "address"
        },
        {
          "internalType": "uint256",
          "name": "amount",
          "type": "uint256"
        }
      ],
      "name": "transferFrom",
      "outputs": [
        {
          "internalType": "bool",
          "name": "",
          "type": "bool"
        }
      ],
      "stateMutability": "nonpayable",
      "type": "function"
    },
    {
      "inputs": [
        {
          "internalType": "address",
          "name": "newOwner",
          "type": "address"
        }
      ],
      "name": "transferOwnership",
      "outputs": [],
      "stateMutability": "nonpayable",
      "type": "function"
    },
    {
      "inputs": [],
      "name": "treasury",
      "outputs": [
        {
          "internalType": "address",
          "name": "",
          "type": "address"
        }
      ],
      "stateMutability": "view",
      "type": "function"
    },
    {
      "inputs": [],
      "name": "treasuryFund",
      "outputs": [
        {
          "internalType": "address",
          "name": "",
          "type": "address"
        }
      ],
      "stateMutability": "view",
      "type": "function"
    },
    {
      "inputs": [],
      "name": "treasuryFundEmissionRate",
      "outputs": [
        {
          "internalType": "uint256",
          "name": "",
          "type": "uint256"
        }
      ],
      "stateMutability": "view",
      "type": "function"
    },
    {
      "inputs": [],
      "name": "treasuryFundLastClaimed",
      "outputs": [
        {
          "internalType": "uint256",
          "name": "",
          "type": "uint256"
        }
      ],
      "stateMutability": "view",
      "type": "function"
    },
    {
      "inputs": [],
      "name": "unclaimedTreasuryFund",
      "outputs": [
        {
          "internalType": "uint256",
          "name": "_pending",
          "type": "uint256"
        }
      ],
      "stateMutability": "view",
      "type": "function"
    }
  ],
  "transactionHash": "0xb9f008f6e452bd135ec4bc47f4e3a9ed36b6317ae12d01f9e1d792a14ec400a8",
  "args": [],
  "solcInputHash": "528e37ad3cee8dde3b849d6f9ffe4ef0",
  "bytecode": "0x60806040526305a39a806af8277896582678ac000000620000219190620000f1565b600b553480156200003157600080fd5b50600062000044620000e960201b60201c565b905080600360006101000a81548173ffffffffffffffffffffffffffffffffffffffff021916908373ffffffffffffffffffffffffffffffffffffffff1602179055508073ffffffffffffffffffffffffffffffffffffffff16600073ffffffffffffffffffffffffffffffffffffffff167f8be0079c531659141344cd1fd0a4f28419497f9722a3daafe3b4186f6b6457e060405160405180910390a35062000162565b600033905090565b6000620000fe8262000129565b91506200010b8362000129565b9250826200011e576200011d62000133565b5b828204905092915050565b6000819050919050565b7f4e487b7100000000000000000000000000000000000000000000000000000000600052601260045260246000fd5b61359c80620001726000396000f3fe608060405234801561001057600080fd5b50600436106102275760003560e01c806370a0823111610130578063a9059cbb116100b8578063e8efb3d51161007c578063e8efb3d514610634578063edf3e29e14610652578063f25f8cb31461066e578063f2fde38b1461068c578063f746b718146106a857610227565b8063a9059cbb14610590578063d5b8cbc2146105c0578063dd62ed3e146105ca578063e0c4f12d146105fa578063e6bbbaee1461061857610227565b80638da5cb5b116100ff5780638da5cb5b146104e857806395d89b4114610506578063a349e24614610524578063a457c2d714610542578063a790b5ca1461057257610227565b806370a0823114610474578063715018a6146104a457806378e97925146104ae57806379cc6790146104cc57610227565b8063313ce567116101b35780634744aa7f116101825780634744aa7f146103e257806351e238e3146103fe5780635d218c7c1461041c57806361d027b31461043a5780636605bfda1461045857610227565b8063313ce5671461035a5780633197cbb614610378578063395093511461039657806342966c68146103c657610227565b80630c407d56116101fa5780630c407d56146102b457806313ca8115146102d057806317764782146102ee57806318160ddd1461030c57806323b872dd1461032a57610227565b806305e1b1101461022c57806306fdde031461024a578063095ea7b3146102685780630a0c165a14610298575b600080fd5b6102346106c4565b6040516102419190612d84565b60405180910390f35b6102526106ca565b60405161025f9190612b62565b60405180910390f35b610282600480360381019061027d9190612740565b610758565b60405161028f9190612b47565b60405180910390f35b6102b260048036038101906102ad9190612740565b610776565b005b6102ce60048036038101906102c99190612740565b6108d3565b005b6102d8610a30565b6040516102e59190612d84565b60405180910390f35b6102f6610a3f565b6040516103039190612d84565b60405180910390f35b610314610a8a565b6040516103219190612d84565b60405180910390f35b610344600480360381019061033f91906126f1565b610a94565b6040516103519190612b47565b60405180910390f35b610362610b6d565b60405161036f9190612d9f565b60405180910390f35b610380610b72565b60405161038d9190612d84565b60405180910390f35b6103b060048036038101906103ab9190612740565b610b78565b6040516103bd9190612b47565b60405180910390f35b6103e060048036038101906103db919061285e565b610c2b565b005b6103fc60048036038101906103f7919061285e565b610c3f565b005b610406610e35565b6040516104139190612d84565b60405180910390f35b610424610e43565b6040516104319190612d84565b60405180910390f35b610442610e4b565b60405161044f9190612b2c565b60405180910390f35b610472600480360381019061046d919061268c565b610e71565b005b61048e6004803603810190610489919061268c565b610fe4565b60405161049b9190612d84565b60405180910390f35b6104ac61102c565b005b6104b6611169565b6040516104c39190612d84565b60405180910390f35b6104e660048036038101906104e19190612740565b61116f565b005b6104f06111d1565b6040516104fd9190612b2c565b60405180910390f35b61050e6111fb565b60405161051b9190612b62565b60405180910390f35b61052c611289565b6040516105399190612b2c565b60405180910390f35b61055c60048036038101906105579190612740565b6112af565b6040516105699190612b47565b60405180910390f35b61057a61137c565b6040516105879190612d84565b60405180910390f35b6105aa60048036038101906105a59190612740565b611382565b6040516105b79190612b47565b60405180910390f35b6105c86113a0565b005b6105e460048036038101906105df91906126b5565b6114d7565b6040516105f19190612d84565b60405180910390f35b61060261155e565b60405161060f9190612b2c565b60405180910390f35b610632600480360381019061062d919061268c565b611584565b005b61063c6116b4565b6040516106499190612d84565b60405180910390f35b61066c600480360381019061066791906127a5565b6116ba565b005b610676611943565b6040516106839190612d84565b60405180910390f35b6106a660048036038101906106a1919061268c565b611953565b005b6106c260048036038101906106bd919061268c565b611aff565b005b600a5481565b600580546106d790612fa7565b80601f016020809104026020016040519081016040528092919081815260200182805461070390612fa7565b80156107505780601f1061072557610100808354040283529160200191610750565b820191906000526020600020905b81548152906001019060200180831161073357829003601f168201915b505050505081565b600061076c610765611c43565b8484611c4b565b6001905092915050565b600660009054906101000a900473ffffffffffffffffffffffffffffffffffffffff1673ffffffffffffffffffffffffffffffffffffffff16631246dbf5336040518263ffffffff1660e01b81526004016107d19190612b2c565b60206040518083038186803b1580156107e957600080fd5b505afa1580156107fd573d6000803e3d6000fd5b505050506040513d601f19601f82011682018060405250810190610821919061277c565b610860576040517f08c379a000000000000000000000000000000000000000000000000000000000815260040161085790612d24565b60405180910390fd5b61086a8282611e16565b3073ffffffffffffffffffffffffffffffffffffffff168273ffffffffffffffffffffffffffffffffffffffff167fdf05d6cb804e48c3130d5f7811e55947769ccdecf499faea489170f17df227cf836040516108c79190612d84565b60405180910390a35050565b600660009054906101000a900473ffffffffffffffffffffffffffffffffffffffff1673ffffffffffffffffffffffffffffffffffffffff16631246dbf5336040518263ffffffff1660e01b815260040161092e9190612b2c565b60206040518083038186803b15801561094657600080fd5b505afa15801561095a573d6000803e3d6000fd5b505050506040513d601f19601f8201168201806040525081019061097e919061277c565b6109bd576040517f08c379a00000000000000000000000000000000000000000000000000000000081526004016109b490612d24565b60405180910390fd5b6109c78282611ee5565b8173ffffffffffffffffffffffffffffffffffffffff163073ffffffffffffffffffffffffffffffffffffffff167ff4d2b66b63836b39ffec28f88533e0f50c9136ab7d8d9b9976f93d3880e8020583604051610a249190612d84565b60405180910390a35050565b6af8277896582678ac00000081565b600080429050600854811115610a555760085490505b80600a5410610a68576000915050610a87565b600b54600a5482610a799190612edc565b610a839190612e82565b9150505b90565b6000600254905090565b6000610aa1848484612079565b610b6284610aad611c43565b610b5d856040518060600160405280602881526020016134f660289139600160008b73ffffffffffffffffffffffffffffffffffffffff1673ffffffffffffffffffffffffffffffffffffffff1681526020019081526020016000206000610b13611c43565b73ffffffffffffffffffffffffffffffffffffffff1673ffffffffffffffffffffffffffffffffffffffff1681526020019081526020016000205461230e9092919063ffffffff16565b611c4b565b600190509392505050565b601281565b60085481565b6000610c21610b85611c43565b84610c1c8560016000610b96611c43565b73ffffffffffffffffffffffffffffffffffffffff1673ffffffffffffffffffffffffffffffffffffffff16815260200190815260200160002060008973ffffffffffffffffffffffffffffffffffffffff1673ffffffffffffffffffffffffffffffffffffffff1681526020019081526020016000205461236390919063ffffffff16565b611c4b565b6001905092915050565b610c3c610c36611c43565b82612379565b50565b610c47611c43565b73ffffffffffffffffffffffffffffffffffffffff16610c656111d1565b73ffffffffffffffffffffffffffffffffffffffff1614610cbb576040517f08c379a0000000000000000000000000000000000000000000000000000000008152600401610cb290612c64565b60405180910390fd5b60008111610cfe576040517f08c379a0000000000000000000000000000000000000000000000000000000008152600401610cf590612cc4565b60405180910390fd5b600073ffffffffffffffffffffffffffffffffffffffff16600c60009054906101000a900473ffffffffffffffffffffffffffffffffffffffff1673ffffffffffffffffffffffffffffffffffffffff161415610d90576040517f08c379a0000000000000000000000000000000000000000000000000000000008152600401610d8790612c24565b60405180910390fd5b6000600d546b024306c4097859c43c000000610dac9190612edc565b905080821115610df1576040517f08c379a0000000000000000000000000000000000000000000000000000000008152600401610de890612d44565b60405180910390fd5b81600d54610dff9190612e2c565b600d81905550610e31600c60009054906101000a900473ffffffffffffffffffffffffffffffffffffffff1683611ee5565b5050565b690a968163f0a57b40000081565b6305a39a8081565b600660009054906101000a900473ffffffffffffffffffffffffffffffffffffffff1681565b610e79611c43565b73ffffffffffffffffffffffffffffffffffffffff16610e976111d1565b73ffffffffffffffffffffffffffffffffffffffff1614610eed576040517f08c379a0000000000000000000000000000000000000000000000000000000008152600401610ee490612c64565b60405180910390fd5b600073ffffffffffffffffffffffffffffffffffffffff168173ffffffffffffffffffffffffffffffffffffffff161415610f5d576040517f08c379a0000000000000000000000000000000000000000000000000000000008152600401610f5490612ba4565b60405180910390fd5b80600660006101000a81548173ffffffffffffffffffffffffffffffffffffffff021916908373ffffffffffffffffffffffffffffffffffffffff1602179055508073ffffffffffffffffffffffffffffffffffffffff167fc714d22a2f08b695f81e7c707058db484aa5b4d6b4c9fd64beb10fe85832f60860405160405180910390a250565b60008060008373ffffffffffffffffffffffffffffffffffffffff1673ffffffffffffffffffffffffffffffffffffffff168152602001908152602001600020549050919050565b611034611c43565b73ffffffffffffffffffffffffffffffffffffffff166110526111d1565b73ffffffffffffffffffffffffffffffffffffffff16146110a8576040517f08c379a000000000000000000000000000000000000000000000000000000000815260040161109f90612c64565b60405180910390fd5b600073ffffffffffffffffffffffffffffffffffffffff16600360009054906101000a900473ffffffffffffffffffffffffffffffffffffffff1673ffffffffffffffffffffffffffffffffffffffff167f8be0079c531659141344cd1fd0a4f28419497f9722a3daafe3b4186f6b6457e060405160405180910390a36000600360006101000a81548173ffffffffffffffffffffffffffffffffffffffff021916908373ffffffffffffffffffffffffffffffffffffffff160217905550565b60075481565b60006111ae8260405180606001604052806024815260200161351e6024913961119f8661119a611c43565b6114d7565b61230e9092919063ffffffff16565b90506111c2836111bc611c43565b83611c4b565b6111cc8383612379565b505050565b6000600360009054906101000a900473ffffffffffffffffffffffffffffffffffffffff16905090565b6004805461120890612fa7565b80601f016020809104026020016040519081016040528092919081815260200182805461123490612fa7565b80156112815780601f1061125657610100808354040283529160200191611281565b820191906000526020600020905b81548152906001019060200180831161126457829003601f168201915b505050505081565b600c60009054906101000a900473ffffffffffffffffffffffffffffffffffffffff1681565b60006113726112bc611c43565b8461136d8560405180606001604052806025815260200161354260259139600160006112e6611c43565b73ffffffffffffffffffffffffffffffffffffffff1673ffffffffffffffffffffffffffffffffffffffff16815260200190815260200160002060008a73ffffffffffffffffffffffffffffffffffffffff1673ffffffffffffffffffffffffffffffffffffffff1681526020019081526020016000205461230e9092919063ffffffff16565b611c4b565b6001905092915050565b600d5481565b600061139661138f611c43565b8484612079565b6001905092915050565b600960009054906101000a900473ffffffffffffffffffffffffffffffffffffffff1673ffffffffffffffffffffffffffffffffffffffff163373ffffffffffffffffffffffffffffffffffffffff1614611430576040517f08c379a000000000000000000000000000000000000000000000000000000000815260040161142790612c84565b60405180910390fd5b600061143a610a3f565b905060008111801561149b5750600073ffffffffffffffffffffffffffffffffffffffff16600960009054906101000a900473ffffffffffffffffffffffffffffffffffffffff1673ffffffffffffffffffffffffffffffffffffffff1614155b156114d4576114cc600960009054906101000a900473ffffffffffffffffffffffffffffffffffffffff1682611ee5565b42600a819055505b50565b6000600160008473ffffffffffffffffffffffffffffffffffffffff1673ffffffffffffffffffffffffffffffffffffffff16815260200190815260200160002060008373ffffffffffffffffffffffffffffffffffffffff1673ffffffffffffffffffffffffffffffffffffffff16815260200190815260200160002054905092915050565b600960009054906101000a900473ffffffffffffffffffffffffffffffffffffffff1681565b61158c611c43565b73ffffffffffffffffffffffffffffffffffffffff166115aa6111d1565b73ffffffffffffffffffffffffffffffffffffffff1614611600576040517f08c379a00000000000000000000000000000000000000000000000000000000081526004016115f790612c64565b60405180910390fd5b600073ffffffffffffffffffffffffffffffffffffffff168173ffffffffffffffffffffffffffffffffffffffff161415611670576040517f08c379a000000000000000000000000000000000000000000000000000000000815260040161166790612c04565b60405180910390fd5b80600c60006101000a81548173ffffffffffffffffffffffffffffffffffffffff021916908373ffffffffffffffffffffffffffffffffffffffff16021790555050565b600b5481565b600360159054906101000a900460ff16806116e25750600360149054906101000a900460ff16155b611721576040517f08c379a000000000000000000000000000000000000000000000000000000000815260040161171890612c44565b60405180910390fd5b6000600360159054906101000a900460ff161590508015611773576001600360156101000a81548160ff0219169083151502179055506001600360146101000a81548160ff0219169083151502179055505b61177b611c43565b73ffffffffffffffffffffffffffffffffffffffff166117996111d1565b73ffffffffffffffffffffffffffffffffffffffff16146117ef576040517f08c379a00000000000000000000000000000000000000000000000000000000081526004016117e690612c64565b60405180910390fd5b8660059080519060200190611805929190612542565b50856004908051906020019061181c929190612542565b5084600660006101000a81548173ffffffffffffffffffffffffffffffffffffffff021916908373ffffffffffffffffffffffffffffffffffffffff16021790555083600960006101000a81548173ffffffffffffffffffffffffffffffffffffffff021916908373ffffffffffffffffffffffffffffffffffffffff16021790555082600c60006101000a81548173ffffffffffffffffffffffffffffffffffffffff021916908373ffffffffffffffffffffffffffffffffffffffff160217905550816007819055506305a39a80826118f79190612e2c565b60088190555081600a8190555061191833690a968163f0a57b400000611ee5565b801561193a576000600360156101000a81548160ff0219169083151502179055505b50505050505050565b6b024306c4097859c43c00000081565b61195b611c43565b73ffffffffffffffffffffffffffffffffffffffff166119796111d1565b73ffffffffffffffffffffffffffffffffffffffff16146119cf576040517f08c379a00000000000000000000000000000000000000000000000000000000081526004016119c690612c64565b60405180910390fd5b600073ffffffffffffffffffffffffffffffffffffffff168173ffffffffffffffffffffffffffffffffffffffff161415611a3f576040517f08c379a0000000000000000000000000000000000000000000000000000000008152600401611a3690612bc4565b60405180910390fd5b8073ffffffffffffffffffffffffffffffffffffffff16600360009054906101000a900473ffffffffffffffffffffffffffffffffffffffff1673ffffffffffffffffffffffffffffffffffffffff167f8be0079c531659141344cd1fd0a4f28419497f9722a3daafe3b4186f6b6457e060405160405180910390a380600360006101000a81548173ffffffffffffffffffffffffffffffffffffffff021916908373ffffffffffffffffffffffffffffffffffffffff16021790555050565b600960009054906101000a900473ffffffffffffffffffffffffffffffffffffffff1673ffffffffffffffffffffffffffffffffffffffff163373ffffffffffffffffffffffffffffffffffffffff1614611b8f576040517f08c379a0000000000000000000000000000000000000000000000000000000008152600401611b8690612c84565b60405180910390fd5b600073ffffffffffffffffffffffffffffffffffffffff168173ffffffffffffffffffffffffffffffffffffffff161415611bff576040517f08c379a0000000000000000000000000000000000000000000000000000000008152600401611bf690612c04565b60405180910390fd5b80600960006101000a81548173ffffffffffffffffffffffffffffffffffffffff021916908373ffffffffffffffffffffffffffffffffffffffff16021790555050565b600033905090565b600073ffffffffffffffffffffffffffffffffffffffff168373ffffffffffffffffffffffffffffffffffffffff161415611cbb576040517f08c379a0000000000000000000000000000000000000000000000000000000008152600401611cb290612d04565b60405180910390fd5b600073ffffffffffffffffffffffffffffffffffffffff168273ffffffffffffffffffffffffffffffffffffffff161415611d2b576040517f08c379a0000000000000000000000000000000000000000000000000000000008152600401611d2290612be4565b60405180910390fd5b80600160008573ffffffffffffffffffffffffffffffffffffffff1673ffffffffffffffffffffffffffffffffffffffff16815260200190815260200160002060008473ffffffffffffffffffffffffffffffffffffffff1673ffffffffffffffffffffffffffffffffffffffff168152602001908152602001600020819055508173ffffffffffffffffffffffffffffffffffffffff168373ffffffffffffffffffffffffffffffffffffffff167f8c5be1e5ebec7d5bd14f71427d1e84f3dd0314c0f7b2291e5b200ac8c7c3b92583604051611e099190612d84565b60405180910390a3505050565b611e208282612379565b611ee182611e2c611c43565b611edc8460405180606001604052806024815260200161351e60249139600160008973ffffffffffffffffffffffffffffffffffffffff1673ffffffffffffffffffffffffffffffffffffffff1681526020019081526020016000206000611e92611c43565b73ffffffffffffffffffffffffffffffffffffffff1673ffffffffffffffffffffffffffffffffffffffff1681526020019081526020016000205461230e9092919063ffffffff16565b611c4b565b5050565b600073ffffffffffffffffffffffffffffffffffffffff168273ffffffffffffffffffffffffffffffffffffffff161415611f55576040517f08c379a0000000000000000000000000000000000000000000000000000000008152600401611f4c90612d64565b60405180910390fd5b611f6160008383612527565b611f768160025461236390919063ffffffff16565b600281905550611fcd816000808573ffffffffffffffffffffffffffffffffffffffff1673ffffffffffffffffffffffffffffffffffffffff1681526020019081526020016000205461236390919063ffffffff16565b6000808473ffffffffffffffffffffffffffffffffffffffff1673ffffffffffffffffffffffffffffffffffffffff168152602001908152602001600020819055508173ffffffffffffffffffffffffffffffffffffffff16600073ffffffffffffffffffffffffffffffffffffffff167fddf252ad1be2c89b69c2b068fc378daa952ba7f163c4a11628f55a4df523b3ef8360405161206d9190612d84565b60405180910390a35050565b600073ffffffffffffffffffffffffffffffffffffffff168373ffffffffffffffffffffffffffffffffffffffff1614156120e9576040517f08c379a00000000000000000000000000000000000000000000000000000000081526004016120e090612ce4565b60405180910390fd5b600073ffffffffffffffffffffffffffffffffffffffff168273ffffffffffffffffffffffffffffffffffffffff161415612159576040517f08c379a000000000000000000000000000000000000000000000000000000000815260040161215090612b84565b60405180910390fd5b612164838383612527565b6121cf816040518060600160405280602681526020016134d0602691396000808773ffffffffffffffffffffffffffffffffffffffff1673ffffffffffffffffffffffffffffffffffffffff1681526020019081526020016000205461230e9092919063ffffffff16565b6000808573ffffffffffffffffffffffffffffffffffffffff1673ffffffffffffffffffffffffffffffffffffffff16815260200190815260200160002081905550612262816000808573ffffffffffffffffffffffffffffffffffffffff1673ffffffffffffffffffffffffffffffffffffffff1681526020019081526020016000205461236390919063ffffffff16565b6000808473ffffffffffffffffffffffffffffffffffffffff1673ffffffffffffffffffffffffffffffffffffffff168152602001908152602001600020819055508173ffffffffffffffffffffffffffffffffffffffff168373ffffffffffffffffffffffffffffffffffffffff167fddf252ad1be2c89b69c2b068fc378daa952ba7f163c4a11628f55a4df523b3ef836040516123019190612d84565b60405180910390a3505050565b6000838311158290612356576040517f08c379a000000000000000000000000000000000000000000000000000000000815260040161234d9190612b62565b60405180910390fd5b5082840390509392505050565b600081836123719190612e2c565b905092915050565b600073ffffffffffffffffffffffffffffffffffffffff168273ffffffffffffffffffffffffffffffffffffffff1614156123e9576040517f08c379a00000000000000000000000000000000000000000000000000000000081526004016123e090612ca4565b60405180910390fd5b6123f582600083612527565b612460816040518060600160405280602281526020016134ae602291396000808673ffffffffffffffffffffffffffffffffffffffff1673ffffffffffffffffffffffffffffffffffffffff1681526020019081526020016000205461230e9092919063ffffffff16565b6000808473ffffffffffffffffffffffffffffffffffffffff1673ffffffffffffffffffffffffffffffffffffffff168152602001908152602001600020819055506124b78160025461252c90919063ffffffff16565b600281905550600073ffffffffffffffffffffffffffffffffffffffff168273ffffffffffffffffffffffffffffffffffffffff167fddf252ad1be2c89b69c2b068fc378daa952ba7f163c4a11628f55a4df523b3ef8360405161251b9190612d84565b60405180910390a35050565b505050565b6000818361253a9190612edc565b905092915050565b82805461254e90612fa7565b90600052602060002090601f01602090048101928261257057600085556125b7565b82601f1061258957805160ff19168380011785556125b7565b828001600101855582156125b7579182015b828111156125b657825182559160200191906001019061259b565b5b5090506125c491906125c8565b5090565b5b808211156125e15760008160009055506001016125c9565b5090565b60006125f86125f384612ddf565b612dba565b90508281526020810184848401111561261057600080fd5b61261b848285612f65565b509392505050565b60008135905061263281613468565b92915050565b6000815190506126478161347f565b92915050565b600082601f83011261265e57600080fd5b813561266e8482602086016125e5565b91505092915050565b60008135905061268681613496565b92915050565b60006020828403121561269e57600080fd5b60006126ac84828501612623565b91505092915050565b600080604083850312156126c857600080fd5b60006126d685828601612623565b92505060206126e785828601612623565b9150509250929050565b60008060006060848603121561270657600080fd5b600061271486828701612623565b935050602061272586828701612623565b925050604061273686828701612677565b9150509250925092565b6000806040838503121561275357600080fd5b600061276185828601612623565b925050602061277285828601612677565b9150509250929050565b60006020828403121561278e57600080fd5b600061279c84828501612638565b91505092915050565b60008060008060008060c087890312156127be57600080fd5b600087013567ffffffffffffffff8111156127d857600080fd5b6127e489828a0161264d565b965050602087013567ffffffffffffffff81111561280157600080fd5b61280d89828a0161264d565b955050604061281e89828a01612623565b945050606061282f89828a01612623565b935050608061284089828a01612623565b92505060a061285189828a01612677565b9150509295509295509295565b60006020828403121561287057600080fd5b600061287e84828501612677565b91505092915050565b61289081612f10565b82525050565b61289f81612f22565b82525050565b60006128b082612e10565b6128ba8185612e1b565b93506128ca818560208601612f74565b6128d381613097565b840191505092915050565b60006128eb602383612e1b565b91506128f6826130a8565b604082019050919050565b600061290e600f83612e1b565b9150612919826130f7565b602082019050919050565b6000612931602683612e1b565b915061293c82613120565b604082019050919050565b6000612954602283612e1b565b915061295f8261316f565b604082019050919050565b6000612977600483612e1b565b9150612982826131be565b602082019050919050565b600061299a601183612e1b565b91506129a5826131e7565b602082019050919050565b60006129bd602e83612e1b565b91506129c882613210565b604082019050919050565b60006129e0602083612e1b565b91506129eb8261325f565b602082019050919050565b6000612a03602683612e1b565b9150612a0e82613288565b604082019050919050565b6000612a26602183612e1b565b9150612a31826132d7565b604082019050919050565b6000612a49600d83612e1b565b9150612a5482613326565b602082019050919050565b6000612a6c602583612e1b565b9150612a778261334f565b604082019050919050565b6000612a8f602483612e1b565b9150612a9a8261339e565b604082019050919050565b6000612ab2600683612e1b565b9150612abd826133ed565b602082019050919050565b6000612ad5600d83612e1b565b9150612ae082613416565b602082019050919050565b6000612af8601f83612e1b565b9150612b038261343f565b602082019050919050565b612b1781612f4e565b82525050565b612b2681612f58565b82525050565b6000602082019050612b416000830184612887565b92915050565b6000602082019050612b5c6000830184612896565b92915050565b60006020820190508181036000830152612b7c81846128a5565b905092915050565b60006020820190508181036000830152612b9d816128de565b9050919050565b60006020820190508181036000830152612bbd81612901565b9050919050565b60006020820190508181036000830152612bdd81612924565b9050919050565b60006020820190508181036000830152612bfd81612947565b9050919050565b60006020820190508181036000830152612c1d8161296a565b9050919050565b60006020820190508181036000830152612c3d8161298d565b9050919050565b60006020820190508181036000830152612c5d816129b0565b9050919050565b60006020820190508181036000830152612c7d816129d3565b9050919050565b60006020820190508181036000830152612c9d816129f6565b9050919050565b60006020820190508181036000830152612cbd81612a19565b9050919050565b60006020820190508181036000830152612cdd81612a3c565b9050919050565b60006020820190508181036000830152612cfd81612a5f565b9050919050565b60006020820190508181036000830152612d1d81612a82565b9050919050565b60006020820190508181036000830152612d3d81612aa5565b9050919050565b60006020820190508181036000830152612d5d81612ac8565b9050919050565b60006020820190508181036000830152612d7d81612aeb565b9050919050565b6000602082019050612d996000830184612b0e565b92915050565b6000602082019050612db46000830184612b1d565b92915050565b6000612dc4612dd5565b9050612dd08282612fd9565b919050565b6000604051905090565b600067ffffffffffffffff821115612dfa57612df9613068565b5b612e0382613097565b9050602081019050919050565b600081519050919050565b600082825260208201905092915050565b6000612e3782612f4e565b9150612e4283612f4e565b9250827fffffffffffffffffffffffffffffffffffffffffffffffffffffffffffffffff03821115612e7757612e7661300a565b5b828201905092915050565b6000612e8d82612f4e565b9150612e9883612f4e565b9250817fffffffffffffffffffffffffffffffffffffffffffffffffffffffffffffffff0483118215151615612ed157612ed061300a565b5b828202905092915050565b6000612ee782612f4e565b9150612ef283612f4e565b925082821015612f0557612f0461300a565b5b828203905092915050565b6000612f1b82612f2e565b9050919050565b60008115159050919050565b600073ffffffffffffffffffffffffffffffffffffffff82169050919050565b6000819050919050565b600060ff82169050919050565b82818337600083830152505050565b60005b83811015612f92578082015181840152602081019050612f77565b83811115612fa1576000848401525b50505050565b60006002820490506001821680612fbf57607f821691505b60208210811415612fd357612fd2613039565b5b50919050565b612fe282613097565b810181811067ffffffffffffffff8211171561300157613000613068565b5b80604052505050565b7f4e487b7100000000000000000000000000000000000000000000000000000000600052601160045260246000fd5b7f4e487b7100000000000000000000000000000000000000000000000000000000600052602260045260246000fd5b7f4e487b7100000000000000000000000000000000000000000000000000000000600052604160045260246000fd5b6000601f19601f8301169050919050565b7f45524332303a207472616e7366657220746f20746865207a65726f206164647260008201527f6573730000000000000000000000000000000000000000000000000000000000602082015250565b7f496e76616c696420616464726573730000000000000000000000000000000000600082015250565b7f4f776e61626c653a206e6577206f776e657220697320746865207a65726f206160008201527f6464726573730000000000000000000000000000000000000000000000000000602082015250565b7f45524332303a20617070726f766520746f20746865207a65726f20616464726560008201527f7373000000000000000000000000000000000000000000000000000000000000602082015250565b7f7a65726f00000000000000000000000000000000000000000000000000000000600082015250565b7f21726577617264436f6e74726f6c6c6572000000000000000000000000000000600082015250565b7f496e697469616c697a61626c653a20636f6e747261637420697320616c72656160008201527f647920696e697469616c697a6564000000000000000000000000000000000000602082015250565b7f4f776e61626c653a2063616c6c6572206973206e6f7420746865206f776e6572600082015250565b7f4f6e6c792074726561737572792066756e6420616464726573732063616e207460008201527f7269676765720000000000000000000000000000000000000000000000000000602082015250565b7f45524332303a206275726e2066726f6d20746865207a65726f2061646472657360008201527f7300000000000000000000000000000000000000000000000000000000000000602082015250565b7f696e76616c6964416d6f756e7400000000000000000000000000000000000000600082015250565b7f45524332303a207472616e736665722066726f6d20746865207a65726f20616460008201527f6472657373000000000000000000000000000000000000000000000000000000602082015250565b7f45524332303a20617070726f76652066726f6d20746865207a65726f2061646460008201527f7265737300000000000000000000000000000000000000000000000000000000602082015250565b7f21706f6f6c730000000000000000000000000000000000000000000000000000600082015250565b7f6578636565645265776172647300000000000000000000000000000000000000600082015250565b7f45524332303a206d696e7420746f20746865207a65726f206164647265737300600082015250565b61347181612f10565b811461347c57600080fd5b50565b61348881612f22565b811461349357600080fd5b50565b61349f81612f4e565b81146134aa57600080fd5b5056fe45524332303a206275726e20616d6f756e7420657863656564732062616c616e636545524332303a207472616e7366657220616d6f756e7420657863656564732062616c616e636545524332303a207472616e7366657220616d6f756e74206578636565647320616c6c6f77616e636545524332303a206275726e20616d6f756e74206578636565647320616c6c6f77616e636545524332303a2064656372656173656420616c6c6f77616e63652062656c6f77207a65726fa264697066735822122025414c13b3621b1f76c445169041fe61b552eed6938aff10733d5b231f21fcf164736f6c63430008040033",
  "devdoc": {
    "kind": "dev",
    "methods": {
      "allowance(address,address)": {
        "details": "See {IERC20-allowance}."
      },
      "approve(address,uint256)": {
        "details": "See {IERC20-approve}. Requirements: - `spender` cannot be the zero address.approve(address spender, uint256 amount)"
      },
      "balanceOf(address)": {
        "details": "See {IERC20-balanceOf}."
      },
      "burn(uint256)": {
        "details": "Destroys `amount` tokens from the caller. See {ERC20-_burn}."
      },
      "burnFrom(address,uint256)": {
        "details": "Destroys `amount` tokens from `account`, deducting from the caller's allowance. See {ERC20-_burn} and {ERC20-allowance}. Requirements: - the caller must have allowance for `accounts`'s tokens of at least `amount`."
      },
      "decreaseAllowance(address,uint256)": {
        "details": "Atomically decreases the allowance granted to `spender` by the caller. This is an alternative to {approve} that can be used as a mitigation for problems described in {IERC20-approve}. Emits an {Approval} event indicating the updated allowance. Requirements: - `spender` cannot be the zero address. - `spender` must have allowance for the caller of at least `subtractedValue`."
      },
      "increaseAllowance(address,uint256)": {
        "details": "Atomically increases the allowance granted to `spender` by the caller. This is an alternative to {approve} that can be used as a mitigation for problems described in {IERC20-approve}. Emits an {Approval} event indicating the updated allowance. Requirements: - `spender` cannot be the zero address."
      },
      "owner()": {
        "details": "Returns the address of the current owner."
      },
      "renounceOwnership()": {
        "details": "Leaves the contract without owner. It will not be possible to call `onlyOwner` functions anymore. Can only be called by the current owner. NOTE: Renouncing ownership will leave the contract without an owner, thereby removing any functionality that is only available to the owner."
      },
      "totalSupply()": {
        "details": "See {IERC20-totalSupply}."
      },
      "transfer(address,uint256)": {
        "details": "See {IERC20-transfer}. Requirements: - `recipient` cannot be the zero address. - the caller must have a balance of at least `amount`."
      },
      "transferFrom(address,address,uint256)": {
        "details": "See {IERC20-transferFrom}. Emits an {Approval} event indicating the updated allowance. This is not required by the EIP. See the note at the beginning of {ERC20}; Requirements: - `sender` and `recipient` cannot be the zero address. - `sender` must have a balance of at least `amount`. - the caller must have allowance for `sender`'s tokens of at least `amount`."
      },
      "transferOwnership(address)": {
        "details": "Transfers ownership of the contract to a new account (`newOwner`). Can only be called by the current owner."
      }
    },
    "version": 1
  },
  "userdoc": {
    "kind": "user",
    "methods": {},
    "version": 1
  },
  "storageLayout": {
    "storage": [
      {
        "astId": 2684,
        "contract": "contracts/Share.sol:Share",
        "label": "_balances",
        "offset": 0,
        "slot": "0",
        "type": "t_mapping(t_address,t_uint256)"
      },
      {
        "astId": 2690,
        "contract": "contracts/Share.sol:Share",
        "label": "_allowances",
        "offset": 0,
        "slot": "1",
        "type": "t_mapping(t_address,t_mapping(t_address,t_uint256))"
      },
      {
        "astId": 2692,
        "contract": "contracts/Share.sol:Share",
        "label": "_totalSupply",
        "offset": 0,
        "slot": "2",
        "type": "t_uint256"
      },
      {
        "astId": 99,
        "contract": "contracts/Share.sol:Share",
        "label": "_owner",
        "offset": 0,
        "slot": "3",
        "type": "t_address"
      },
      {
        "astId": 51,
        "contract": "contracts/Share.sol:Share",
        "label": "_initialized",
        "offset": 20,
        "slot": "3",
        "type": "t_bool"
      },
      {
        "astId": 54,
        "contract": "contracts/Share.sol:Share",
        "label": "_initializing",
        "offset": 21,
        "slot": "3",
        "type": "t_bool"
      },
      {
        "astId": 4995,
        "contract": "contracts/Share.sol:Share",
        "label": "symbol",
        "offset": 0,
        "slot": "4",
        "type": "t_string_storage"
      },
      {
        "astId": 4997,
        "contract": "contracts/Share.sol:Share",
        "label": "name",
        "offset": 0,
        "slot": "5",
        "type": "t_string_storage"
      },
      {
        "astId": 5005,
        "contract": "contracts/Share.sol:Share",
        "label": "treasury",
        "offset": 0,
        "slot": "6",
        "type": "t_address"
      },
      {
        "astId": 5016,
        "contract": "contracts/Share.sol:Share",
        "label": "startTime",
        "offset": 0,
        "slot": "7",
        "type": "t_uint256"
      },
      {
        "astId": 5018,
        "contract": "contracts/Share.sol:Share",
        "label": "endTime",
        "offset": 0,
        "slot": "8",
        "type": "t_uint256"
      },
      {
        "astId": 5020,
        "contract": "contracts/Share.sol:Share",
        "label": "treasuryFund",
        "offset": 0,
        "slot": "9",
        "type": "t_address"
      },
      {
        "astId": 5022,
        "contract": "contracts/Share.sol:Share",
        "label": "treasuryFundLastClaimed",
        "offset": 0,
        "slot": "10",
        "type": "t_uint256"
      },
      {
        "astId": 5027,
        "contract": "contracts/Share.sol:Share",
        "label": "treasuryFundEmissionRate",
        "offset": 0,
        "slot": "11",
        "type": "t_uint256"
      },
      {
        "astId": 5029,
        "contract": "contracts/Share.sol:Share",
        "label": "communityRewardController",
        "offset": 0,
        "slot": "12",
        "type": "t_address"
      },
      {
        "astId": 5031,
        "contract": "contracts/Share.sol:Share",
        "label": "communityRewardClaimed",
        "offset": 0,
        "slot": "13",
        "type": "t_uint256"
      }
    ],
    "types": {
      "t_address": {
        "encoding": "inplace",
        "label": "address",
        "numberOfBytes": "20"
      },
      "t_bool": {
        "encoding": "inplace",
        "label": "bool",
        "numberOfBytes": "1"
      },
      "t_mapping(t_address,t_mapping(t_address,t_uint256))": {
        "encoding": "mapping",
        "key": "t_address",
        "label": "mapping(address => mapping(address => uint256))",
        "numberOfBytes": "32",
        "value": "t_mapping(t_address,t_uint256)"
      },
      "t_mapping(t_address,t_uint256)": {
        "encoding": "mapping",
        "key": "t_address",
        "label": "mapping(address => uint256)",
        "numberOfBytes": "32",
        "value": "t_uint256"
      },
      "t_string_storage": {
        "encoding": "bytes",
        "label": "string",
        "numberOfBytes": "32"
      },
      "t_uint256": {
        "encoding": "inplace",
        "label": "uint256",
        "numberOfBytes": "32"
      }
    }
  }
}