{
  "address": "0x2f9D43637A73bBe52aB50F97a84f07bd3530c39F",
  "abi": [
    {
      "anonymous": false,
      "inputs": [
        {
          "indexed": true,
          "internalType": "address",
          "name": "previousOwner",
          "type": "address"
        },
        {
          "indexed": true,
          "internalType": "address",
          "name": "newOwner",
          "type": "address"
        }
      ],
      "name": "OwnershipTransferred",
      "type": "event"
    },
    {
      "inputs": [],
      "name": "balance",
      "outputs": [
        {
          "internalType": "uint256",
          "name": "",
          "type": "uint256"
        }
      ],
      "stateMutability": "view",
      "type": "function"
    },
    {
      "inputs": [],
      "name": "claim",
      "outputs": [],
      "stateMutability": "nonpayable",
      "type": "function"
    },
    {
      "inputs": [
        {
          "internalType": "address",
          "name": "_share",
          "type": "address"
        }
      ],
      "name": "initialize",
      "outputs": [],
      "stateMutability": "nonpayable",
      "type": "function"
    },
    {
      "inputs": [],
      "name": "owner",
      "outputs": [
        {
          "internalType": "address",
          "name": "",
          "type": "address"
        }
      ],
      "stateMutability": "view",
      "type": "function"
    },
    {
      "inputs": [],
      "name": "renounceOwnership",
      "outputs": [],
      "stateMutability": "nonpayable",
      "type": "function"
    },
    {
      "inputs": [
        {
          "internalType": "address",
          "name": "_token",
          "type": "address"
        },
        {
          "internalType": "uint256",
          "name": "_amount",
          "type": "uint256"
        }
      ],
      "name": "rescueFund",
      "outputs": [],
      "stateMutability": "nonpayable",
      "type": "function"
    },
    {
      "inputs": [
        {
          "internalType": "address",
          "name": "_share",
          "type": "address"
        }
      ],
      "name": "setShareAddress",
      "outputs": [],
      "stateMutability": "nonpayable",
      "type": "function"
    },
    {
      "inputs": [],
      "name": "share",
      "outputs": [
        {
          "internalType": "address",
          "name": "",
          "type": "address"
        }
      ],
      "stateMutability": "view",
      "type": "function"
    },
    {
      "inputs": [
        {
          "internalType": "address",
          "name": "_recipient",
          "type": "address"
        },
        {
          "internalType": "uint256",
          "name": "amount",
          "type": "uint256"
        }
      ],
      "name": "transfer",
      "outputs": [],
      "stateMutability": "nonpayable",
      "type": "function"
    },
    {
      "inputs": [
        {
          "internalType": "address",
          "name": "_newFund",
          "type": "address"
        }
      ],
      "name": "transferDevFundOwnership",
      "outputs": [],
      "stateMutability": "nonpayable",
      "type": "function"
    },
    {
      "inputs": [
        {
          "internalType": "address",
          "name": "newOwner",
          "type": "address"
        }
      ],
      "name": "transferOwnership",
      "outputs": [],
      "stateMutability": "nonpayable",
      "type": "function"
    }
  ],
  "transactionHash": "0x3b6eb1d77488fb080f10a21c42b4f775f36f0060e3d6742ca3e044db252b5b58",
  "args": [],
  "solcInputHash": "528e37ad3cee8dde3b849d6f9ffe4ef0",
  "bytecode": "0x608060405234801561001057600080fd5b5060006100216100c460201b60201c565b9050806000806101000a81548173ffffffffffffffffffffffffffffffffffffffff021916908373ffffffffffffffffffffffffffffffffffffffff1602179055508073ffffffffffffffffffffffffffffffffffffffff16600073ffffffffffffffffffffffffffffffffffffffff167f8be0079c531659141344cd1fd0a4f28419497f9722a3daafe3b4186f6b6457e060405160405180910390a3506100cc565b600033905090565b61186c806100db6000396000f3fe608060405234801561001057600080fd5b50600436106100a95760003560e01c80638da5cb5b116100715780638da5cb5b14610116578063a8d5fd6514610134578063a9059cbb14610152578063b69ef8a81461016e578063c4d66de81461018c578063f2fde38b146101a8576100a9565b806308d25b4d146100ae5780631c5b6e8d146100ca5780634e71d92d146100e65780636e261df1146100f0578063715018a61461010c575b600080fd5b6100c860048036038101906100c391906110e7565b6101c4565b005b6100e460048036038101906100df91906110e7565b6102d0565b005b6100ee610390565b005b61010a60048036038101906101059190611110565b6105c8565b005b61011461067a565b005b61011e6107b4565b60405161012b9190611332565b60405180910390f35b61013c6107dd565b6040516101499190611332565b60405180910390f35b61016c60048036038101906101679190611110565b610803565b005b610176610933565b6040516101839190611478565b60405180910390f35b6101a660048036038101906101a191906110e7565b6109e5565b005b6101c260048036038101906101bd91906110e7565b610bef565b005b6101cc610d98565b73ffffffffffffffffffffffffffffffffffffffff166101ea6107b4565b73ffffffffffffffffffffffffffffffffffffffff1614610240576040517f08c379a000000000000000000000000000000000000000000000000000000000815260040161023790611418565b60405180910390fd5b600160009054906101000a900473ffffffffffffffffffffffffffffffffffffffff1673ffffffffffffffffffffffffffffffffffffffff1663f746b718826040518263ffffffff1660e01b815260040161029b9190611332565b600060405180830381600087803b1580156102b557600080fd5b505af11580156102c9573d6000803e3d6000fd5b5050505050565b6102d8610d98565b73ffffffffffffffffffffffffffffffffffffffff166102f66107b4565b73ffffffffffffffffffffffffffffffffffffffff161461034c576040517f08c379a000000000000000000000000000000000000000000000000000000000815260040161034390611418565b60405180910390fd5b80600160006101000a81548173ffffffffffffffffffffffffffffffffffffffff021916908373ffffffffffffffffffffffffffffffffffffffff16021790555050565b610398610d98565b73ffffffffffffffffffffffffffffffffffffffff166103b66107b4565b73ffffffffffffffffffffffffffffffffffffffff161461040c576040517f08c379a000000000000000000000000000000000000000000000000000000000815260040161040390611418565b60405180910390fd5b6000600160009054906101000a900473ffffffffffffffffffffffffffffffffffffffff16905060008173ffffffffffffffffffffffffffffffffffffffff1663177647826040518163ffffffff1660e01b815260040160206040518083038186803b15801561047b57600080fd5b505afa15801561048f573d6000803e3d6000fd5b505050506040513d601f19601f820116820180604052508101906104b39190611175565b90508173ffffffffffffffffffffffffffffffffffffffff1663d5b8cbc26040518163ffffffff1660e01b8152600401600060405180830381600087803b1580156104fd57600080fd5b505af1158015610511573d6000803e3d6000fd5b505050506000620f4240620dbba08361052a91906114f6565b61053491906114c5565b9050600160009054906101000a900473ffffffffffffffffffffffffffffffffffffffff1673ffffffffffffffffffffffffffffffffffffffff166342966c68826040518263ffffffff1660e01b81526004016105919190611478565b600060405180830381600087803b1580156105ab57600080fd5b505af11580156105bf573d6000803e3d6000fd5b50505050505050565b6105d0610d98565b73ffffffffffffffffffffffffffffffffffffffff166105ee6107b4565b73ffffffffffffffffffffffffffffffffffffffff1614610644576040517f08c379a000000000000000000000000000000000000000000000000000000000815260040161063b90611418565b60405180910390fd5b61067661064f6107b4565b828473ffffffffffffffffffffffffffffffffffffffff16610da09092919063ffffffff16565b5050565b610682610d98565b73ffffffffffffffffffffffffffffffffffffffff166106a06107b4565b73ffffffffffffffffffffffffffffffffffffffff16146106f6576040517f08c379a00000000000000000000000000000000000000000000000000000000081526004016106ed90611418565b60405180910390fd5b600073ffffffffffffffffffffffffffffffffffffffff1660008054906101000a900473ffffffffffffffffffffffffffffffffffffffff1673ffffffffffffffffffffffffffffffffffffffff167f8be0079c531659141344cd1fd0a4f28419497f9722a3daafe3b4186f6b6457e060405160405180910390a360008060006101000a81548173ffffffffffffffffffffffffffffffffffffffff021916908373ffffffffffffffffffffffffffffffffffffffff160217905550565b60008060009054906101000a900473ffffffffffffffffffffffffffffffffffffffff16905090565b600160009054906101000a900473ffffffffffffffffffffffffffffffffffffffff1681565b61080b610d98565b73ffffffffffffffffffffffffffffffffffffffff166108296107b4565b73ffffffffffffffffffffffffffffffffffffffff161461087f576040517f08c379a000000000000000000000000000000000000000000000000000000000815260040161087690611418565b60405180910390fd5b600160009054906101000a900473ffffffffffffffffffffffffffffffffffffffff1673ffffffffffffffffffffffffffffffffffffffff1663a9059cbb83836040518363ffffffff1660e01b81526004016108dc92919061134d565b602060405180830381600087803b1580156108f657600080fd5b505af115801561090a573d6000803e3d6000fd5b505050506040513d601f19601f8201168201806040525081019061092e919061114c565b505050565b6000600160009054906101000a900473ffffffffffffffffffffffffffffffffffffffff1673ffffffffffffffffffffffffffffffffffffffff166370a08231306040518263ffffffff1660e01b81526004016109909190611332565b60206040518083038186803b1580156109a857600080fd5b505afa1580156109bc573d6000803e3d6000fd5b505050506040513d601f19601f820116820180604052508101906109e09190611175565b905090565b6109ed610d98565b73ffffffffffffffffffffffffffffffffffffffff16610a0b6107b4565b73ffffffffffffffffffffffffffffffffffffffff1614610a61576040517f08c379a0000000000000000000000000000000000000000000000000000000008152600401610a5890611418565b60405180910390fd5b600060159054906101000a900460ff1680610a895750600060149054906101000a900460ff16155b610ac8576040517f08c379a0000000000000000000000000000000000000000000000000000000008152600401610abf906113f8565b60405180910390fd5b60008060159054906101000a900460ff161590508015610b19576001600060156101000a81548160ff0219169083151502179055506001600060146101000a81548160ff0219169083151502179055505b600073ffffffffffffffffffffffffffffffffffffffff168273ffffffffffffffffffffffffffffffffffffffff161415610b89576040517f08c379a0000000000000000000000000000000000000000000000000000000008152600401610b8090611398565b60405180910390fd5b81600160006101000a81548173ffffffffffffffffffffffffffffffffffffffff021916908373ffffffffffffffffffffffffffffffffffffffff1602179055508015610beb5760008060156101000a81548160ff0219169083151502179055505b5050565b610bf7610d98565b73ffffffffffffffffffffffffffffffffffffffff16610c156107b4565b73ffffffffffffffffffffffffffffffffffffffff1614610c6b576040517f08c379a0000000000000000000000000000000000000000000000000000000008152600401610c6290611418565b60405180910390fd5b600073ffffffffffffffffffffffffffffffffffffffff168173ffffffffffffffffffffffffffffffffffffffff161415610cdb576040517f08c379a0000000000000000000000000000000000000000000000000000000008152600401610cd2906113b8565b60405180910390fd5b8073ffffffffffffffffffffffffffffffffffffffff1660008054906101000a900473ffffffffffffffffffffffffffffffffffffffff1673ffffffffffffffffffffffffffffffffffffffff167f8be0079c531659141344cd1fd0a4f28419497f9722a3daafe3b4186f6b6457e060405160405180910390a3806000806101000a81548173ffffffffffffffffffffffffffffffffffffffff021916908373ffffffffffffffffffffffffffffffffffffffff16021790555050565b600033905090565b610e218363a9059cbb60e01b8484604051602401610dbf92919061134d565b604051602081830303815290604052907bffffffffffffffffffffffffffffffffffffffffffffffffffffffff19166020820180517bffffffffffffffffffffffffffffffffffffffffffffffffffffffff8381831617835250505050610e26565b505050565b6000610e88826040518060400160405280602081526020017f5361666545524332303a206c6f772d6c6576656c2063616c6c206661696c65648152508573ffffffffffffffffffffffffffffffffffffffff16610eed9092919063ffffffff16565b9050600081511115610ee85780806020019051810190610ea8919061114c565b610ee7576040517f08c379a0000000000000000000000000000000000000000000000000000000008152600401610ede90611458565b60405180910390fd5b5b505050565b6060610efc8484600085610f05565b90509392505050565b606082471015610f4a576040517f08c379a0000000000000000000000000000000000000000000000000000000008152600401610f41906113d8565b60405180910390fd5b610f5385611019565b610f92576040517f08c379a0000000000000000000000000000000000000000000000000000000008152600401610f8990611438565b60405180910390fd5b6000808673ffffffffffffffffffffffffffffffffffffffff168587604051610fbb919061131b565b60006040518083038185875af1925050503d8060008114610ff8576040519150601f19603f3d011682016040523d82523d6000602084013e610ffd565b606091505b509150915061100d82828661102c565b92505050949350505050565b600080823b905060008111915050919050565b6060831561103c5782905061108c565b60008351111561104f5782518084602001fd5b816040517f08c379a00000000000000000000000000000000000000000000000000000000081526004016110839190611376565b60405180910390fd5b9392505050565b6000813590506110a2816117f1565b92915050565b6000815190506110b781611808565b92915050565b6000813590506110cc8161181f565b92915050565b6000815190506110e18161181f565b92915050565b6000602082840312156110f957600080fd5b600061110784828501611093565b91505092915050565b6000806040838503121561112357600080fd5b600061113185828601611093565b9250506020611142858286016110bd565b9150509250929050565b60006020828403121561115e57600080fd5b600061116c848285016110a8565b91505092915050565b60006020828403121561118757600080fd5b6000611195848285016110d2565b91505092915050565b6111a781611550565b82525050565b60006111b882611493565b6111c281856114a9565b93506111d2818560208601611598565b80840191505092915050565b60006111e98261149e565b6111f381856114b4565b9350611203818560208601611598565b61120c81611629565b840191505092915050565b6000611224600f836114b4565b915061122f8261163a565b602082019050919050565b60006112476026836114b4565b915061125282611663565b604082019050919050565b600061126a6026836114b4565b9150611275826116b2565b604082019050919050565b600061128d602e836114b4565b915061129882611701565b604082019050919050565b60006112b06020836114b4565b91506112bb82611750565b602082019050919050565b60006112d3601d836114b4565b91506112de82611779565b602082019050919050565b60006112f6602a836114b4565b9150611301826117a2565b604082019050919050565b6113158161158e565b82525050565b600061132782846111ad565b915081905092915050565b6000602082019050611347600083018461119e565b92915050565b6000604082019050611362600083018561119e565b61136f602083018461130c565b9392505050565b6000602082019050818103600083015261139081846111de565b905092915050565b600060208201905081810360008301526113b181611217565b9050919050565b600060208201905081810360008301526113d18161123a565b9050919050565b600060208201905081810360008301526113f18161125d565b9050919050565b6000602082019050818103600083015261141181611280565b9050919050565b60006020820190508181036000830152611431816112a3565b9050919050565b60006020820190508181036000830152611451816112c6565b9050919050565b60006020820190508181036000830152611471816112e9565b9050919050565b600060208201905061148d600083018461130c565b92915050565b600081519050919050565b600081519050919050565b600081905092915050565b600082825260208201905092915050565b60006114d08261158e565b91506114db8361158e565b9250826114eb576114ea6115fa565b5b828204905092915050565b60006115018261158e565b915061150c8361158e565b9250817fffffffffffffffffffffffffffffffffffffffffffffffffffffffffffffffff0483118215151615611545576115446115cb565b5b828202905092915050565b600061155b8261156e565b9050919050565b60008115159050919050565b600073ffffffffffffffffffffffffffffffffffffffff82169050919050565b6000819050919050565b60005b838110156115b657808201518184015260208101905061159b565b838111156115c5576000848401525b50505050565b7f4e487b7100000000000000000000000000000000000000000000000000000000600052601160045260246000fd5b7f4e487b7100000000000000000000000000000000000000000000000000000000600052601260045260246000fd5b6000601f19601f8301169050919050565b7f496e76616c696420616464726573730000000000000000000000000000000000600082015250565b7f4f776e61626c653a206e6577206f776e657220697320746865207a65726f206160008201527f6464726573730000000000000000000000000000000000000000000000000000602082015250565b7f416464726573733a20696e73756666696369656e742062616c616e636520666f60008201527f722063616c6c0000000000000000000000000000000000000000000000000000602082015250565b7f496e697469616c697a61626c653a20636f6e747261637420697320616c72656160008201527f647920696e697469616c697a6564000000000000000000000000000000000000602082015250565b7f4f776e61626c653a2063616c6c6572206973206e6f7420746865206f776e6572600082015250565b7f416464726573733a2063616c6c20746f206e6f6e2d636f6e7472616374000000600082015250565b7f5361666545524332303a204552433230206f7065726174696f6e20646964206e60008201527f6f74207375636365656400000000000000000000000000000000000000000000602082015250565b6117fa81611550565b811461180557600080fd5b50565b61181181611562565b811461181c57600080fd5b50565b6118288161158e565b811461183357600080fd5b5056fea26469706673582212209547ec4376528e9eb301ff57e9e36c390e060507f862c83fd0a4aadd2e377a2164736f6c63430008040033",
  "devdoc": {
    "kind": "dev",
    "methods": {
      "owner()": {
        "details": "Returns the address of the current owner."
      },
      "renounceOwnership()": {
        "details": "Leaves the contract without owner. It will not be possible to call `onlyOwner` functions anymore. Can only be called by the current owner. NOTE: Renouncing ownership will leave the contract without an owner, thereby removing any functionality that is only available to the owner."
      },
      "transferOwnership(address)": {
        "details": "Transfers ownership of the contract to a new account (`newOwner`). Can only be called by the current owner."
      }
    },
    "version": 1
  },
  "userdoc": {
    "kind": "user",
    "methods": {},
    "version": 1
  },
  "storageLayout": {
    "storage": [
      {
        "astId": 99,
        "contract": "contracts/TreasuryFund.sol:TreasuryFund",
        "label": "_owner",
        "offset": 0,
        "slot": "0",
        "type": "t_address"
      },
      {
        "astId": 51,
        "contract": "contracts/TreasuryFund.sol:TreasuryFund",
        "label": "_initialized",
        "offset": 20,
        "slot": "0",
        "type": "t_bool"
      },
      {
        "astId": 54,
        "contract": "contracts/TreasuryFund.sol:TreasuryFund",
        "label": "_initializing",
        "offset": 21,
        "slot": "0",
        "type": "t_bool"
      },
      {
        "astId": 6685,
        "contract": "contracts/TreasuryFund.sol:TreasuryFund",
        "label": "share",
        "offset": 0,
        "slot": "1",
        "type": "t_address"
      }
    ],
    "types": {
      "t_address": {
        "encoding": "inplace",
        "label": "address",
        "numberOfBytes": "20"
      },
      "t_bool": {
        "encoding": "inplace",
        "label": "bool",
        "numberOfBytes": "1"
      }
    }
  }
}