{
  "address": "0xC79469880202D294b4F947CdD8a0D9Ce6367c54B",
  "abi": [
    {
      "inputs": [],
      "stateMutability": "nonpayable",
      "type": "constructor"
    },
    {
      "anonymous": false,
      "inputs": [
        {
          "indexed": true,
          "internalType": "address",
          "name": "previousOwner",
          "type": "address"
        },
        {
          "indexed": true,
          "internalType": "address",
          "name": "newOwner",
          "type": "address"
        }
      ],
      "name": "OwnershipTransferred",
      "type": "event"
    },
    {
      "anonymous": false,
      "inputs": [
        {
          "indexed": true,
          "internalType": "address",
          "name": "newTreasury",
          "type": "address"
        }
      ],
      "name": "TreasuryChanged",
      "type": "event"
    },
    {
      "inputs": [],
      "name": "calcEffectiveCollateralRatio",
      "outputs": [
        {
          "internalType": "uint256",
          "name": "",
          "type": "uint256"
        }
      ],
      "stateMutability": "view",
      "type": "function"
    },
    {
      "inputs": [],
      "name": "collateral_ratio_paused",
      "outputs": [
        {
          "internalType": "bool",
          "name": "",
          "type": "bool"
        }
      ],
      "stateMutability": "view",
      "type": "function"
    },
    {
      "inputs": [],
      "name": "dollar",
      "outputs": [
        {
          "internalType": "address",
          "name": "",
          "type": "address"
        }
      ],
      "stateMutability": "view",
      "type": "function"
    },
    {
      "inputs": [],
      "name": "effective_collateral_ratio",
      "outputs": [
        {
          "internalType": "uint256",
          "name": "",
          "type": "uint256"
        }
      ],
      "stateMutability": "view",
      "type": "function"
    },
    {
      "inputs": [
        {
          "internalType": "address",
          "name": "_treasury",
          "type": "address"
        },
        {
          "internalType": "address",
          "name": "_dollar",
          "type": "address"
        }
      ],
      "name": "initialize",
      "outputs": [],
      "stateMutability": "nonpayable",
      "type": "function"
    },
    {
      "inputs": [],
      "name": "last_refresh_cr_timestamp",
      "outputs": [
        {
          "internalType": "uint256",
          "name": "",
          "type": "uint256"
        }
      ],
      "stateMutability": "view",
      "type": "function"
    },
    {
      "inputs": [],
      "name": "oracleDollar",
      "outputs": [
        {
          "internalType": "address",
          "name": "",
          "type": "address"
        }
      ],
      "stateMutability": "view",
      "type": "function"
    },
    {
      "inputs": [],
      "name": "owner",
      "outputs": [
        {
          "internalType": "address",
          "name": "",
          "type": "address"
        }
      ],
      "stateMutability": "view",
      "type": "function"
    },
    {
      "inputs": [],
      "name": "price_band",
      "outputs": [
        {
          "internalType": "uint256",
          "name": "",
          "type": "uint256"
        }
      ],
      "stateMutability": "view",
      "type": "function"
    },
    {
      "inputs": [],
      "name": "price_target",
      "outputs": [
        {
          "internalType": "uint256",
          "name": "",
          "type": "uint256"
        }
      ],
      "stateMutability": "view",
      "type": "function"
    },
    {
      "inputs": [],
      "name": "ratio_step",
      "outputs": [
        {
          "internalType": "uint256",
          "name": "",
          "type": "uint256"
        }
      ],
      "stateMutability": "view",
      "type": "function"
    },
    {
      "inputs": [],
      "name": "refreshCollateralRatio",
      "outputs": [],
      "stateMutability": "nonpayable",
      "type": "function"
    },
    {
      "inputs": [],
      "name": "refresh_cooldown",
      "outputs": [
        {
          "internalType": "uint256",
          "name": "",
          "type": "uint256"
        }
      ],
      "stateMutability": "view",
      "type": "function"
    },
    {
      "inputs": [],
      "name": "renounceOwnership",
      "outputs": [],
      "stateMutability": "nonpayable",
      "type": "function"
    },
    {
      "inputs": [
        {
          "internalType": "uint256",
          "name": "_target_collateral_ratio",
          "type": "uint256"
        },
        {
          "internalType": "uint256",
          "name": "_effective_collateral_ratio",
          "type": "uint256"
        }
      ],
      "name": "reset",
      "outputs": [],
      "stateMutability": "nonpayable",
      "type": "function"
    },
    {
      "inputs": [
        {
          "internalType": "address",
          "name": "_dollar",
          "type": "address"
        }
      ],
      "name": "setDollar",
      "outputs": [],
      "stateMutability": "nonpayable",
      "type": "function"
    },
    {
      "inputs": [
        {
          "internalType": "address",
          "name": "_oracleDollar",
          "type": "address"
        }
      ],
      "name": "setOracleDollar",
      "outputs": [],
      "stateMutability": "nonpayable",
      "type": "function"
    },
    {
      "inputs": [
        {
          "internalType": "uint256",
          "name": "_price_band",
          "type": "uint256"
        }
      ],
      "name": "setPriceBand",
      "outputs": [],
      "stateMutability": "nonpayable",
      "type": "function"
    },
    {
      "inputs": [
        {
          "internalType": "uint256",
          "name": "_price_target",
          "type": "uint256"
        }
      ],
      "name": "setPriceTarget",
      "outputs": [],
      "stateMutability": "nonpayable",
      "type": "function"
    },
    {
      "inputs": [
        {
          "internalType": "uint256",
          "name": "_ratio_step",
          "type": "uint256"
        }
      ],
      "name": "setRatioStep",
      "outputs": [],
      "stateMutability": "nonpayable",
      "type": "function"
    },
    {
      "inputs": [
        {
          "internalType": "uint256",
          "name": "_refresh_cooldown",
          "type": "uint256"
        }
      ],
      "name": "setRefreshCooldown",
      "outputs": [],
      "stateMutability": "nonpayable",
      "type": "function"
    },
    {
      "inputs": [
        {
          "internalType": "address",
          "name": "_treasury",
          "type": "address"
        }
      ],
      "name": "setTreasury",
      "outputs": [],
      "stateMutability": "nonpayable",
      "type": "function"
    },
    {
      "inputs": [],
      "name": "target_collateral_ratio",
      "outputs": [
        {
          "internalType": "uint256",
          "name": "",
          "type": "uint256"
        }
      ],
      "stateMutability": "view",
      "type": "function"
    },
    {
      "inputs": [],
      "name": "toggleCollateralRatio",
      "outputs": [],
      "stateMutability": "nonpayable",
      "type": "function"
    },
    {
      "inputs": [],
      "name": "toggleEffectiveCollateralRatio",
      "outputs": [],
      "stateMutability": "nonpayable",
      "type": "function"
    },
    {
      "inputs": [
        {
          "internalType": "address",
          "name": "newOwner",
          "type": "address"
        }
      ],
      "name": "transferOwnership",
      "outputs": [],
      "stateMutability": "nonpayable",
      "type": "function"
    },
    {
      "inputs": [],
      "name": "treasury",
      "outputs": [
        {
          "internalType": "address",
          "name": "",
          "type": "address"
        }
      ],
      "stateMutability": "view",
      "type": "function"
    },
    {
      "inputs": [],
      "name": "using_effective_collateral_ratio",
      "outputs": [
        {
          "internalType": "bool",
          "name": "",
          "type": "bool"
        }
      ],
      "stateMutability": "view",
      "type": "function"
    }
  ],
  "transactionHash": "0xb70ecb61ca1b52efe3e311e48562f2bfd5c74f2c9e20efd9780bf06ce77ea15a",
  "args": [],
  "solcInputHash": "528e37ad3cee8dde3b849d6f9ffe4ef0",
  "bytecode": "0x60806040526000600b60006101000a81548160ff0219169083151502179055506001600b60016101000a81548160ff02191690831515021790555034801561004657600080fd5b50600061005761013360201b60201c565b9050806000806101000a81548173ffffffffffffffffffffffffffffffffffffffff021916908373ffffffffffffffffffffffffffffffffffffffff1602179055508073ffffffffffffffffffffffffffffffffffffffff16600073ffffffffffffffffffffffffffffffffffffffff167f8be0079c531659141344cd1fd0a4f28419497f9722a3daafe3b4186f6b6457e060405160405180910390a3506109c4600881905550620f4240600481905550620f4240600581905550610e10600781905550620f4240600981905550611388600a8190555061013b565b600033905090565b611dd28061014a6000396000f3fe608060405234801561001057600080fd5b50600436106101c45760003560e01c80636140133b116100f9578063ac4f843e11610097578063bef40ec811610071578063bef40ec81461044d578063c03f7be314610457578063f0f4426014610475578063f2fde38b14610491576101c4565b8063ac4f843e146103f3578063af83136e14610411578063b16ce4601461042f576101c4565b8063715018a6116100d3578063715018a61461038f57806387a140c3146103995780638da5cb5b146103b7578063a445c445146103d5576101c4565b80636140133b1461033757806361d027b3146103535780636ae7448814610371576101c4565b80632cb4f63e116101665780634013124a116101405780634013124a146102d7578063408ab10f146102e1578063485cc955146102fd57806351adeb5714610319576101c4565b80632cb4f63e1461027f578063362d5ae31461029d5780634006311b146102b9576101c4565b80631dc43637116101a25780631dc436371461021d5780632853fb1014610239578063291878a8146102575780632988b66d14610261576101c4565b80630ca687dc146101c9578063186d9b2e146101e55780631c5df1e514610201575b600080fd5b6101e360048036038101906101de91906116cb565b6104ad565b005b6101ff60048036038101906101fa9190611730565b6105dd565b005b61021b60048036038101906102169190611730565b610663565b005b61023760048036038101906102329190611782565b6106e9565b005b6102416107cc565b60405161024e91906119f6565b60405180910390f35b61025f6107d2565b005b61026961087a565b60405161027691906118fb565b60405180910390f35b61028761088d565b60405161029491906119f6565b60405180910390f35b6102b760048036038101906102b291906116cb565b610893565b005b6102c16109c3565b6040516102ce91906119f6565b60405180910390f35b6102df6109c9565b005b6102fb60048036038101906102f69190611730565b610c17565b005b610317600480360381019061031291906116f4565b610c9d565b005b610321610e09565b60405161032e91906118e0565b60405180910390f35b610351600480360381019061034c9190611730565b610e2f565b005b61035b610eb5565b60405161036891906118e0565b60405180910390f35b610379610edb565b60405161038691906119f6565b60405180910390f35b610397610ee1565b005b6103a161101b565b6040516103ae91906118fb565b60405180910390f35b6103bf61102e565b6040516103cc91906118e0565b60405180910390f35b6103dd611057565b6040516103ea91906119f6565b60405180910390f35b6103fb61120e565b60405161040891906119f6565b60405180910390f35b610419611214565b60405161042691906119f6565b60405180910390f35b61043761121a565b60405161044491906118e0565b60405180910390f35b610455611240565b005b61045f6112e8565b60405161046c91906119f6565b60405180910390f35b61048f600480360381019061048a91906116cb565b6112ee565b005b6104ab60048036038101906104a691906116cb565b611483565b005b6104b561162c565b73ffffffffffffffffffffffffffffffffffffffff166104d361102e565b73ffffffffffffffffffffffffffffffffffffffff1614610529576040517f08c379a000000000000000000000000000000000000000000000000000000000815260040161052090611996565b60405180910390fd5b600073ffffffffffffffffffffffffffffffffffffffff168173ffffffffffffffffffffffffffffffffffffffff161415610599576040517f08c379a000000000000000000000000000000000000000000000000000000000815260040161059090611976565b60405180910390fd5b80600160006101000a81548173ffffffffffffffffffffffffffffffffffffffff021916908373ffffffffffffffffffffffffffffffffffffffff16021790555050565b6105e561162c565b73ffffffffffffffffffffffffffffffffffffffff1661060361102e565b73ffffffffffffffffffffffffffffffffffffffff1614610659576040517f08c379a000000000000000000000000000000000000000000000000000000000815260040161065090611996565b60405180910390fd5b8060088190555050565b61066b61162c565b73ffffffffffffffffffffffffffffffffffffffff1661068961102e565b73ffffffffffffffffffffffffffffffffffffffff16146106df576040517f08c379a00000000000000000000000000000000000000000000000000000000081526004016106d690611996565b60405180910390fd5b8060078190555050565b6106f161162c565b73ffffffffffffffffffffffffffffffffffffffff1661070f61102e565b73ffffffffffffffffffffffffffffffffffffffff1614610765576040517f08c379a000000000000000000000000000000000000000000000000000000000815260040161075c90611996565b60405180910390fd5b620f4240821115801561077b5750620f42408111155b6107ba576040517f08c379a00000000000000000000000000000000000000000000000000000000081526004016107b190611936565b60405180910390fd5b81600481905550806005819055505050565b600a5481565b6107da61162c565b73ffffffffffffffffffffffffffffffffffffffff166107f861102e565b73ffffffffffffffffffffffffffffffffffffffff161461084e576040517f08c379a000000000000000000000000000000000000000000000000000000000815260040161084590611996565b60405180910390fd5b600b60019054906101000a900460ff1615600b60016101000a81548160ff021916908315150217905550565b600b60019054906101000a900460ff1681565b60095481565b61089b61162c565b73ffffffffffffffffffffffffffffffffffffffff166108b961102e565b73ffffffffffffffffffffffffffffffffffffffff161461090f576040517f08c379a000000000000000000000000000000000000000000000000000000000815260040161090690611996565b60405180910390fd5b600073ffffffffffffffffffffffffffffffffffffffff168173ffffffffffffffffffffffffffffffffffffffff16141561097f576040517f08c379a000000000000000000000000000000000000000000000000000000000815260040161097690611976565b60405180910390fd5b80600260006101000a81548173ffffffffffffffffffffffffffffffffffffffff021916908373ffffffffffffffffffffffffffffffffffffffff16021790555050565b60045481565b60001515600b60009054906101000a900460ff16151514610a1f576040517f08c379a0000000000000000000000000000000000000000000000000000000008152600401610a16906119d6565b60405180910390fd5b60075460065442610a309190611b03565b1015610a71576040517f08c379a0000000000000000000000000000000000000000000000000000000008152600401610a68906119b6565b60405180910390fd5b6000600160009054906101000a900473ffffffffffffffffffffffffffffffffffffffff1673ffffffffffffffffffffffffffffffffffffffff16637eeda7036040518163ffffffff1660e01b815260040160206040518083038186803b158015610adb57600080fd5b505afa158015610aef573d6000803e3d6000fd5b505050506040513d601f19601f82011682018060405250810190610b139190611759565b9050610b2c600a5460095461163490919063ffffffff16565b811115610b6e5760085460045411610b4b576000600481905550610b69565b610b6260085460045461164a90919063ffffffff16565b6004819055505b610bdb565b610b85600a5460095461164a90919063ffffffff16565b811015610bda57620f4240610ba760085460045461163490919063ffffffff16565b10610bbb57620f4240600481905550610bd9565b610bd260085460045461163490919063ffffffff16565b6004819055505b5b5b600b60019054906101000a900460ff1615610c0357610bf8611057565b600581905550610c0d565b6004546005819055505b4260068190555050565b610c1f61162c565b73ffffffffffffffffffffffffffffffffffffffff16610c3d61102e565b73ffffffffffffffffffffffffffffffffffffffff1614610c93576040517f08c379a0000000000000000000000000000000000000000000000000000000008152600401610c8a90611996565b60405180910390fd5b8060098190555050565b610ca561162c565b73ffffffffffffffffffffffffffffffffffffffff16610cc361102e565b73ffffffffffffffffffffffffffffffffffffffff1614610d19576040517f08c379a0000000000000000000000000000000000000000000000000000000008152600401610d1090611996565b60405180910390fd5b600060159054906101000a900460ff1680610d415750600060149054906101000a900460ff16155b610d80576040517f08c379a0000000000000000000000000000000000000000000000000000000008152600401610d7790611956565b60405180910390fd5b60008060159054906101000a900460ff161590508015610dd1576001600060156101000a81548160ff0219169083151502179055506001600060146101000a81548160ff0219169083151502179055505b610dda836112ee565b610de382610893565b8015610e045760008060156101000a81548160ff0219169083151502179055505b505050565b600260009054906101000a900473ffffffffffffffffffffffffffffffffffffffff1681565b610e3761162c565b73ffffffffffffffffffffffffffffffffffffffff16610e5561102e565b73ffffffffffffffffffffffffffffffffffffffff1614610eab576040517f08c379a0000000000000000000000000000000000000000000000000000000008152600401610ea290611996565b60405180910390fd5b80600a8190555050565b600360009054906101000a900473ffffffffffffffffffffffffffffffffffffffff1681565b60065481565b610ee961162c565b73ffffffffffffffffffffffffffffffffffffffff16610f0761102e565b73ffffffffffffffffffffffffffffffffffffffff1614610f5d576040517f08c379a0000000000000000000000000000000000000000000000000000000008152600401610f5490611996565b60405180910390fd5b600073ffffffffffffffffffffffffffffffffffffffff1660008054906101000a900473ffffffffffffffffffffffffffffffffffffffff1673ffffffffffffffffffffffffffffffffffffffff167f8be0079c531659141344cd1fd0a4f28419497f9722a3daafe3b4186f6b6457e060405160405180910390a360008060006101000a81548173ffffffffffffffffffffffffffffffffffffffff021916908373ffffffffffffffffffffffffffffffffffffffff160217905550565b600b60009054906101000a900460ff1681565b60008060009054906101000a900473ffffffffffffffffffffffffffffffffffffffff16905090565b6000600b60019054906101000a900460ff1661107757600454905061120b565b6000600360009054906101000a900473ffffffffffffffffffffffffffffffffffffffff1673ffffffffffffffffffffffffffffffffffffffff1663d2d97b066040518163ffffffff1660e01b815260040160206040518083038186803b1580156110e157600080fd5b505afa1580156110f5573d6000803e3d6000fd5b505050506040513d601f19601f820116820180604052508101906111199190611759565b90506000600260009054906101000a900473ffffffffffffffffffffffffffffffffffffffff1673ffffffffffffffffffffffffffffffffffffffff166318160ddd6040518163ffffffff1660e01b815260040160206040518083038186803b15801561118557600080fd5b505afa158015611199573d6000803e3d6000fd5b505050506040513d601f19601f820116820180604052508101906111bd9190611759565b905060006111e9826111db620f42408661166090919063ffffffff16565b61167690919063ffffffff16565b9050620f424081111561120457620f4240935050505061120b565b8093505050505b90565b60085481565b60055481565b600160009054906101000a900473ffffffffffffffffffffffffffffffffffffffff1681565b61124861162c565b73ffffffffffffffffffffffffffffffffffffffff1661126661102e565b73ffffffffffffffffffffffffffffffffffffffff16146112bc576040517f08c379a00000000000000000000000000000000000000000000000000000000081526004016112b390611996565b60405180910390fd5b600b60009054906101000a900460ff1615600b60006101000a81548160ff021916908315150217905550565b60075481565b6112f661162c565b73ffffffffffffffffffffffffffffffffffffffff1661131461102e565b73ffffffffffffffffffffffffffffffffffffffff161461136a576040517f08c379a000000000000000000000000000000000000000000000000000000000815260040161136190611996565b60405180910390fd5b600073ffffffffffffffffffffffffffffffffffffffff168173ffffffffffffffffffffffffffffffffffffffff1614156113da576040517f08c379a00000000000000000000000000000000000000000000000000000000081526004016113d190611976565b60405180910390fd5b80600360006101000a81548173ffffffffffffffffffffffffffffffffffffffff021916908373ffffffffffffffffffffffffffffffffffffffff160217905550600360009054906101000a900473ffffffffffffffffffffffffffffffffffffffff1673ffffffffffffffffffffffffffffffffffffffff167fc714d22a2f08b695f81e7c707058db484aa5b4d6b4c9fd64beb10fe85832f60860405160405180910390a250565b61148b61162c565b73ffffffffffffffffffffffffffffffffffffffff166114a961102e565b73ffffffffffffffffffffffffffffffffffffffff16146114ff576040517f08c379a00000000000000000000000000000000000000000000000000000000081526004016114f690611996565b60405180910390fd5b600073ffffffffffffffffffffffffffffffffffffffff168173ffffffffffffffffffffffffffffffffffffffff16141561156f576040517f08c379a000000000000000000000000000000000000000000000000000000000815260040161156690611916565b60405180910390fd5b8073ffffffffffffffffffffffffffffffffffffffff1660008054906101000a900473ffffffffffffffffffffffffffffffffffffffff1673ffffffffffffffffffffffffffffffffffffffff167f8be0079c531659141344cd1fd0a4f28419497f9722a3daafe3b4186f6b6457e060405160405180910390a3806000806101000a81548173ffffffffffffffffffffffffffffffffffffffff021916908373ffffffffffffffffffffffffffffffffffffffff16021790555050565b600033905090565b600081836116429190611a22565b905092915050565b600081836116589190611b03565b905092915050565b6000818361166e9190611aa9565b905092915050565b600081836116849190611a78565b905092915050565b60008135905061169b81611d6e565b92915050565b6000813590506116b081611d85565b92915050565b6000815190506116c581611d85565b92915050565b6000602082840312156116dd57600080fd5b60006116eb8482850161168c565b91505092915050565b6000806040838503121561170757600080fd5b60006117158582860161168c565b92505060206117268582860161168c565b9150509250929050565b60006020828403121561174257600080fd5b6000611750848285016116a1565b91505092915050565b60006020828403121561176b57600080fd5b6000611779848285016116b6565b91505092915050565b6000806040838503121561179557600080fd5b60006117a3858286016116a1565b92505060206117b4858286016116a1565b9150509250929050565b6117c781611b37565b82525050565b6117d681611b49565b82525050565b60006117e9602683611a11565b91506117f482611bdd565b604082019050919050565b600061180c600c83611a11565b915061181782611c2c565b602082019050919050565b600061182f602e83611a11565b915061183a82611c55565b604082019050919050565b6000611852600e83611a11565b915061185d82611ca4565b602082019050919050565b6000611875602083611a11565b915061188082611ccd565b602082019050919050565b6000611898603583611a11565b91506118a382611cf6565b604082019050919050565b60006118bb602083611a11565b91506118c682611d45565b602082019050919050565b6118da81611b75565b82525050565b60006020820190506118f560008301846117be565b92915050565b600060208201905061191060008301846117cd565b92915050565b6000602082019050818103600083015261192f816117dc565b9050919050565b6000602082019050818103600083015261194f816117ff565b9050919050565b6000602082019050818103600083015261196f81611822565b9050919050565b6000602082019050818103600083015261198f81611845565b9050919050565b600060208201905081810360008301526119af81611868565b9050919050565b600060208201905081810360008301526119cf8161188b565b9050919050565b600060208201905081810360008301526119ef816118ae565b9050919050565b6000602082019050611a0b60008301846118d1565b92915050565b600082825260208201905092915050565b6000611a2d82611b75565b9150611a3883611b75565b9250827fffffffffffffffffffffffffffffffffffffffffffffffffffffffffffffffff03821115611a6d57611a6c611b7f565b5b828201905092915050565b6000611a8382611b75565b9150611a8e83611b75565b925082611a9e57611a9d611bae565b5b828204905092915050565b6000611ab482611b75565b9150611abf83611b75565b9250817fffffffffffffffffffffffffffffffffffffffffffffffffffffffffffffffff0483118215151615611af857611af7611b7f565b5b828202905092915050565b6000611b0e82611b75565b9150611b1983611b75565b925082821015611b2c57611b2b611b7f565b5b828203905092915050565b6000611b4282611b55565b9050919050565b60008115159050919050565b600073ffffffffffffffffffffffffffffffffffffffff82169050919050565b6000819050919050565b7f4e487b7100000000000000000000000000000000000000000000000000000000600052601160045260246000fd5b7f4e487b7100000000000000000000000000000000000000000000000000000000600052601260045260246000fd5b7f4f776e61626c653a206e6577206f776e657220697320746865207a65726f206160008201527f6464726573730000000000000000000000000000000000000000000000000000602082015250565b7f696e76616c6964526174696f0000000000000000000000000000000000000000600082015250565b7f496e697469616c697a61626c653a20636f6e747261637420697320616c72656160008201527f647920696e697469616c697a6564000000000000000000000000000000000000602082015250565b7f696e76616c696441646472657373000000000000000000000000000000000000600082015250565b7f4f776e61626c653a2063616c6c6572206973206e6f7420746865206f776e6572600082015250565b7f4d757374207761697420666f7220746865207265667265736820636f6f6c646f60008201527f776e2073696e6365206c61737420726566726573680000000000000000000000602082015250565b7f436f6c6c61746572616c20526174696f20686173206265656e20706175736564600082015250565b611d7781611b37565b8114611d8257600080fd5b50565b611d8e81611b75565b8114611d9957600080fd5b5056fea264697066735822122014323bd57532cf7c4a267ab36b070639fdfcb22fdf04bbd285fd405d0a4a3fe664736f6c63430008040033",
  "devdoc": {
    "kind": "dev",
    "methods": {
      "owner()": {
        "details": "Returns the address of the current owner."
      },
      "renounceOwnership()": {
        "details": "Leaves the contract without owner. It will not be possible to call `onlyOwner` functions anymore. Can only be called by the current owner. NOTE: Renouncing ownership will leave the contract without an owner, thereby removing any functionality that is only available to the owner."
      },
      "transferOwnership(address)": {
        "details": "Transfers ownership of the contract to a new account (`newOwner`). Can only be called by the current owner."
      }
    },
    "version": 1
  },
  "userdoc": {
    "kind": "user",
    "methods": {},
    "version": 1
  },
  "storageLayout": {
    "storage": [
      {
        "astId": 99,
        "contract": "contracts/CollateralRatioPolicy.sol:CollateralRatioPolicy",
        "label": "_owner",
        "offset": 0,
        "slot": "0",
        "type": "t_address"
      },
      {
        "astId": 51,
        "contract": "contracts/CollateralRatioPolicy.sol:CollateralRatioPolicy",
        "label": "_initialized",
        "offset": 20,
        "slot": "0",
        "type": "t_bool"
      },
      {
        "astId": 54,
        "contract": "contracts/CollateralRatioPolicy.sol:CollateralRatioPolicy",
        "label": "_initializing",
        "offset": 21,
        "slot": "0",
        "type": "t_bool"
      },
      {
        "astId": 1727,
        "contract": "contracts/CollateralRatioPolicy.sol:CollateralRatioPolicy",
        "label": "oracleDollar",
        "offset": 0,
        "slot": "1",
        "type": "t_address"
      },
      {
        "astId": 1729,
        "contract": "contracts/CollateralRatioPolicy.sol:CollateralRatioPolicy",
        "label": "dollar",
        "offset": 0,
        "slot": "2",
        "type": "t_address"
      },
      {
        "astId": 1731,
        "contract": "contracts/CollateralRatioPolicy.sol:CollateralRatioPolicy",
        "label": "treasury",
        "offset": 0,
        "slot": "3",
        "type": "t_address"
      },
      {
        "astId": 1740,
        "contract": "contracts/CollateralRatioPolicy.sol:CollateralRatioPolicy",
        "label": "target_collateral_ratio",
        "offset": 0,
        "slot": "4",
        "type": "t_uint256"
      },
      {
        "astId": 1743,
        "contract": "contracts/CollateralRatioPolicy.sol:CollateralRatioPolicy",
        "label": "effective_collateral_ratio",
        "offset": 0,
        "slot": "5",
        "type": "t_uint256"
      },
      {
        "astId": 1745,
        "contract": "contracts/CollateralRatioPolicy.sol:CollateralRatioPolicy",
        "label": "last_refresh_cr_timestamp",
        "offset": 0,
        "slot": "6",
        "type": "t_uint256"
      },
      {
        "astId": 1747,
        "contract": "contracts/CollateralRatioPolicy.sol:CollateralRatioPolicy",
        "label": "refresh_cooldown",
        "offset": 0,
        "slot": "7",
        "type": "t_uint256"
      },
      {
        "astId": 1749,
        "contract": "contracts/CollateralRatioPolicy.sol:CollateralRatioPolicy",
        "label": "ratio_step",
        "offset": 0,
        "slot": "8",
        "type": "t_uint256"
      },
      {
        "astId": 1751,
        "contract": "contracts/CollateralRatioPolicy.sol:CollateralRatioPolicy",
        "label": "price_target",
        "offset": 0,
        "slot": "9",
        "type": "t_uint256"
      },
      {
        "astId": 1753,
        "contract": "contracts/CollateralRatioPolicy.sol:CollateralRatioPolicy",
        "label": "price_band",
        "offset": 0,
        "slot": "10",
        "type": "t_uint256"
      },
      {
        "astId": 1756,
        "contract": "contracts/CollateralRatioPolicy.sol:CollateralRatioPolicy",
        "label": "collateral_ratio_paused",
        "offset": 0,
        "slot": "11",
        "type": "t_bool"
      },
      {
        "astId": 1759,
        "contract": "contracts/CollateralRatioPolicy.sol:CollateralRatioPolicy",
        "label": "using_effective_collateral_ratio",
        "offset": 1,
        "slot": "11",
        "type": "t_bool"
      }
    ],
    "types": {
      "t_address": {
        "encoding": "inplace",
        "label": "address",
        "numberOfBytes": "20"
      },
      "t_bool": {
        "encoding": "inplace",
        "label": "bool",
        "numberOfBytes": "1"
      },
      "t_uint256": {
        "encoding": "inplace",
        "label": "uint256",
        "numberOfBytes": "32"
      }
    }
  }
}