{
  "address": "0xD9693F5bd92800b9bae0fd21f7D9078F7DD117d1",
  "abi": [
    {
      "inputs": [
        {
          "internalType": "address",
          "name": "_dollar",
          "type": "address"
        },
        {
          "internalType": "address",
          "name": "_oracleDollarCollateral",
          "type": "address"
        },
        {
          "internalType": "uint256",
          "name": "_missingDecimals",
          "type": "uint256"
        }
      ],
      "stateMutability": "nonpayable",
      "type": "constructor"
    },
    {
      "anonymous": false,
      "inputs": [
        {
          "indexed": true,
          "internalType": "address",
          "name": "previousOwner",
          "type": "address"
        },
        {
          "indexed": true,
          "internalType": "address",
          "name": "newOwner",
          "type": "address"
        }
      ],
      "name": "OwnershipTransferred",
      "type": "event"
    },
    {
      "inputs": [],
      "name": "consult",
      "outputs": [
        {
          "internalType": "uint256",
          "name": "",
          "type": "uint256"
        }
      ],
      "stateMutability": "view",
      "type": "function"
    },
    {
      "inputs": [],
      "name": "dollar",
      "outputs": [
        {
          "internalType": "address",
          "name": "",
          "type": "address"
        }
      ],
      "stateMutability": "view",
      "type": "function"
    },
    {
      "inputs": [],
      "name": "missingDecimals",
      "outputs": [
        {
          "internalType": "uint256",
          "name": "",
          "type": "uint256"
        }
      ],
      "stateMutability": "view",
      "type": "function"
    },
    {
      "inputs": [],
      "name": "oracleCollateralUsd",
      "outputs": [
        {
          "internalType": "address",
          "name": "",
          "type": "address"
        }
      ],
      "stateMutability": "view",
      "type": "function"
    },
    {
      "inputs": [],
      "name": "oracleDollarCollateral",
      "outputs": [
        {
          "internalType": "address",
          "name": "",
          "type": "address"
        }
      ],
      "stateMutability": "view",
      "type": "function"
    },
    {
      "inputs": [],
      "name": "owner",
      "outputs": [
        {
          "internalType": "address",
          "name": "",
          "type": "address"
        }
      ],
      "stateMutability": "view",
      "type": "function"
    },
    {
      "inputs": [],
      "name": "renounceOwnership",
      "outputs": [],
      "stateMutability": "nonpayable",
      "type": "function"
    },
    {
      "inputs": [
        {
          "internalType": "address",
          "name": "_oracleCollateralUsd",
          "type": "address"
        }
      ],
      "name": "setOracleCollateralUsd",
      "outputs": [],
      "stateMutability": "nonpayable",
      "type": "function"
    },
    {
      "inputs": [
        {
          "internalType": "address",
          "name": "_oracleDollarCollateral",
          "type": "address"
        }
      ],
      "name": "setOracleDollarCollateral",
      "outputs": [],
      "stateMutability": "nonpayable",
      "type": "function"
    },
    {
      "inputs": [
        {
          "internalType": "address",
          "name": "newOwner",
          "type": "address"
        }
      ],
      "name": "transferOwnership",
      "outputs": [],
      "stateMutability": "nonpayable",
      "type": "function"
    }
  ],
  "transactionHash": "0xa230e89d72b645d4f3d5a0a53448ac1469c508b4f18bfd58127f23eae80404b2",
  "args": [
    "0xD747056F02C6B21B30706Be2c4CbE220742980Af",
    "0xfe040749A6A71d94ce2eA432a3f8baF98c41c441",
    0
  ],
  "solcInputHash": "528e37ad3cee8dde3b849d6f9ffe4ef0",
  "bytecode": "0x60806040523480156200001157600080fd5b506040516200100c3803806200100c8339818101604052810190620000379190620001af565b6000620000496200017960201b60201c565b9050806000806101000a81548173ffffffffffffffffffffffffffffffffffffffff021916908373ffffffffffffffffffffffffffffffffffffffff1602179055508073ffffffffffffffffffffffffffffffffffffffff16600073ffffffffffffffffffffffffffffffffffffffff167f8be0079c531659141344cd1fd0a4f28419497f9722a3daafe3b4186f6b6457e060405160405180910390a35082600360006101000a81548173ffffffffffffffffffffffffffffffffffffffff021916908373ffffffffffffffffffffffffffffffffffffffff16021790555081600160006101000a81548173ffffffffffffffffffffffffffffffffffffffff021916908373ffffffffffffffffffffffffffffffffffffffff1602179055508060048190555050505062000277565b600033905090565b600081519050620001928162000243565b92915050565b600081519050620001a9816200025d565b92915050565b600080600060608486031215620001c557600080fd5b6000620001d58682870162000181565b9350506020620001e88682870162000181565b9250506040620001fb8682870162000198565b9150509250925092565b6000620002128262000219565b9050919050565b600073ffffffffffffffffffffffffffffffffffffffff82169050919050565b6000819050919050565b6200024e8162000205565b81146200025a57600080fd5b50565b620002688162000239565b81146200027457600080fd5b50565b610d8580620002876000396000f3fe608060405234801561001057600080fd5b506004361061009e5760003560e01c80636c376fd7116100665780636c376fd714610135578063715018a6146101535780637eeda7031461015d5780638da5cb5b1461017b578063f2fde38b146101995761009e565b8063132f3f8a146100a35780633f48a499146100c1578063412831c4146100dd57806348ee0d8a146100fb57806351adeb5714610117575b600080fd5b6100ab6101b5565b6040516100b89190610956565b60405180910390f35b6100db60048036038101906100d691906108a0565b6101db565b005b6100e561029b565b6040516100f291906109da565b60405180910390f35b610115600480360381019061011091906108a0565b6102a1565b005b61011f610361565b60405161012c9190610956565b60405180910390f35b61013d610387565b60405161014a9190610956565b60405180910390f35b61015b6103ad565b005b6101656104e7565b60405161017291906109da565b60405180910390f35b61018361069c565b6040516101909190610956565b60405180910390f35b6101b360048036038101906101ae91906108a0565b6106c5565b005b600160009054906101000a900473ffffffffffffffffffffffffffffffffffffffff1681565b6101e361086e565b73ffffffffffffffffffffffffffffffffffffffff1661020161069c565b73ffffffffffffffffffffffffffffffffffffffff1614610257576040517f08c379a000000000000000000000000000000000000000000000000000000000815260040161024e906109ba565b60405180910390fd5b80600260006101000a81548173ffffffffffffffffffffffffffffffffffffffff021916908373ffffffffffffffffffffffffffffffffffffffff16021790555050565b60045481565b6102a961086e565b73ffffffffffffffffffffffffffffffffffffffff166102c761069c565b73ffffffffffffffffffffffffffffffffffffffff161461031d576040517f08c379a0000000000000000000000000000000000000000000000000000000008152600401610314906109ba565b60405180910390fd5b80600160006101000a81548173ffffffffffffffffffffffffffffffffffffffff021916908373ffffffffffffffffffffffffffffffffffffffff16021790555050565b600360009054906101000a900473ffffffffffffffffffffffffffffffffffffffff1681565b600260009054906101000a900473ffffffffffffffffffffffffffffffffffffffff1681565b6103b561086e565b73ffffffffffffffffffffffffffffffffffffffff166103d361069c565b73ffffffffffffffffffffffffffffffffffffffff1614610429576040517f08c379a0000000000000000000000000000000000000000000000000000000008152600401610420906109ba565b60405180910390fd5b600073ffffffffffffffffffffffffffffffffffffffff1660008054906101000a900473ffffffffffffffffffffffffffffffffffffffff1673ffffffffffffffffffffffffffffffffffffffff167f8be0079c531659141344cd1fd0a4f28419497f9722a3daafe3b4186f6b6457e060405160405180910390a360008060006101000a81548173ffffffffffffffffffffffffffffffffffffffff021916908373ffffffffffffffffffffffffffffffffffffffff160217905550565b600080600260009054906101000a900473ffffffffffffffffffffffffffffffffffffffff1673ffffffffffffffffffffffffffffffffffffffff16637eeda7036040518163ffffffff1660e01b815260040160206040518083038186803b15801561055257600080fd5b505afa158015610566573d6000803e3d6000fd5b505050506040513d601f19601f8201168201806040525081019061058a91906108c9565b90506000600160009054906101000a900473ffffffffffffffffffffffffffffffffffffffff1673ffffffffffffffffffffffffffffffffffffffff16633ddac953600360009054906101000a900473ffffffffffffffffffffffffffffffffffffffff16600454600a6105fe9190610a8a565b620f424061060c9190610ba8565b6040518363ffffffff1660e01b8152600401610629929190610971565b60206040518083038186803b15801561064157600080fd5b505afa158015610655573d6000803e3d6000fd5b505050506040513d601f19601f8201168201806040525081019061067991906108c9565b9050620f4240818361068b9190610ba8565b6106959190610a06565b9250505090565b60008060009054906101000a900473ffffffffffffffffffffffffffffffffffffffff16905090565b6106cd61086e565b73ffffffffffffffffffffffffffffffffffffffff166106eb61069c565b73ffffffffffffffffffffffffffffffffffffffff1614610741576040517f08c379a0000000000000000000000000000000000000000000000000000000008152600401610738906109ba565b60405180910390fd5b600073ffffffffffffffffffffffffffffffffffffffff168173ffffffffffffffffffffffffffffffffffffffff1614156107b1576040517f08c379a00000000000000000000000000000000000000000000000000000000081526004016107a89061099a565b60405180910390fd5b8073ffffffffffffffffffffffffffffffffffffffff1660008054906101000a900473ffffffffffffffffffffffffffffffffffffffff1673ffffffffffffffffffffffffffffffffffffffff167f8be0079c531659141344cd1fd0a4f28419497f9722a3daafe3b4186f6b6457e060405160405180910390a3806000806101000a81548173ffffffffffffffffffffffffffffffffffffffff021916908373ffffffffffffffffffffffffffffffffffffffff16021790555050565b600033905090565b60008135905061088581610d21565b92915050565b60008151905061089a81610d38565b92915050565b6000602082840312156108b257600080fd5b60006108c084828501610876565b91505092915050565b6000602082840312156108db57600080fd5b60006108e98482850161088b565b91505092915050565b6108fb81610c02565b82525050565b600061090e6026836109f5565b915061091982610ca9565b604082019050919050565b60006109316020836109f5565b915061093c82610cf8565b602082019050919050565b61095081610c34565b82525050565b600060208201905061096b60008301846108f2565b92915050565b600060408201905061098660008301856108f2565b6109936020830184610947565b9392505050565b600060208201905081810360008301526109b381610901565b9050919050565b600060208201905081810360008301526109d381610924565b9050919050565b60006020820190506109ef6000830184610947565b92915050565b600082825260208201905092915050565b6000610a1182610c34565b9150610a1c83610c34565b925082610a2c57610a2b610c6d565b5b828204905092915050565b6000808291508390505b6001851115610a8157808604811115610a5d57610a5c610c3e565b5b6001851615610a6c5780820291505b8081029050610a7a85610c9c565b9450610a41565b94509492505050565b6000610a9582610c34565b9150610aa083610c34565b9250610acd7fffffffffffffffffffffffffffffffffffffffffffffffffffffffffffffffff8484610ad5565b905092915050565b600082610ae55760019050610ba1565b81610af35760009050610ba1565b8160018114610b095760028114610b1357610b42565b6001915050610ba1565b60ff841115610b2557610b24610c3e565b5b8360020a915084821115610b3c57610b3b610c3e565b5b50610ba1565b5060208310610133831016604e8410600b8410161715610b775782820a905083811115610b7257610b71610c3e565b5b610ba1565b610b848484846001610a37565b92509050818404811115610b9b57610b9a610c3e565b5b81810290505b9392505050565b6000610bb382610c34565b9150610bbe83610c34565b9250817fffffffffffffffffffffffffffffffffffffffffffffffffffffffffffffffff0483118215151615610bf757610bf6610c3e565b5b828202905092915050565b6000610c0d82610c14565b9050919050565b600073ffffffffffffffffffffffffffffffffffffffff82169050919050565b6000819050919050565b7f4e487b7100000000000000000000000000000000000000000000000000000000600052601160045260246000fd5b7f4e487b7100000000000000000000000000000000000000000000000000000000600052601260045260246000fd5b60008160011c9050919050565b7f4f776e61626c653a206e6577206f776e657220697320746865207a65726f206160008201527f6464726573730000000000000000000000000000000000000000000000000000602082015250565b7f4f776e61626c653a2063616c6c6572206973206e6f7420746865206f776e6572600082015250565b610d2a81610c02565b8114610d3557600080fd5b50565b610d4181610c34565b8114610d4c57600080fd5b5056fea26469706673582212201bf8258a93bebb99dd11295fc40964b7baaaca6a39ce6563276f131353be3b4d64736f6c63430008040033",
  "devdoc": {
    "kind": "dev",
    "methods": {
      "owner()": {
        "details": "Returns the address of the current owner."
      },
      "renounceOwnership()": {
        "details": "Leaves the contract without owner. It will not be possible to call `onlyOwner` functions anymore. Can only be called by the current owner. NOTE: Renouncing ownership will leave the contract without an owner, thereby removing any functionality that is only available to the owner."
      },
      "transferOwnership(address)": {
        "details": "Transfers ownership of the contract to a new account (`newOwner`). Can only be called by the current owner."
      }
    },
    "version": 1
  },
  "userdoc": {
    "kind": "user",
    "methods": {},
    "version": 1
  },
  "storageLayout": {
    "storage": [
      {
        "astId": 99,
        "contract": "contracts/oracle/DaiOracle.sol:DaiOracle",
        "label": "_owner",
        "offset": 0,
        "slot": "0",
        "type": "t_address"
      },
      {
        "astId": 9280,
        "contract": "contracts/oracle/DaiOracle.sol:DaiOracle",
        "label": "oracleDollarCollateral",
        "offset": 0,
        "slot": "1",
        "type": "t_address"
      },
      {
        "astId": 9282,
        "contract": "contracts/oracle/DaiOracle.sol:DaiOracle",
        "label": "oracleCollateralUsd",
        "offset": 0,
        "slot": "2",
        "type": "t_address"
      },
      {
        "astId": 9284,
        "contract": "contracts/oracle/DaiOracle.sol:DaiOracle",
        "label": "dollar",
        "offset": 0,
        "slot": "3",
        "type": "t_address"
      },
      {
        "astId": 9286,
        "contract": "contracts/oracle/DaiOracle.sol:DaiOracle",
        "label": "missingDecimals",
        "offset": 0,
        "slot": "4",
        "type": "t_uint256"
      }
    ],
    "types": {
      "t_address": {
        "encoding": "inplace",
        "label": "address",
        "numberOfBytes": "20"
      },
      "t_uint256": {
        "encoding": "inplace",
        "label": "uint256",
        "numberOfBytes": "32"
      }
    }
  }
}