{
  "address": "0x8a5A5b7f094493a4bb0BbF946b3B778ADe468Fb4",
  "abi": [
    {
      "inputs": [
        {
          "internalType": "address",
          "name": "_share",
          "type": "address"
        },
        {
          "internalType": "address",
          "name": "_oracleShare",
          "type": "address"
        },
        {
          "internalType": "address",
          "name": "_chainlinkToUsd",
          "type": "address"
        }
      ],
      "stateMutability": "nonpayable",
      "type": "constructor"
    },
    {
      "anonymous": false,
      "inputs": [
        {
          "indexed": true,
          "internalType": "address",
          "name": "previousOwner",
          "type": "address"
        },
        {
          "indexed": true,
          "internalType": "address",
          "name": "newOwner",
          "type": "address"
        }
      ],
      "name": "OwnershipTransferred",
      "type": "event"
    },
    {
      "inputs": [],
      "name": "chainlinkToUsd",
      "outputs": [
        {
          "internalType": "address",
          "name": "",
          "type": "address"
        }
      ],
      "stateMutability": "view",
      "type": "function"
    },
    {
      "inputs": [],
      "name": "consult",
      "outputs": [
        {
          "internalType": "uint256",
          "name": "",
          "type": "uint256"
        }
      ],
      "stateMutability": "view",
      "type": "function"
    },
    {
      "inputs": [],
      "name": "oracleShare",
      "outputs": [
        {
          "internalType": "address",
          "name": "",
          "type": "address"
        }
      ],
      "stateMutability": "view",
      "type": "function"
    },
    {
      "inputs": [],
      "name": "owner",
      "outputs": [
        {
          "internalType": "address",
          "name": "",
          "type": "address"
        }
      ],
      "stateMutability": "view",
      "type": "function"
    },
    {
      "inputs": [],
      "name": "renounceOwnership",
      "outputs": [],
      "stateMutability": "nonpayable",
      "type": "function"
    },
    {
      "inputs": [
        {
          "internalType": "address",
          "name": "_chainlinkToUsd",
          "type": "address"
        }
      ],
      "name": "setChainlinkToUsd",
      "outputs": [],
      "stateMutability": "nonpayable",
      "type": "function"
    },
    {
      "inputs": [
        {
          "internalType": "address",
          "name": "_oracleShare",
          "type": "address"
        }
      ],
      "name": "setOracleShare",
      "outputs": [],
      "stateMutability": "nonpayable",
      "type": "function"
    },
    {
      "inputs": [],
      "name": "share",
      "outputs": [
        {
          "internalType": "address",
          "name": "",
          "type": "address"
        }
      ],
      "stateMutability": "view",
      "type": "function"
    },
    {
      "inputs": [
        {
          "internalType": "address",
          "name": "newOwner",
          "type": "address"
        }
      ],
      "name": "transferOwnership",
      "outputs": [],
      "stateMutability": "nonpayable",
      "type": "function"
    }
  ],
  "transactionHash": "0x8b5afa1c4aaa80f0c031028549e8b07f203bab320b6e3003ad6879c5538cc523",
  "args": [
    "0x49467B023C27B712D3a50fabEAD74a7720520B3F",
    "0x54B97039dB1e207d4A0B5aC536e9570f0B355917",
    "0x9E2A5aa8B593D3bE41Cf363ebd9f6A983F59BD8e"
  ],
  "solcInputHash": "528e37ad3cee8dde3b849d6f9ffe4ef0",
  "bytecode": "0x60806040523480156200001157600080fd5b50604051620011da380380620011da8339818101604052810190620000379190620001d2565b600062000049620001b360201b60201c565b9050806000806101000a81548173ffffffffffffffffffffffffffffffffffffffff021916908373ffffffffffffffffffffffffffffffffffffffff1602179055508073ffffffffffffffffffffffffffffffffffffffff16600073ffffffffffffffffffffffffffffffffffffffff167f8be0079c531659141344cd1fd0a4f28419497f9722a3daafe3b4186f6b6457e060405160405180910390a35082600360006101000a81548173ffffffffffffffffffffffffffffffffffffffff021916908373ffffffffffffffffffffffffffffffffffffffff16021790555080600260006101000a81548173ffffffffffffffffffffffffffffffffffffffff021916908373ffffffffffffffffffffffffffffffffffffffff16021790555081600160006101000a81548173ffffffffffffffffffffffffffffffffffffffff021916908373ffffffffffffffffffffffffffffffffffffffff16021790555050505062000276565b600033905090565b600081519050620001cc816200025c565b92915050565b600080600060608486031215620001e857600080fd5b6000620001f886828701620001bb565b93505060206200020b86828701620001bb565b92505060406200021e86828701620001bb565b9150509250925092565b600062000235826200023c565b9050919050565b600073ffffffffffffffffffffffffffffffffffffffff82169050919050565b620002678162000228565b81146200027357600080fd5b50565b610f5480620002866000396000f3fe608060405234801561001057600080fd5b50600436106100935760003560e01c80638da5cb5b116100665780638da5cb5b146100fa578063a61f166b14610118578063a8d5fd6514610134578063d74d1a0e14610152578063f2fde38b1461017057610093565b806321353aa51461009857806328596aba146100b6578063715018a6146100d25780637eeda703146100dc575b600080fd5b6100a061018c565b6040516100ad9190610ab3565b60405180910390f35b6100d060048036038101906100cb919061095d565b6101b2565b005b6100da610272565b005b6100e46103ac565b6040516100f19190610b37565b60405180910390f35b6101026104b0565b60405161010f9190610ab3565b60405180910390f35b610132600480360381019061012d919061095d565b6104d9565b005b61013c610599565b6040516101499190610ab3565b60405180910390f35b61015a6105bf565b6040516101679190610ab3565b60405180910390f35b61018a6004803603810190610185919061095d565b6105e5565b005b600260009054906101000a900473ffffffffffffffffffffffffffffffffffffffff1681565b6101ba61078e565b73ffffffffffffffffffffffffffffffffffffffff166101d86104b0565b73ffffffffffffffffffffffffffffffffffffffff161461022e576040517f08c379a000000000000000000000000000000000000000000000000000000000815260040161022590610b17565b60405180910390fd5b80600160006101000a81548173ffffffffffffffffffffffffffffffffffffffff021916908373ffffffffffffffffffffffffffffffffffffffff16021790555050565b61027a61078e565b73ffffffffffffffffffffffffffffffffffffffff166102986104b0565b73ffffffffffffffffffffffffffffffffffffffff16146102ee576040517f08c379a00000000000000000000000000000000000000000000000000000000081526004016102e590610b17565b60405180910390fd5b600073ffffffffffffffffffffffffffffffffffffffff1660008054906101000a900473ffffffffffffffffffffffffffffffffffffffff1673ffffffffffffffffffffffffffffffffffffffff167f8be0079c531659141344cd1fd0a4f28419497f9722a3daafe3b4186f6b6457e060405160405180910390a360008060006101000a81548173ffffffffffffffffffffffffffffffffffffffff021916908373ffffffffffffffffffffffffffffffffffffffff160217905550565b6000806103b7610796565b90506000600160009054906101000a900473ffffffffffffffffffffffffffffffffffffffff1673ffffffffffffffffffffffffffffffffffffffff16633ddac953600360009054906101000a900473ffffffffffffffffffffffffffffffffffffffff16620f42406040518363ffffffff1660e01b815260040161043d929190610ace565b60206040518083038186803b15801561045557600080fd5b505afa158015610469573d6000803e3d6000fd5b505050506040513d601f19601f8201168201806040525081019061048d9190610986565b9050620f4240818361049f9190610d05565b6104a99190610b63565b9250505090565b60008060009054906101000a900473ffffffffffffffffffffffffffffffffffffffff16905090565b6104e161078e565b73ffffffffffffffffffffffffffffffffffffffff166104ff6104b0565b73ffffffffffffffffffffffffffffffffffffffff1614610555576040517f08c379a000000000000000000000000000000000000000000000000000000000815260040161054c90610b17565b60405180910390fd5b80600260006101000a81548173ffffffffffffffffffffffffffffffffffffffff021916908373ffffffffffffffffffffffffffffffffffffffff16021790555050565b600360009054906101000a900473ffffffffffffffffffffffffffffffffffffffff1681565b600160009054906101000a900473ffffffffffffffffffffffffffffffffffffffff1681565b6105ed61078e565b73ffffffffffffffffffffffffffffffffffffffff1661060b6104b0565b73ffffffffffffffffffffffffffffffffffffffff1614610661576040517f08c379a000000000000000000000000000000000000000000000000000000000815260040161065890610b17565b60405180910390fd5b600073ffffffffffffffffffffffffffffffffffffffff168173ffffffffffffffffffffffffffffffffffffffff1614156106d1576040517f08c379a00000000000000000000000000000000000000000000000000000000081526004016106c890610af7565b60405180910390fd5b8073ffffffffffffffffffffffffffffffffffffffff1660008054906101000a900473ffffffffffffffffffffffffffffffffffffffff1673ffffffffffffffffffffffffffffffffffffffff167f8be0079c531659141344cd1fd0a4f28419497f9722a3daafe3b4186f6b6457e060405160405180910390a3806000806101000a81548173ffffffffffffffffffffffffffffffffffffffff021916908373ffffffffffffffffffffffffffffffffffffffff16021790555050565b600033905090565b600080600260009054906101000a900473ffffffffffffffffffffffffffffffffffffffff16905060008173ffffffffffffffffffffffffffffffffffffffff1663feaf968c6040518163ffffffff1660e01b815260040160a06040518083038186803b15801561080657600080fd5b505afa15801561081a573d6000803e3d6000fd5b505050506040513d601f19601f8201168201806040525081019061083e91906109af565b50505091505060008273ffffffffffffffffffffffffffffffffffffffff1663313ce5676040518163ffffffff1660e01b815260040160206040518083038186803b15801561088c57600080fd5b505afa1580156108a0573d6000803e3d6000fd5b505050506040513d601f19601f820116820180604052508101906108c49190610a26565b905080600a6108d39190610be7565b620f4240836108e29190610d05565b6108ec9190610b63565b935050505090565b60008135905061090381610eab565b92915050565b60008151905061091881610ec2565b92915050565b60008151905061092d81610ed9565b92915050565b60008151905061094281610f07565b92915050565b60008151905061095781610ef0565b92915050565b60006020828403121561096f57600080fd5b600061097d848285016108f4565b91505092915050565b60006020828403121561099857600080fd5b60006109a68482850161091e565b91505092915050565b600080600080600060a086880312156109c757600080fd5b60006109d588828901610933565b95505060206109e688828901610909565b94505060406109f78882890161091e565b9350506060610a088882890161091e565b9250506080610a1988828901610933565b9150509295509295909350565b600060208284031215610a3857600080fd5b6000610a4684828501610948565b91505092915050565b610a5881610d5f565b82525050565b6000610a6b602683610b52565b9150610a7682610e33565b604082019050919050565b6000610a8e602083610b52565b9150610a9982610e82565b602082019050919050565b610aad81610d9b565b82525050565b6000602082019050610ac86000830184610a4f565b92915050565b6000604082019050610ae36000830185610a4f565b610af06020830184610aa4565b9392505050565b60006020820190508181036000830152610b1081610a5e565b9050919050565b60006020820190508181036000830152610b3081610a81565b9050919050565b6000602082019050610b4c6000830184610aa4565b92915050565b600082825260208201905092915050565b6000610b6e82610d9b565b9150610b7983610d9b565b925082610b8957610b88610df7565b5b828204905092915050565b6000808291508390505b6001851115610bde57808604811115610bba57610bb9610dc8565b5b6001851615610bc95780820291505b8081029050610bd785610e26565b9450610b9e565b94509492505050565b6000610bf282610d9b565b9150610bfd83610da5565b9250610c2a7fffffffffffffffffffffffffffffffffffffffffffffffffffffffffffffffff8484610c32565b905092915050565b600082610c425760019050610cfe565b81610c505760009050610cfe565b8160018114610c665760028114610c7057610c9f565b6001915050610cfe565b60ff841115610c8257610c81610dc8565b5b8360020a915084821115610c9957610c98610dc8565b5b50610cfe565b5060208310610133831016604e8410600b8410161715610cd45782820a905083811115610ccf57610cce610dc8565b5b610cfe565b610ce18484846001610b94565b92509050818404811115610cf857610cf7610dc8565b5b81810290505b9392505050565b6000610d1082610d9b565b9150610d1b83610d9b565b9250817fffffffffffffffffffffffffffffffffffffffffffffffffffffffffffffffff0483118215151615610d5457610d53610dc8565b5b828202905092915050565b6000610d6a82610d7b565b9050919050565b6000819050919050565b600073ffffffffffffffffffffffffffffffffffffffff82169050919050565b6000819050919050565b600060ff82169050919050565b600069ffffffffffffffffffff82169050919050565b7f4e487b7100000000000000000000000000000000000000000000000000000000600052601160045260246000fd5b7f4e487b7100000000000000000000000000000000000000000000000000000000600052601260045260246000fd5b60008160011c9050919050565b7f4f776e61626c653a206e6577206f776e657220697320746865207a65726f206160008201527f6464726573730000000000000000000000000000000000000000000000000000602082015250565b7f4f776e61626c653a2063616c6c6572206973206e6f7420746865206f776e6572600082015250565b610eb481610d5f565b8114610ebf57600080fd5b50565b610ecb81610d71565b8114610ed657600080fd5b50565b610ee281610d9b565b8114610eed57600080fd5b50565b610ef981610da5565b8114610f0457600080fd5b50565b610f1081610db2565b8114610f1b57600080fd5b5056fea26469706673582212208f85b8a1e9b22eec4c688edb247d8b9319af3f055e175bf90fe086377c3202f164736f6c63430008040033",
  "devdoc": {
    "kind": "dev",
    "methods": {
      "owner()": {
        "details": "Returns the address of the current owner."
      },
      "renounceOwnership()": {
        "details": "Leaves the contract without owner. It will not be possible to call `onlyOwner` functions anymore. Can only be called by the current owner. NOTE: Renouncing ownership will leave the contract without an owner, thereby removing any functionality that is only available to the owner."
      },
      "transferOwnership(address)": {
        "details": "Transfers ownership of the contract to a new account (`newOwner`). Can only be called by the current owner."
      }
    },
    "version": 1
  },
  "userdoc": {
    "kind": "user",
    "methods": {},
    "version": 1
  },
  "storageLayout": {
    "storage": [
      {
        "astId": 99,
        "contract": "contracts/oracle/ShareOracle.sol:ShareOracle",
        "label": "_owner",
        "offset": 0,
        "slot": "0",
        "type": "t_address"
      },
      {
        "astId": 9834,
        "contract": "contracts/oracle/ShareOracle.sol:ShareOracle",
        "label": "oracleShare",
        "offset": 0,
        "slot": "1",
        "type": "t_address"
      },
      {
        "astId": 9836,
        "contract": "contracts/oracle/ShareOracle.sol:ShareOracle",
        "label": "chainlinkToUsd",
        "offset": 0,
        "slot": "2",
        "type": "t_address"
      },
      {
        "astId": 9838,
        "contract": "contracts/oracle/ShareOracle.sol:ShareOracle",
        "label": "share",
        "offset": 0,
        "slot": "3",
        "type": "t_address"
      }
    ],
    "types": {
      "t_address": {
        "encoding": "inplace",
        "label": "address",
        "numberOfBytes": "20"
      }
    }
  }
}