{
  "address": "0x6087e651215518D1F4b2Dd988E3001388E9F5379",
  "abi": [
    {
      "anonymous": false,
      "inputs": [
        {
          "indexed": true,
          "internalType": "address",
          "name": "previousOwner",
          "type": "address"
        },
        {
          "indexed": true,
          "internalType": "address",
          "name": "newOwner",
          "type": "address"
        }
      ],
      "name": "OwnershipTransferred",
      "type": "event"
    },
    {
      "anonymous": false,
      "inputs": [
        {
          "indexed": true,
          "internalType": "address",
          "name": "pool",
          "type": "address"
        }
      ],
      "name": "PoolAdded",
      "type": "event"
    },
    {
      "anonymous": false,
      "inputs": [
        {
          "indexed": true,
          "internalType": "address",
          "name": "pool",
          "type": "address"
        }
      ],
      "name": "PoolRemoved",
      "type": "event"
    },
    {
      "anonymous": false,
      "inputs": [
        {
          "indexed": false,
          "internalType": "uint256",
          "name": "amount",
          "type": "uint256"
        }
      ],
      "name": "ProfitExtracted",
      "type": "event"
    },
    {
      "inputs": [
        {
          "internalType": "address",
          "name": "pool_address",
          "type": "address"
        }
      ],
      "name": "addPool",
      "outputs": [],
      "stateMutability": "nonpayable",
      "type": "function"
    },
    {
      "inputs": [],
      "name": "collateral",
      "outputs": [
        {
          "internalType": "address",
          "name": "",
          "type": "address"
        }
      ],
      "stateMutability": "view",
      "type": "function"
    },
    {
      "inputs": [],
      "name": "collateralPrice",
      "outputs": [
        {
          "internalType": "uint256",
          "name": "",
          "type": "uint256"
        }
      ],
      "stateMutability": "view",
      "type": "function"
    },
    {
      "inputs": [],
      "name": "collateralRatioPolicy",
      "outputs": [
        {
          "internalType": "address",
          "name": "",
          "type": "address"
        }
      ],
      "stateMutability": "view",
      "type": "function"
    },
    {
      "inputs": [],
      "name": "collateralReserve",
      "outputs": [
        {
          "internalType": "address",
          "name": "",
          "type": "address"
        }
      ],
      "stateMutability": "view",
      "type": "function"
    },
    {
      "inputs": [],
      "name": "dollar",
      "outputs": [
        {
          "internalType": "address",
          "name": "",
          "type": "address"
        }
      ],
      "stateMutability": "view",
      "type": "function"
    },
    {
      "inputs": [],
      "name": "dollarPrice",
      "outputs": [
        {
          "internalType": "uint256",
          "name": "",
          "type": "uint256"
        }
      ],
      "stateMutability": "view",
      "type": "function"
    },
    {
      "inputs": [],
      "name": "effective_collateral_ratio",
      "outputs": [
        {
          "internalType": "uint256",
          "name": "",
          "type": "uint256"
        }
      ],
      "stateMutability": "view",
      "type": "function"
    },
    {
      "inputs": [],
      "name": "excessCollateralBalance",
      "outputs": [
        {
          "internalType": "uint256",
          "name": "_excess",
          "type": "uint256"
        }
      ],
      "stateMutability": "view",
      "type": "function"
    },
    {
      "inputs": [
        {
          "internalType": "uint256",
          "name": "_amount",
          "type": "uint256"
        }
      ],
      "name": "extractProfit",
      "outputs": [],
      "stateMutability": "nonpayable",
      "type": "function"
    },
    {
      "inputs": [],
      "name": "globalCollateralBalance",
      "outputs": [
        {
          "internalType": "uint256",
          "name": "",
          "type": "uint256"
        }
      ],
      "stateMutability": "view",
      "type": "function"
    },
    {
      "inputs": [],
      "name": "globalCollateralValue",
      "outputs": [
        {
          "internalType": "uint256",
          "name": "",
          "type": "uint256"
        }
      ],
      "stateMutability": "view",
      "type": "function"
    },
    {
      "inputs": [
        {
          "internalType": "address",
          "name": "_address",
          "type": "address"
        }
      ],
      "name": "hasPool",
      "outputs": [
        {
          "internalType": "bool",
          "name": "",
          "type": "bool"
        }
      ],
      "stateMutability": "view",
      "type": "function"
    },
    {
      "inputs": [],
      "name": "info",
      "outputs": [
        {
          "internalType": "uint256",
          "name": "",
          "type": "uint256"
        },
        {
          "internalType": "uint256",
          "name": "",
          "type": "uint256"
        },
        {
          "internalType": "uint256",
          "name": "",
          "type": "uint256"
        },
        {
          "internalType": "uint256",
          "name": "",
          "type": "uint256"
        },
        {
          "internalType": "uint256",
          "name": "",
          "type": "uint256"
        },
        {
          "internalType": "uint256",
          "name": "",
          "type": "uint256"
        },
        {
          "internalType": "uint256",
          "name": "",
          "type": "uint256"
        },
        {
          "internalType": "uint256",
          "name": "",
          "type": "uint256"
        }
      ],
      "stateMutability": "view",
      "type": "function"
    },
    {
      "inputs": [
        {
          "internalType": "address",
          "name": "_dollar",
          "type": "address"
        },
        {
          "internalType": "address",
          "name": "_share",
          "type": "address"
        },
        {
          "internalType": "address",
          "name": "_collateral",
          "type": "address"
        },
        {
          "internalType": "address",
          "name": "_treasuryPolicy",
          "type": "address"
        },
        {
          "internalType": "address",
          "name": "_collateralRatioPolicy",
          "type": "address"
        },
        {
          "internalType": "address",
          "name": "_collateralReserve",
          "type": "address"
        },
        {
          "internalType": "address",
          "name": "_profitSharingFund",
          "type": "address"
        },
        {
          "internalType": "address",
          "name": "_profitController",
          "type": "address"
        }
      ],
      "name": "initialize",
      "outputs": [],
      "stateMutability": "nonpayable",
      "type": "function"
    },
    {
      "inputs": [],
      "name": "minting_fee",
      "outputs": [
        {
          "internalType": "uint256",
          "name": "",
          "type": "uint256"
        }
      ],
      "stateMutability": "view",
      "type": "function"
    },
    {
      "inputs": [],
      "name": "missing_decimals",
      "outputs": [
        {
          "internalType": "uint256",
          "name": "",
          "type": "uint256"
        }
      ],
      "stateMutability": "view",
      "type": "function"
    },
    {
      "inputs": [],
      "name": "oracleCollateral",
      "outputs": [
        {
          "internalType": "address",
          "name": "",
          "type": "address"
        }
      ],
      "stateMutability": "view",
      "type": "function"
    },
    {
      "inputs": [],
      "name": "oracleDollar",
      "outputs": [
        {
          "internalType": "address",
          "name": "",
          "type": "address"
        }
      ],
      "stateMutability": "view",
      "type": "function"
    },
    {
      "inputs": [],
      "name": "oracleShare",
      "outputs": [
        {
          "internalType": "address",
          "name": "",
          "type": "address"
        }
      ],
      "stateMutability": "view",
      "type": "function"
    },
    {
      "inputs": [],
      "name": "owner",
      "outputs": [
        {
          "internalType": "address",
          "name": "",
          "type": "address"
        }
      ],
      "stateMutability": "view",
      "type": "function"
    },
    {
      "inputs": [
        {
          "internalType": "address",
          "name": "",
          "type": "address"
        }
      ],
      "name": "pools",
      "outputs": [
        {
          "internalType": "bool",
          "name": "",
          "type": "bool"
        }
      ],
      "stateMutability": "view",
      "type": "function"
    },
    {
      "inputs": [
        {
          "internalType": "uint256",
          "name": "",
          "type": "uint256"
        }
      ],
      "name": "pools_array",
      "outputs": [
        {
          "internalType": "address",
          "name": "",
          "type": "address"
        }
      ],
      "stateMutability": "view",
      "type": "function"
    },
    {
      "inputs": [],
      "name": "profitController",
      "outputs": [
        {
          "internalType": "address",
          "name": "",
          "type": "address"
        }
      ],
      "stateMutability": "view",
      "type": "function"
    },
    {
      "inputs": [],
      "name": "profitSharingFund",
      "outputs": [
        {
          "internalType": "address",
          "name": "",
          "type": "address"
        }
      ],
      "stateMutability": "view",
      "type": "function"
    },
    {
      "inputs": [],
      "name": "redemption_fee",
      "outputs": [
        {
          "internalType": "uint256",
          "name": "",
          "type": "uint256"
        }
      ],
      "stateMutability": "view",
      "type": "function"
    },
    {
      "inputs": [
        {
          "internalType": "address",
          "name": "pool_address",
          "type": "address"
        }
      ],
      "name": "removePool",
      "outputs": [],
      "stateMutability": "nonpayable",
      "type": "function"
    },
    {
      "inputs": [],
      "name": "renounceOwnership",
      "outputs": [],
      "stateMutability": "nonpayable",
      "type": "function"
    },
    {
      "inputs": [
        {
          "internalType": "address",
          "name": "_token",
          "type": "address"
        },
        {
          "internalType": "address",
          "name": "_receiver",
          "type": "address"
        },
        {
          "internalType": "uint256",
          "name": "_amount",
          "type": "uint256"
        }
      ],
      "name": "requestTransfer",
      "outputs": [],
      "stateMutability": "nonpayable",
      "type": "function"
    },
    {
      "inputs": [
        {
          "internalType": "address",
          "name": "_collateral",
          "type": "address"
        }
      ],
      "name": "setCollateralAddress",
      "outputs": [],
      "stateMutability": "nonpayable",
      "type": "function"
    },
    {
      "inputs": [
        {
          "internalType": "address",
          "name": "_collateralRatioPolicy",
          "type": "address"
        }
      ],
      "name": "setCollateralRatioPolicy",
      "outputs": [],
      "stateMutability": "nonpayable",
      "type": "function"
    },
    {
      "inputs": [
        {
          "internalType": "address",
          "name": "_collateralReserve",
          "type": "address"
        }
      ],
      "name": "setCollateralReserve",
      "outputs": [],
      "stateMutability": "nonpayable",
      "type": "function"
    },
    {
      "inputs": [
        {
          "internalType": "address",
          "name": "_oracleCollateral",
          "type": "address"
        }
      ],
      "name": "setOracleCollateral",
      "outputs": [],
      "stateMutability": "nonpayable",
      "type": "function"
    },
    {
      "inputs": [
        {
          "internalType": "address",
          "name": "_oracleDollar",
          "type": "address"
        }
      ],
      "name": "setOracleDollar",
      "outputs": [],
      "stateMutability": "nonpayable",
      "type": "function"
    },
    {
      "inputs": [
        {
          "internalType": "address",
          "name": "_oracleShare",
          "type": "address"
        }
      ],
      "name": "setOracleShare",
      "outputs": [],
      "stateMutability": "nonpayable",
      "type": "function"
    },
    {
      "inputs": [
        {
          "internalType": "address",
          "name": "_profitController",
          "type": "address"
        }
      ],
      "name": "setProfitController",
      "outputs": [],
      "stateMutability": "nonpayable",
      "type": "function"
    },
    {
      "inputs": [
        {
          "internalType": "address",
          "name": "_profitSharingFund",
          "type": "address"
        }
      ],
      "name": "setProfitSharingFund",
      "outputs": [],
      "stateMutability": "nonpayable",
      "type": "function"
    },
    {
      "inputs": [
        {
          "internalType": "address",
          "name": "_treasuryPolicy",
          "type": "address"
        }
      ],
      "name": "setTreasuryPolicy",
      "outputs": [],
      "stateMutability": "nonpayable",
      "type": "function"
    },
    {
      "inputs": [],
      "name": "share",
      "outputs": [
        {
          "internalType": "address",
          "name": "",
          "type": "address"
        }
      ],
      "stateMutability": "view",
      "type": "function"
    },
    {
      "inputs": [],
      "name": "sharePrice",
      "outputs": [
        {
          "internalType": "uint256",
          "name": "",
          "type": "uint256"
        }
      ],
      "stateMutability": "view",
      "type": "function"
    },
    {
      "inputs": [],
      "name": "target_collateral_ratio",
      "outputs": [
        {
          "internalType": "uint256",
          "name": "",
          "type": "uint256"
        }
      ],
      "stateMutability": "view",
      "type": "function"
    },
    {
      "inputs": [],
      "name": "totalUnclaimedBalance",
      "outputs": [
        {
          "internalType": "uint256",
          "name": "",
          "type": "uint256"
        }
      ],
      "stateMutability": "view",
      "type": "function"
    },
    {
      "inputs": [
        {
          "internalType": "address",
          "name": "newOwner",
          "type": "address"
        }
      ],
      "name": "transferOwnership",
      "outputs": [],
      "stateMutability": "nonpayable",
      "type": "function"
    },
    {
      "inputs": [],
      "name": "treasuryPolicy",
      "outputs": [
        {
          "internalType": "address",
          "name": "",
          "type": "address"
        }
      ],
      "stateMutability": "view",
      "type": "function"
    }
  ],
  "transactionHash": "0x511af906d37f62d0ab7f862007ed76a53d2ebb518ef90fcb82603b2ee9231ec0",
  "args": [],
  "solcInputHash": "528e37ad3cee8dde3b849d6f9ffe4ef0",
  "bytecode": "0x60806040523480156200001157600080fd5b50600062000024620000cf60201b60201c565b9050806000806101000a81548173ffffffffffffffffffffffffffffffffffffffff021916908373ffffffffffffffffffffffffffffffffffffffff1602179055508073ffffffffffffffffffffffffffffffffffffffff16600073ffffffffffffffffffffffffffffffffffffffff167f8be0079c531659141344cd1fd0a4f28419497f9722a3daafe3b4186f6b6457e060405160405180910390a35060018081905550620000d7565b600033905090565b613aae80620000e76000396000f3fe608060405234801561001057600080fd5b50600436106102745760003560e01c80638a29e2de11610151578063c0baeadb116100c3578063d8dfeb4511610087578063d8dfeb45146106fc578063d914cd4b1461071a578063da41e61314610736578063e9dc75b114610754578063f2fde38b14610772578063fbc9a8441461078e57610274565b8063c0baeadb14610668578063c3355b8d14610684578063cb73999f146106a2578063d2d97b06146106c0578063d74d1a0e146106de57610274565b8063a8d5fd6511610115578063a8d5fd65146105b6578063adf5cda0146105d4578063af83136e146105f2578063b16ce46014610610578063b55aecf01461062e578063b5b949d81461064a57610274565b80638a29e2de146105145780638da5cb5b14610530578063a3b786581461054e578063a4063dbc1461056a578063a4293ead1461059a57610274565b80634006311b116101ea5780635891de72116101ae5780635891de72146104765780636912cb43146104945780636a475ee3146104b2578063714a2285146104d0578063715018a6146104ec57806387269729146104f657610274565b80634006311b146103e257806340d7b7b814610400578063419273dd1461041e578063465b0c411461043a57806351adeb571461045857610274565b80632bed022b1161023c5780632bed022b1461032d578063370158ea146103495780633b7d09461461036e5780633cb950f51461038a5780633e0ca9aa146103a65780633ed4e55c146103c457610274565b8063029d262e146102795780630ca687dc146102955780631189ebea146102b15780631246dbf5146102e157806328596aba14610311575b600080fd5b610293600480360381019061028e9190612e71565b6107ac565b005b6102af60048036038101906102aa9190612e71565b61096f565b005b6102cb60048036038101906102c69190612f9b565b610a9f565b6040516102d891906131c4565b60405180910390f35b6102fb60048036038101906102f69190612e71565b610ade565b6040516103089190613216565b60405180910390f35b61032b60048036038101906103269190612e71565b610b3b565b005b61034760048036038101906103429190612f9b565b610c6b565b005b610351611035565b6040516103659897969594939291906133ac565b60405180910390f35b61038860048036038101906103839190612e71565b611133565b005b6103a4600480360381019061039f9190612e71565b61141c565b005b6103ae61154c565b6040516103bb91906131c4565b60405180910390f35b6103cc611572565b6040516103d99190613391565b60405180910390f35b6103ea611578565b6040516103f79190613391565b60405180910390f35b61040861161f565b6040516104159190613391565b60405180910390f35b61043860048036038101906104339190612e71565b6116c6565b005b6104426117f6565b60405161044f91906131c4565b60405180910390f35b61046061181c565b60405161046d91906131c4565b60405180910390f35b61047e611842565b60405161048b9190613391565b60405180910390f35b61049c6118e9565b6040516104a99190613391565b60405180910390f35b6104ba6119d4565b6040516104c791906131c4565b60405180910390f35b6104ea60048036038101906104e59190612e71565b6119fa565b005b6104f4611b2a565b005b6104fe611c64565b60405161050b9190613391565b60405180910390f35b61052e60048036038101906105299190612e9a565b611d0b565b005b610538612003565b60405161054591906131c4565b60405180910390f35b61056860048036038101906105639190612e71565b61202c565b005b610584600480360381019061057f9190612e71565b61215c565b6040516105919190613216565b60405180910390f35b6105b460048036038101906105af9190612f4c565b61217c565b005b6105be61229e565b6040516105cb91906131c4565b60405180910390f35b6105dc6122c4565b6040516105e991906131c4565b60405180910390f35b6105fa6122ea565b6040516106079190613391565b60405180910390f35b610618612391565b60405161062591906131c4565b60405180910390f35b61064860048036038101906106439190612e71565b6123b7565b005b6106526124e7565b60405161065f9190613391565b60405180910390f35b610682600480360381019061067d9190612e71565b6126a1565b005b61068c6127d1565b6040516106999190613391565b60405180910390f35b6106aa612878565b6040516106b79190613391565b60405180910390f35b6106c861291f565b6040516106d59190613391565b60405180910390f35b6106e6612967565b6040516106f391906131c4565b60405180910390f35b61070461298d565b60405161071191906131c4565b60405180910390f35b610734600480360381019061072f9190612e71565b6129b3565b005b61073e612bc3565b60405161074b91906131c4565b60405180910390f35b61075c612be9565b6040516107699190613391565b60405180910390f35b61078c60048036038101906107879190612e71565b612c46565b005b610796612def565b6040516107a391906131c4565b60405180910390f35b6107b4612e15565b73ffffffffffffffffffffffffffffffffffffffff166107d2612003565b73ffffffffffffffffffffffffffffffffffffffff1614610828576040517f08c379a000000000000000000000000000000000000000000000000000000000815260040161081f906132f1565b60405180910390fd5b600073ffffffffffffffffffffffffffffffffffffffff168173ffffffffffffffffffffffffffffffffffffffff161415610898576040517f08c379a000000000000000000000000000000000000000000000000000000000815260040161088f906132d1565b60405180910390fd5b80600860006101000a81548173ffffffffffffffffffffffffffffffffffffffff021916908373ffffffffffffffffffffffffffffffffffffffff1602179055508073ffffffffffffffffffffffffffffffffffffffff1663313ce5676040518163ffffffff1660e01b815260040160206040518083038186803b15801561091f57600080fd5b505afa158015610933573d6000803e3d6000fd5b505050506040513d601f19601f820116820180604052508101906109579190612fed565b601261096391906136c1565b60ff16600f8190555050565b610977612e15565b73ffffffffffffffffffffffffffffffffffffffff16610995612003565b73ffffffffffffffffffffffffffffffffffffffff16146109eb576040517f08c379a00000000000000000000000000000000000000000000000000000000081526004016109e2906132f1565b60405180910390fd5b600073ffffffffffffffffffffffffffffffffffffffff168173ffffffffffffffffffffffffffffffffffffffff161415610a5b576040517f08c379a0000000000000000000000000000000000000000000000000000000008152600401610a52906132d1565b60405180910390fd5b80600360006101000a81548173ffffffffffffffffffffffffffffffffffffffff021916908373ffffffffffffffffffffffffffffffffffffffff16021790555050565b600d8181548110610aaf57600080fd5b906000526020600020016000915054906101000a900473ffffffffffffffffffffffffffffffffffffffff1681565b600060011515600e60008473ffffffffffffffffffffffffffffffffffffffff1673ffffffffffffffffffffffffffffffffffffffff16815260200190815260200160002060009054906101000a900460ff161515149050919050565b610b43612e15565b73ffffffffffffffffffffffffffffffffffffffff16610b61612003565b73ffffffffffffffffffffffffffffffffffffffff1614610bb7576040517f08c379a0000000000000000000000000000000000000000000000000000000008152600401610bae906132f1565b60405180910390fd5b600073ffffffffffffffffffffffffffffffffffffffff168173ffffffffffffffffffffffffffffffffffffffff161415610c27576040517f08c379a0000000000000000000000000000000000000000000000000000000008152600401610c1e906132d1565b60405180910390fd5b80600460006101000a81548173ffffffffffffffffffffffffffffffffffffffff021916908373ffffffffffffffffffffffffffffffffffffffff16021790555050565b600c60009054906101000a900473ffffffffffffffffffffffffffffffffffffffff1673ffffffffffffffffffffffffffffffffffffffff163373ffffffffffffffffffffffffffffffffffffffff161480610cf95750610cca612003565b73ffffffffffffffffffffffffffffffffffffffff163373ffffffffffffffffffffffffffffffffffffffff16145b610d38576040517f08c379a0000000000000000000000000000000000000000000000000000000008152600401610d2f90613251565b60405180910390fd5b60008111610d7b576040517f08c379a0000000000000000000000000000000000000000000000000000000008152600401610d7290613271565b60405180910390fd5b600073ffffffffffffffffffffffffffffffffffffffff16600b60009054906101000a900473ffffffffffffffffffffffffffffffffffffffff1673ffffffffffffffffffffffffffffffffffffffff161415610e0d576040517f08c379a0000000000000000000000000000000000000000000000000000000008152600401610e0490613371565b60405180910390fd5b6000610e17612be9565b90506000620f4240600a60009054906101000a900473ffffffffffffffffffffffffffffffffffffffff1673ffffffffffffffffffffffffffffffffffffffff1663fa75890a6040518163ffffffff1660e01b815260040160206040518083038186803b158015610e8757600080fd5b505afa158015610e9b573d6000803e3d6000fd5b505050506040513d601f19601f82011682018060405250810190610ebf9190612fc4565b83610eca9190613633565b610ed49190613491565b82610edf919061368d565b905080831115610f24576040517f08c379a0000000000000000000000000000000000000000000000000000000008152600401610f1b90613331565b60405180910390fd5b600260009054906101000a900473ffffffffffffffffffffffffffffffffffffffff1673ffffffffffffffffffffffffffffffffffffffff1663a5f2a152600860009054906101000a900473ffffffffffffffffffffffffffffffffffffffff16600b60009054906101000a900473ffffffffffffffffffffffffffffffffffffffff16866040518463ffffffff1660e01b8152600401610fc7939291906131df565b600060405180830381600087803b158015610fe157600080fd5b505af1158015610ff5573d6000803e3d6000fd5b505050507fb1d6374542a03c8d19565ec64c2feb5a351d17f48fec0530a69f93fb787ef193836040516110289190613391565b60405180910390a1505050565b60008060008060008060008061104961161f565b611051611c64565b600660009054906101000a900473ffffffffffffffffffffffffffffffffffffffff1673ffffffffffffffffffffffffffffffffffffffff166318160ddd6040518163ffffffff1660e01b815260040160206040518083038186803b1580156110b957600080fd5b505afa1580156110cd573d6000803e3d6000fd5b505050506040513d601f19601f820116820180604052508101906110f19190612fc4565b6110f9611578565b6111016122ea565b61110961291f565b6111116127d1565b611119612878565b975097509750975097509750975097509091929394959697565b61113b612e15565b73ffffffffffffffffffffffffffffffffffffffff16611159612003565b73ffffffffffffffffffffffffffffffffffffffff16146111af576040517f08c379a00000000000000000000000000000000000000000000000000000000081526004016111a6906132f1565b60405180910390fd5b60011515600e60008373ffffffffffffffffffffffffffffffffffffffff1673ffffffffffffffffffffffffffffffffffffffff16815260200190815260200160002060009054906101000a900460ff16151514611242576040517f08c379a000000000000000000000000000000000000000000000000000000000815260040161123990613351565b60405180910390fd5b600e60008273ffffffffffffffffffffffffffffffffffffffff1673ffffffffffffffffffffffffffffffffffffffff16815260200190815260200160002060006101000a81549060ff021916905560005b600d805490508110156113d5578173ffffffffffffffffffffffffffffffffffffffff16600d82815481106112f2577f4e487b7100000000000000000000000000000000000000000000000000000000600052603260045260246000fd5b9060005260206000200160009054906101000a900473ffffffffffffffffffffffffffffffffffffffff1673ffffffffffffffffffffffffffffffffffffffff1614156113c2576000600d8281548110611375577f4e487b7100000000000000000000000000000000000000000000000000000000600052603260045260246000fd5b9060005260206000200160006101000a81548173ffffffffffffffffffffffffffffffffffffffff021916908373ffffffffffffffffffffffffffffffffffffffff1602179055506113d5565b80806113cd9061374a565b915050611294565b508073ffffffffffffffffffffffffffffffffffffffff167f4106dfdaa577573db51c0ca93f766dbedfa0758faa2e7f5bcdb7c142be803c3f60405160405180910390a250565b611424612e15565b73ffffffffffffffffffffffffffffffffffffffff16611442612003565b73ffffffffffffffffffffffffffffffffffffffff1614611498576040517f08c379a000000000000000000000000000000000000000000000000000000000815260040161148f906132f1565b60405180910390fd5b600073ffffffffffffffffffffffffffffffffffffffff168173ffffffffffffffffffffffffffffffffffffffff161415611508576040517f08c379a00000000000000000000000000000000000000000000000000000000081526004016114ff906132d1565b60405180910390fd5b80600960006101000a81548173ffffffffffffffffffffffffffffffffffffffff021916908373ffffffffffffffffffffffffffffffffffffffff16021790555050565b600a60009054906101000a900473ffffffffffffffffffffffffffffffffffffffff1681565b600f5481565b6000600960009054906101000a900473ffffffffffffffffffffffffffffffffffffffff1673ffffffffffffffffffffffffffffffffffffffff16634006311b6040518163ffffffff1660e01b815260040160206040518083038186803b1580156115e257600080fd5b505afa1580156115f6573d6000803e3d6000fd5b505050506040513d601f19601f8201168201806040525081019061161a9190612fc4565b905090565b6000600360009054906101000a900473ffffffffffffffffffffffffffffffffffffffff1673ffffffffffffffffffffffffffffffffffffffff16637eeda7036040518163ffffffff1660e01b815260040160206040518083038186803b15801561168957600080fd5b505afa15801561169d573d6000803e3d6000fd5b505050506040513d601f19601f820116820180604052508101906116c19190612fc4565b905090565b6116ce612e15565b73ffffffffffffffffffffffffffffffffffffffff166116ec612003565b73ffffffffffffffffffffffffffffffffffffffff1614611742576040517f08c379a0000000000000000000000000000000000000000000000000000000008152600401611739906132f1565b60405180910390fd5b600073ffffffffffffffffffffffffffffffffffffffff168173ffffffffffffffffffffffffffffffffffffffff1614156117b2576040517f08c379a00000000000000000000000000000000000000000000000000000000081526004016117a9906132d1565b60405180910390fd5b80600c60006101000a81548173ffffffffffffffffffffffffffffffffffffffff021916908373ffffffffffffffffffffffffffffffffffffffff16021790555050565b600260009054906101000a900473ffffffffffffffffffffffffffffffffffffffff1681565b600660009054906101000a900473ffffffffffffffffffffffffffffffffffffffff1681565b6000600560009054906101000a900473ffffffffffffffffffffffffffffffffffffffff1673ffffffffffffffffffffffffffffffffffffffff16637eeda7036040518163ffffffff1660e01b815260040160206040518083038186803b1580156118ac57600080fd5b505afa1580156118c0573d6000803e3d6000fd5b505050506040513d601f19601f820116820180604052508101906118e49190612fc4565b905090565b600080600860009054906101000a900473ffffffffffffffffffffffffffffffffffffffff1673ffffffffffffffffffffffffffffffffffffffff166370a08231600260009054906101000a900473ffffffffffffffffffffffffffffffffffffffff166040518263ffffffff1660e01b815260040161196991906131c4565b60206040518083038186803b15801561198157600080fd5b505afa158015611995573d6000803e3d6000fd5b505050506040513d601f19601f820116820180604052508101906119b99190612fc4565b90506119c36124e7565b816119ce919061368d565b91505090565b600c60009054906101000a900473ffffffffffffffffffffffffffffffffffffffff1681565b611a02612e15565b73ffffffffffffffffffffffffffffffffffffffff16611a20612003565b73ffffffffffffffffffffffffffffffffffffffff1614611a76576040517f08c379a0000000000000000000000000000000000000000000000000000000008152600401611a6d906132f1565b60405180910390fd5b600073ffffffffffffffffffffffffffffffffffffffff168173ffffffffffffffffffffffffffffffffffffffff161415611ae6576040517f08c379a0000000000000000000000000000000000000000000000000000000008152600401611add906132d1565b60405180910390fd5b80600560006101000a81548173ffffffffffffffffffffffffffffffffffffffff021916908373ffffffffffffffffffffffffffffffffffffffff16021790555050565b611b32612e15565b73ffffffffffffffffffffffffffffffffffffffff16611b50612003565b73ffffffffffffffffffffffffffffffffffffffff1614611ba6576040517f08c379a0000000000000000000000000000000000000000000000000000000008152600401611b9d906132f1565b60405180910390fd5b600073ffffffffffffffffffffffffffffffffffffffff1660008054906101000a900473ffffffffffffffffffffffffffffffffffffffff1673ffffffffffffffffffffffffffffffffffffffff167f8be0079c531659141344cd1fd0a4f28419497f9722a3daafe3b4186f6b6457e060405160405180910390a360008060006101000a81548173ffffffffffffffffffffffffffffffffffffffff021916908373ffffffffffffffffffffffffffffffffffffffff160217905550565b6000600460009054906101000a900473ffffffffffffffffffffffffffffffffffffffff1673ffffffffffffffffffffffffffffffffffffffff16637eeda7036040518163ffffffff1660e01b815260040160206040518083038186803b158015611cce57600080fd5b505afa158015611ce2573d6000803e3d6000fd5b505050506040513d601f19601f82011682018060405250810190611d069190612fc4565b905090565b600060159054906101000a900460ff1680611d335750600060149054906101000a900460ff16155b611d72576040517f08c379a0000000000000000000000000000000000000000000000000000000008152600401611d69906132b1565b60405180910390fd5b60008060159054906101000a900460ff161590508015611dc3576001600060156101000a81548160ff0219169083151502179055506001600060146101000a81548160ff0219169083151502179055505b611dcb612e15565b73ffffffffffffffffffffffffffffffffffffffff16611de9612003565b73ffffffffffffffffffffffffffffffffffffffff1614611e3f576040517f08c379a0000000000000000000000000000000000000000000000000000000008152600401611e36906132f1565b60405180910390fd5b600073ffffffffffffffffffffffffffffffffffffffff168973ffffffffffffffffffffffffffffffffffffffff161415611eaf576040517f08c379a0000000000000000000000000000000000000000000000000000000008152600401611ea6906132d1565b60405180910390fd5b600073ffffffffffffffffffffffffffffffffffffffff168873ffffffffffffffffffffffffffffffffffffffff161415611f1f576040517f08c379a0000000000000000000000000000000000000000000000000000000008152600401611f16906132d1565b60405180910390fd5b88600660006101000a81548173ffffffffffffffffffffffffffffffffffffffff021916908373ffffffffffffffffffffffffffffffffffffffff16021790555087600760006101000a81548173ffffffffffffffffffffffffffffffffffffffff021916908373ffffffffffffffffffffffffffffffffffffffff160217905550611faa876107ac565b611fb3866123b7565b611fbc8561141c565b611fc5846126a1565b611fce8361202c565b611fd7826116c6565b8015611ff85760008060156101000a81548160ff0219169083151502179055505b505050505050505050565b60008060009054906101000a900473ffffffffffffffffffffffffffffffffffffffff16905090565b612034612e15565b73ffffffffffffffffffffffffffffffffffffffff16612052612003565b73ffffffffffffffffffffffffffffffffffffffff16146120a8576040517f08c379a000000000000000000000000000000000000000000000000000000000815260040161209f906132f1565b60405180910390fd5b600073ffffffffffffffffffffffffffffffffffffffff168173ffffffffffffffffffffffffffffffffffffffff161415612118576040517f08c379a000000000000000000000000000000000000000000000000000000000815260040161210f906132d1565b60405180910390fd5b80600b60006101000a81548173ffffffffffffffffffffffffffffffffffffffff021916908373ffffffffffffffffffffffffffffffffffffffff16021790555050565b600e6020528060005260406000206000915054906101000a900460ff1681565b600e60003373ffffffffffffffffffffffffffffffffffffffff1673ffffffffffffffffffffffffffffffffffffffff16815260200190815260200160002060009054906101000a900460ff16612208576040517f08c379a00000000000000000000000000000000000000000000000000000000081526004016121ff90613231565b60405180910390fd5b600260009054906101000a900473ffffffffffffffffffffffffffffffffffffffff1673ffffffffffffffffffffffffffffffffffffffff1663a5f2a1528484846040518463ffffffff1660e01b8152600401612267939291906131df565b600060405180830381600087803b15801561228157600080fd5b505af1158015612295573d6000803e3d6000fd5b50505050505050565b600760009054906101000a900473ffffffffffffffffffffffffffffffffffffffff1681565b600960009054906101000a900473ffffffffffffffffffffffffffffffffffffffff1681565b6000600960009054906101000a900473ffffffffffffffffffffffffffffffffffffffff1673ffffffffffffffffffffffffffffffffffffffff1663af83136e6040518163ffffffff1660e01b815260040160206040518083038186803b15801561235457600080fd5b505afa158015612368573d6000803e3d6000fd5b505050506040513d601f19601f8201168201806040525081019061238c9190612fc4565b905090565b600360009054906101000a900473ffffffffffffffffffffffffffffffffffffffff1681565b6123bf612e15565b73ffffffffffffffffffffffffffffffffffffffff166123dd612003565b73ffffffffffffffffffffffffffffffffffffffff1614612433576040517f08c379a000000000000000000000000000000000000000000000000000000000815260040161242a906132f1565b60405180910390fd5b600073ffffffffffffffffffffffffffffffffffffffff168173ffffffffffffffffffffffffffffffffffffffff1614156124a3576040517f08c379a000000000000000000000000000000000000000000000000000000000815260040161249a906132d1565b60405180910390fd5b80600a60006101000a81548173ffffffffffffffffffffffffffffffffffffffff021916908373ffffffffffffffffffffffffffffffffffffffff16021790555050565b6000806000905060005b600d8054905081101561269957600073ffffffffffffffffffffffffffffffffffffffff16600d8281548110612550577f4e487b7100000000000000000000000000000000000000000000000000000000600052603260045260246000fd5b9060005260206000200160009054906101000a900473ffffffffffffffffffffffffffffffffffffffff1673ffffffffffffffffffffffffffffffffffffffff161461268657600d81815481106125d0577f4e487b7100000000000000000000000000000000000000000000000000000000600052603260045260246000fd5b9060005260206000200160009054906101000a900473ffffffffffffffffffffffffffffffffffffffff1673ffffffffffffffffffffffffffffffffffffffff1663ff626c5f6040518163ffffffff1660e01b815260040160206040518083038186803b15801561264057600080fd5b505afa158015612654573d6000803e3d6000fd5b505050506040513d601f19601f820116820180604052508101906126789190612fc4565b82612683919061343b565b91505b80806126919061374a565b9150506124f1565b508091505090565b6126a9612e15565b73ffffffffffffffffffffffffffffffffffffffff166126c7612003565b73ffffffffffffffffffffffffffffffffffffffff161461271d576040517f08c379a0000000000000000000000000000000000000000000000000000000008152600401612714906132f1565b60405180910390fd5b600073ffffffffffffffffffffffffffffffffffffffff168173ffffffffffffffffffffffffffffffffffffffff16141561278d576040517f08c379a0000000000000000000000000000000000000000000000000000000008152600401612784906132d1565b60405180910390fd5b80600260006101000a81548173ffffffffffffffffffffffffffffffffffffffff021916908373ffffffffffffffffffffffffffffffffffffffff16021790555050565b6000600a60009054906101000a900473ffffffffffffffffffffffffffffffffffffffff1673ffffffffffffffffffffffffffffffffffffffff1663c3355b8d6040518163ffffffff1660e01b815260040160206040518083038186803b15801561283b57600080fd5b505afa15801561284f573d6000803e3d6000fd5b505050506040513d601f19601f820116820180604052508101906128739190612fc4565b905090565b6000600a60009054906101000a900473ffffffffffffffffffffffffffffffffffffffff1673ffffffffffffffffffffffffffffffffffffffff1663cb73999f6040518163ffffffff1660e01b815260040160206040518083038186803b1580156128e257600080fd5b505afa1580156128f6573d6000803e3d6000fd5b505050506040513d601f19601f8201168201806040525081019061291a9190612fc4565b905090565b6000620f4240600f54600a6129349190613515565b61293c611842565b6129446118e9565b61294e9190613633565b6129589190613633565b6129629190613491565b905090565b600460009054906101000a900473ffffffffffffffffffffffffffffffffffffffff1681565b600860009054906101000a900473ffffffffffffffffffffffffffffffffffffffff1681565b6129bb612e15565b73ffffffffffffffffffffffffffffffffffffffff166129d9612003565b73ffffffffffffffffffffffffffffffffffffffff1614612a2f576040517f08c379a0000000000000000000000000000000000000000000000000000000008152600401612a26906132f1565b60405180910390fd5b60001515600e60008373ffffffffffffffffffffffffffffffffffffffff1673ffffffffffffffffffffffffffffffffffffffff16815260200190815260200160002060009054906101000a900460ff16151514612ac2576040517f08c379a0000000000000000000000000000000000000000000000000000000008152600401612ab990613311565b60405180910390fd5b6001600e60008373ffffffffffffffffffffffffffffffffffffffff1673ffffffffffffffffffffffffffffffffffffffff16815260200190815260200160002060006101000a81548160ff021916908315150217905550600d819080600181540180825580915050600190039060005260206000200160009091909190916101000a81548173ffffffffffffffffffffffffffffffffffffffff021916908373ffffffffffffffffffffffffffffffffffffffff1602179055508073ffffffffffffffffffffffffffffffffffffffff167f73cca62ab1b520c9715bf4e6c71e3e518c754e7148f65102f43289a7df0efea660405160405180910390a250565b600b60009054906101000a900473ffffffffffffffffffffffffffffffffffffffff1681565b600080612bf4611578565b90506000612c006122ea565b9050818111612c125760009250612c41565b620f4240612c1e6118e9565b8383612c2a919061368d565b612c349190613633565b612c3e9190613491565b92505b505090565b612c4e612e15565b73ffffffffffffffffffffffffffffffffffffffff16612c6c612003565b73ffffffffffffffffffffffffffffffffffffffff1614612cc2576040517f08c379a0000000000000000000000000000000000000000000000000000000008152600401612cb9906132f1565b60405180910390fd5b600073ffffffffffffffffffffffffffffffffffffffff168173ffffffffffffffffffffffffffffffffffffffff161415612d32576040517f08c379a0000000000000000000000000000000000000000000000000000000008152600401612d2990613291565b60405180910390fd5b8073ffffffffffffffffffffffffffffffffffffffff1660008054906101000a900473ffffffffffffffffffffffffffffffffffffffff1673ffffffffffffffffffffffffffffffffffffffff167f8be0079c531659141344cd1fd0a4f28419497f9722a3daafe3b4186f6b6457e060405160405180910390a3806000806101000a81548173ffffffffffffffffffffffffffffffffffffffff021916908373ffffffffffffffffffffffffffffffffffffffff16021790555050565b600560009054906101000a900473ffffffffffffffffffffffffffffffffffffffff1681565b600033905090565b600081359050612e2c81613a33565b92915050565b600081359050612e4181613a4a565b92915050565b600081519050612e5681613a4a565b92915050565b600081519050612e6b81613a61565b92915050565b600060208284031215612e8357600080fd5b6000612e9184828501612e1d565b91505092915050565b600080600080600080600080610100898b031215612eb757600080fd5b6000612ec58b828c01612e1d565b9850506020612ed68b828c01612e1d565b9750506040612ee78b828c01612e1d565b9650506060612ef88b828c01612e1d565b9550506080612f098b828c01612e1d565b94505060a0612f1a8b828c01612e1d565b93505060c0612f2b8b828c01612e1d565b92505060e0612f3c8b828c01612e1d565b9150509295985092959890939650565b600080600060608486031215612f6157600080fd5b6000612f6f86828701612e1d565b9350506020612f8086828701612e1d565b9250506040612f9186828701612e32565b9150509250925092565b600060208284031215612fad57600080fd5b6000612fbb84828501612e32565b91505092915050565b600060208284031215612fd657600080fd5b6000612fe484828501612e47565b91505092915050565b600060208284031215612fff57600080fd5b600061300d84828501612e5c565b91505092915050565b61301f816136f5565b82525050565b61302e81613707565b82525050565b600061304160208361342a565b915061304c826137fe565b602082019050919050565b6000613064602b8361342a565b915061306f82613827565b604082019050919050565b6000613087600b8361342a565b915061309282613876565b602082019050919050565b60006130aa60268361342a565b91506130b58261389f565b604082019050919050565b60006130cd602e8361342a565b91506130d8826138ee565b604082019050919050565b60006130f0600e8361342a565b91506130fb8261393d565b602082019050919050565b600061311360208361342a565b915061311e82613966565b602082019050919050565b6000613136600b8361342a565b91506131418261398f565b602082019050919050565b600061315960178361342a565b9150613164826139b8565b602082019050919050565b600061317c60058361342a565b9150613187826139e1565b602082019050919050565b600061319f60198361342a565b91506131aa82613a0a565b602082019050919050565b6131be81613733565b82525050565b60006020820190506131d96000830184613016565b92915050565b60006060820190506131f46000830186613016565b6132016020830185613016565b61320e60408301846131b5565b949350505050565b600060208201905061322b6000830184613025565b92915050565b6000602082019050818103600083015261324a81613034565b9050919050565b6000602082019050818103600083015261326a81613057565b9050919050565b6000602082019050818103600083015261328a8161307a565b9050919050565b600060208201905081810360008301526132aa8161309d565b9050919050565b600060208201905081810360008301526132ca816130c0565b9050919050565b600060208201905081810360008301526132ea816130e3565b9050919050565b6000602082019050818103600083015261330a81613106565b9050919050565b6000602082019050818103600083015261332a81613129565b9050919050565b6000602082019050818103600083015261334a8161314c565b9050919050565b6000602082019050818103600083015261336a8161316f565b9050919050565b6000602082019050818103600083015261338a81613192565b9050919050565b60006020820190506133a660008301846131b5565b92915050565b6000610100820190506133c2600083018b6131b5565b6133cf602083018a6131b5565b6133dc60408301896131b5565b6133e960608301886131b5565b6133f660808301876131b5565b61340360a08301866131b5565b61341060c08301856131b5565b61341d60e08301846131b5565b9998505050505050505050565b600082825260208201905092915050565b600061344682613733565b915061345183613733565b9250827fffffffffffffffffffffffffffffffffffffffffffffffffffffffffffffffff0382111561348657613485613793565b5b828201905092915050565b600061349c82613733565b91506134a783613733565b9250826134b7576134b66137c2565b5b828204905092915050565b6000808291508390505b600185111561350c578086048111156134e8576134e7613793565b5b60018516156134f75780820291505b8081029050613505856137f1565b94506134cc565b94509492505050565b600061352082613733565b915061352b83613733565b92506135587fffffffffffffffffffffffffffffffffffffffffffffffffffffffffffffffff8484613560565b905092915050565b600082613570576001905061362c565b8161357e576000905061362c565b8160018114613594576002811461359e576135cd565b600191505061362c565b60ff8411156135b0576135af613793565b5b8360020a9150848211156135c7576135c6613793565b5b5061362c565b5060208310610133831016604e8410600b84101617156136025782820a9050838111156135fd576135fc613793565b5b61362c565b61360f84848460016134c2565b9250905081840481111561362657613625613793565b5b81810290505b9392505050565b600061363e82613733565b915061364983613733565b9250817fffffffffffffffffffffffffffffffffffffffffffffffffffffffffffffffff048311821515161561368257613681613793565b5b828202905092915050565b600061369882613733565b91506136a383613733565b9250828210156136b6576136b5613793565b5b828203905092915050565b60006136cc8261373d565b91506136d78361373d565b9250828210156136ea576136e9613793565b5b828203905092915050565b600061370082613713565b9050919050565b60008115159050919050565b600073ffffffffffffffffffffffffffffffffffffffff82169050919050565b6000819050919050565b600060ff82169050919050565b600061375582613733565b91507fffffffffffffffffffffffffffffffffffffffffffffffffffffffffffffffff82141561378857613787613793565b5b600182019050919050565b7f4e487b7100000000000000000000000000000000000000000000000000000000600052601160045260246000fd5b7f4e487b7100000000000000000000000000000000000000000000000000000000600052601260045260246000fd5b60008160011c9050919050565b7f4f6e6c7920706f6f6c732063616e2075736520746869732066756e6374696f6e600082015250565b7f4f6e6c792070726f66697420636f6e74726f6c6c6572206f72206f776e65722060008201527f63616e2074726967676572000000000000000000000000000000000000000000602082015250565b7f7a65726f20616d6f756e74000000000000000000000000000000000000000000600082015250565b7f4f776e61626c653a206e6577206f776e657220697320746865207a65726f206160008201527f6464726573730000000000000000000000000000000000000000000000000000602082015250565b7f496e697469616c697a61626c653a20636f6e747261637420697320616c72656160008201527f647920696e697469616c697a6564000000000000000000000000000000000000602082015250565b7f696e76616c696441646472657373000000000000000000000000000000000000600082015250565b7f4f776e61626c653a2063616c6c6572206973206e6f7420746865206f776e6572600082015250565b7f706f6f6c45786973746564000000000000000000000000000000000000000000600082015250565b7f45786365737320616c6c6f7761626c6520616d6f756e74000000000000000000600082015250565b7f21706f6f6c000000000000000000000000000000000000000000000000000000600082015250565b7f496e76616c69642070726f66697453686172696e6746756e6400000000000000600082015250565b613a3c816136f5565b8114613a4757600080fd5b50565b613a5381613733565b8114613a5e57600080fd5b50565b613a6a8161373d565b8114613a7557600080fd5b5056fea26469706673582212205f4b611c27535a9ae3e96be0c8494d1abb711d36791f2cb61441493e1e7525b164736f6c63430008040033",
  "devdoc": {
    "kind": "dev",
    "methods": {
      "owner()": {
        "details": "Returns the address of the current owner."
      },
      "renounceOwnership()": {
        "details": "Leaves the contract without owner. It will not be possible to call `onlyOwner` functions anymore. Can only be called by the current owner. NOTE: Renouncing ownership will leave the contract without an owner, thereby removing any functionality that is only available to the owner."
      },
      "transferOwnership(address)": {
        "details": "Transfers ownership of the contract to a new account (`newOwner`). Can only be called by the current owner."
      }
    },
    "version": 1
  },
  "userdoc": {
    "kind": "user",
    "methods": {},
    "version": 1
  },
  "storageLayout": {
    "storage": [
      {
        "astId": 99,
        "contract": "contracts/Treasury.sol:Treasury",
        "label": "_owner",
        "offset": 0,
        "slot": "0",
        "type": "t_address"
      },
      {
        "astId": 51,
        "contract": "contracts/Treasury.sol:Treasury",
        "label": "_initialized",
        "offset": 20,
        "slot": "0",
        "type": "t_bool"
      },
      {
        "astId": 54,
        "contract": "contracts/Treasury.sol:Treasury",
        "label": "_initializing",
        "offset": 21,
        "slot": "0",
        "type": "t_bool"
      },
      {
        "astId": 212,
        "contract": "contracts/Treasury.sol:Treasury",
        "label": "_status",
        "offset": 0,
        "slot": "1",
        "type": "t_uint256"
      },
      {
        "astId": 5857,
        "contract": "contracts/Treasury.sol:Treasury",
        "label": "collateralReserve",
        "offset": 0,
        "slot": "2",
        "type": "t_address"
      },
      {
        "astId": 5859,
        "contract": "contracts/Treasury.sol:Treasury",
        "label": "oracleDollar",
        "offset": 0,
        "slot": "3",
        "type": "t_address"
      },
      {
        "astId": 5861,
        "contract": "contracts/Treasury.sol:Treasury",
        "label": "oracleShare",
        "offset": 0,
        "slot": "4",
        "type": "t_address"
      },
      {
        "astId": 5863,
        "contract": "contracts/Treasury.sol:Treasury",
        "label": "oracleCollateral",
        "offset": 0,
        "slot": "5",
        "type": "t_address"
      },
      {
        "astId": 5865,
        "contract": "contracts/Treasury.sol:Treasury",
        "label": "dollar",
        "offset": 0,
        "slot": "6",
        "type": "t_address"
      },
      {
        "astId": 5867,
        "contract": "contracts/Treasury.sol:Treasury",
        "label": "share",
        "offset": 0,
        "slot": "7",
        "type": "t_address"
      },
      {
        "astId": 5869,
        "contract": "contracts/Treasury.sol:Treasury",
        "label": "collateral",
        "offset": 0,
        "slot": "8",
        "type": "t_address"
      },
      {
        "astId": 5871,
        "contract": "contracts/Treasury.sol:Treasury",
        "label": "collateralRatioPolicy",
        "offset": 0,
        "slot": "9",
        "type": "t_address"
      },
      {
        "astId": 5873,
        "contract": "contracts/Treasury.sol:Treasury",
        "label": "treasuryPolicy",
        "offset": 0,
        "slot": "10",
        "type": "t_address"
      },
      {
        "astId": 5875,
        "contract": "contracts/Treasury.sol:Treasury",
        "label": "profitSharingFund",
        "offset": 0,
        "slot": "11",
        "type": "t_address"
      },
      {
        "astId": 5877,
        "contract": "contracts/Treasury.sol:Treasury",
        "label": "profitController",
        "offset": 0,
        "slot": "12",
        "type": "t_address"
      },
      {
        "astId": 5880,
        "contract": "contracts/Treasury.sol:Treasury",
        "label": "pools_array",
        "offset": 0,
        "slot": "13",
        "type": "t_array(t_address)dyn_storage"
      },
      {
        "astId": 5884,
        "contract": "contracts/Treasury.sol:Treasury",
        "label": "pools",
        "offset": 0,
        "slot": "14",
        "type": "t_mapping(t_address,t_bool)"
      },
      {
        "astId": 5892,
        "contract": "contracts/Treasury.sol:Treasury",
        "label": "missing_decimals",
        "offset": 0,
        "slot": "15",
        "type": "t_uint256"
      }
    ],
    "types": {
      "t_address": {
        "encoding": "inplace",
        "label": "address",
        "numberOfBytes": "20"
      },
      "t_array(t_address)dyn_storage": {
        "base": "t_address",
        "encoding": "dynamic_array",
        "label": "address[]",
        "numberOfBytes": "32"
      },
      "t_bool": {
        "encoding": "inplace",
        "label": "bool",
        "numberOfBytes": "1"
      },
      "t_mapping(t_address,t_bool)": {
        "encoding": "mapping",
        "key": "t_address",
        "label": "mapping(address => bool)",
        "numberOfBytes": "32",
        "value": "t_bool"
      },
      "t_uint256": {
        "encoding": "inplace",
        "label": "uint256",
        "numberOfBytes": "32"
      }
    }
  }
}