{
  "address": "0x1A1BfD45F7CaD8C072198300cEeb0f419f71Be5a",
  "abi": [
    {
      "anonymous": false,
      "inputs": [
        {
          "indexed": true,
          "internalType": "address",
          "name": "previousOwner",
          "type": "address"
        },
        {
          "indexed": true,
          "internalType": "address",
          "name": "newOwner",
          "type": "address"
        }
      ],
      "name": "OwnershipTransferred",
      "type": "event"
    },
    {
      "anonymous": false,
      "inputs": [
        {
          "indexed": true,
          "internalType": "address",
          "name": "newTreasury",
          "type": "address"
        }
      ],
      "name": "TreasuryChanged",
      "type": "event"
    },
    {
      "inputs": [],
      "name": "EXCESS_COLLATERAL_SAFETY_MARGIN_MIN",
      "outputs": [
        {
          "internalType": "uint256",
          "name": "",
          "type": "uint256"
        }
      ],
      "stateMutability": "view",
      "type": "function"
    },
    {
      "inputs": [],
      "name": "MINTING_FEE_MAX",
      "outputs": [
        {
          "internalType": "uint256",
          "name": "",
          "type": "uint256"
        }
      ],
      "stateMutability": "view",
      "type": "function"
    },
    {
      "inputs": [],
      "name": "REDEMPTION_FEE_MAX",
      "outputs": [
        {
          "internalType": "uint256",
          "name": "",
          "type": "uint256"
        }
      ],
      "stateMutability": "view",
      "type": "function"
    },
    {
      "inputs": [],
      "name": "excess_collateral_safety_margin",
      "outputs": [
        {
          "internalType": "uint256",
          "name": "",
          "type": "uint256"
        }
      ],
      "stateMutability": "view",
      "type": "function"
    },
    {
      "inputs": [
        {
          "internalType": "address",
          "name": "_treasury",
          "type": "address"
        },
        {
          "internalType": "uint256",
          "name": "_redemption_fee",
          "type": "uint256"
        },
        {
          "internalType": "uint256",
          "name": "_minting_fee",
          "type": "uint256"
        },
        {
          "internalType": "uint256",
          "name": "_excess_collateral_safety_margin",
          "type": "uint256"
        }
      ],
      "name": "initialize",
      "outputs": [],
      "stateMutability": "nonpayable",
      "type": "function"
    },
    {
      "inputs": [],
      "name": "minting_fee",
      "outputs": [
        {
          "internalType": "uint256",
          "name": "",
          "type": "uint256"
        }
      ],
      "stateMutability": "view",
      "type": "function"
    },
    {
      "inputs": [],
      "name": "owner",
      "outputs": [
        {
          "internalType": "address",
          "name": "",
          "type": "address"
        }
      ],
      "stateMutability": "view",
      "type": "function"
    },
    {
      "inputs": [],
      "name": "redemption_fee",
      "outputs": [
        {
          "internalType": "uint256",
          "name": "",
          "type": "uint256"
        }
      ],
      "stateMutability": "view",
      "type": "function"
    },
    {
      "inputs": [],
      "name": "renounceOwnership",
      "outputs": [],
      "stateMutability": "nonpayable",
      "type": "function"
    },
    {
      "inputs": [
        {
          "internalType": "uint256",
          "name": "_excess_collateral_safety_margin",
          "type": "uint256"
        }
      ],
      "name": "setExcessCollateralSafetyMargin",
      "outputs": [],
      "stateMutability": "nonpayable",
      "type": "function"
    },
    {
      "inputs": [
        {
          "internalType": "uint256",
          "name": "_minting_fee",
          "type": "uint256"
        }
      ],
      "name": "setMintingFee",
      "outputs": [],
      "stateMutability": "nonpayable",
      "type": "function"
    },
    {
      "inputs": [
        {
          "internalType": "uint256",
          "name": "_redemption_fee",
          "type": "uint256"
        }
      ],
      "name": "setRedemptionFee",
      "outputs": [],
      "stateMutability": "nonpayable",
      "type": "function"
    },
    {
      "inputs": [
        {
          "internalType": "address",
          "name": "_treasury",
          "type": "address"
        }
      ],
      "name": "setTreasury",
      "outputs": [],
      "stateMutability": "nonpayable",
      "type": "function"
    },
    {
      "inputs": [
        {
          "internalType": "address",
          "name": "newOwner",
          "type": "address"
        }
      ],
      "name": "transferOwnership",
      "outputs": [],
      "stateMutability": "nonpayable",
      "type": "function"
    },
    {
      "inputs": [],
      "name": "treasury",
      "outputs": [
        {
          "internalType": "address",
          "name": "",
          "type": "address"
        }
      ],
      "stateMutability": "view",
      "type": "function"
    }
  ],
  "transactionHash": "0xe76629001fca56e825db24be4d01d784dc2ffb8ce3ac9b74860e13c394859a3b",
  "args": [],
  "solcInputHash": "528e37ad3cee8dde3b849d6f9ffe4ef0",
  "bytecode": "0x608060405234801561001057600080fd5b5060006100216100c460201b60201c565b9050806000806101000a81548173ffffffffffffffffffffffffffffffffffffffff021916908373ffffffffffffffffffffffffffffffffffffffff1602179055508073ffffffffffffffffffffffffffffffffffffffff16600073ffffffffffffffffffffffffffffffffffffffff167f8be0079c531659141344cd1fd0a4f28419497f9722a3daafe3b4186f6b6457e060405160405180910390a3506100cc565b600033905090565b6110f4806100db6000396000f3fe608060405234801561001057600080fd5b50600436106100f55760003560e01c80638da5cb5b11610097578063f2fde38b11610066578063f2fde38b14610226578063f757c75814610242578063f8c3212414610260578063fa75890a1461027e576100f5565b80638da5cb5b146101b0578063c3355b8d146101ce578063cb73999f146101ec578063f0f442601461020a576100f5565b806352607118116100d3578063526071181461015057806361d027b31461016c578063715018a61461018a5780637dbc1df014610194576100f5565b8063238a4709146100fa5780634bfe4a57146101165780634ec81af114610134575b600080fd5b610114600480360381019061010f9190610c60565b61029c565b005b61011e610367565b60405161012b9190610e97565b60405180910390f35b61014e60048036038101906101499190610bfd565b61036d565b005b61016a60048036038101906101659190610c60565b610525565b005b6101746105f1565b6040516101819190610d9c565b60405180910390f35b610192610617565b005b6101ae60048036038101906101a99190610c60565b610751565b005b6101b861081c565b6040516101c59190610d9c565b60405180910390f35b6101d6610845565b6040516101e39190610e97565b60405180910390f35b6101f461084b565b6040516102019190610e97565b60405180910390f35b610224600480360381019061021f9190610bd4565b610851565b005b610240600480360381019061023b9190610bd4565b6109e6565b005b61024a610b8f565b6040516102579190610e97565b60405180910390f35b610268610b96565b6040516102759190610e97565b60405180910390f35b610286610b9c565b6040516102939190610e97565b60405180910390f35b6102a4610ba2565b73ffffffffffffffffffffffffffffffffffffffff166102c261081c565b73ffffffffffffffffffffffffffffffffffffffff1614610318576040517f08c379a000000000000000000000000000000000000000000000000000000000815260040161030f90610e37565b60405180910390fd5b61138881111561035d576040517f08c379a000000000000000000000000000000000000000000000000000000000815260040161035490610e77565b60405180910390fd5b8060038190555050565b61232881565b600060159054906101000a900460ff16806103955750600060149054906101000a900460ff16155b6103d4576040517f08c379a00000000000000000000000000000000000000000000000000000000081526004016103cb90610df7565b60405180910390fd5b60008060159054906101000a900460ff161590508015610425576001600060156101000a81548160ff0219169083151502179055506001600060146101000a81548160ff0219169083151502179055505b61042d610ba2565b73ffffffffffffffffffffffffffffffffffffffff1661044b61081c565b73ffffffffffffffffffffffffffffffffffffffff16146104a1576040517f08c379a000000000000000000000000000000000000000000000000000000000815260040161049890610e37565b60405180910390fd5b84600160006101000a81548173ffffffffffffffffffffffffffffffffffffffff021916908373ffffffffffffffffffffffffffffffffffffffff1602179055506104eb8361029c565b6104f484610751565b6104fd82610525565b801561051e5760008060156101000a81548160ff0219169083151502179055505b5050505050565b61052d610ba2565b73ffffffffffffffffffffffffffffffffffffffff1661054b61081c565b73ffffffffffffffffffffffffffffffffffffffff16146105a1576040517f08c379a000000000000000000000000000000000000000000000000000000000815260040161059890610e37565b60405180910390fd5b620249f08110156105e7576040517f08c379a00000000000000000000000000000000000000000000000000000000081526004016105de90610e17565b60405180910390fd5b8060048190555050565b600160009054906101000a900473ffffffffffffffffffffffffffffffffffffffff1681565b61061f610ba2565b73ffffffffffffffffffffffffffffffffffffffff1661063d61081c565b73ffffffffffffffffffffffffffffffffffffffff1614610693576040517f08c379a000000000000000000000000000000000000000000000000000000000815260040161068a90610e37565b60405180910390fd5b600073ffffffffffffffffffffffffffffffffffffffff1660008054906101000a900473ffffffffffffffffffffffffffffffffffffffff1673ffffffffffffffffffffffffffffffffffffffff167f8be0079c531659141344cd1fd0a4f28419497f9722a3daafe3b4186f6b6457e060405160405180910390a360008060006101000a81548173ffffffffffffffffffffffffffffffffffffffff021916908373ffffffffffffffffffffffffffffffffffffffff160217905550565b610759610ba2565b73ffffffffffffffffffffffffffffffffffffffff1661077761081c565b73ffffffffffffffffffffffffffffffffffffffff16146107cd576040517f08c379a00000000000000000000000000000000000000000000000000000000081526004016107c490610e37565b60405180910390fd5b612328811115610812576040517f08c379a000000000000000000000000000000000000000000000000000000000815260040161080990610e57565b60405180910390fd5b8060028190555050565b60008060009054906101000a900473ffffffffffffffffffffffffffffffffffffffff16905090565b60035481565b60025481565b610859610ba2565b73ffffffffffffffffffffffffffffffffffffffff1661087761081c565b73ffffffffffffffffffffffffffffffffffffffff16146108cd576040517f08c379a00000000000000000000000000000000000000000000000000000000081526004016108c490610e37565b60405180910390fd5b600073ffffffffffffffffffffffffffffffffffffffff168173ffffffffffffffffffffffffffffffffffffffff16141561093d576040517f08c379a000000000000000000000000000000000000000000000000000000000815260040161093490610db7565b60405180910390fd5b80600160006101000a81548173ffffffffffffffffffffffffffffffffffffffff021916908373ffffffffffffffffffffffffffffffffffffffff160217905550600160009054906101000a900473ffffffffffffffffffffffffffffffffffffffff1673ffffffffffffffffffffffffffffffffffffffff167fc714d22a2f08b695f81e7c707058db484aa5b4d6b4c9fd64beb10fe85832f60860405160405180910390a250565b6109ee610ba2565b73ffffffffffffffffffffffffffffffffffffffff16610a0c61081c565b73ffffffffffffffffffffffffffffffffffffffff1614610a62576040517f08c379a0000000000000000000000000000000000000000000000000000000008152600401610a5990610e37565b60405180910390fd5b600073ffffffffffffffffffffffffffffffffffffffff168173ffffffffffffffffffffffffffffffffffffffff161415610ad2576040517f08c379a0000000000000000000000000000000000000000000000000000000008152600401610ac990610dd7565b60405180910390fd5b8073ffffffffffffffffffffffffffffffffffffffff1660008054906101000a900473ffffffffffffffffffffffffffffffffffffffff1673ffffffffffffffffffffffffffffffffffffffff167f8be0079c531659141344cd1fd0a4f28419497f9722a3daafe3b4186f6b6457e060405160405180910390a3806000806101000a81548173ffffffffffffffffffffffffffffffffffffffff021916908373ffffffffffffffffffffffffffffffffffffffff16021790555050565b620249f081565b61138881565b60045481565b600033905090565b600081359050610bb981611090565b92915050565b600081359050610bce816110a7565b92915050565b600060208284031215610be657600080fd5b6000610bf484828501610baa565b91505092915050565b60008060008060808587031215610c1357600080fd5b6000610c2187828801610baa565b9450506020610c3287828801610bbf565b9350506040610c4387828801610bbf565b9250506060610c5487828801610bbf565b91505092959194509250565b600060208284031215610c7257600080fd5b6000610c8084828501610bbf565b91505092915050565b610c9281610ec3565b82525050565b6000610ca5600f83610eb2565b9150610cb082610eff565b602082019050919050565b6000610cc8602683610eb2565b9150610cd382610f28565b604082019050919050565b6000610ceb602e83610eb2565b9150610cf682610f77565b604082019050919050565b6000610d0e602483610eb2565b9150610d1982610fc6565b604082019050919050565b6000610d31602083610eb2565b9150610d3c82611015565b602082019050919050565b6000610d54601383610eb2565b9150610d5f8261103e565b602082019050919050565b6000610d77601083610eb2565b9150610d8282611067565b602082019050919050565b610d9681610ef5565b82525050565b6000602082019050610db16000830184610c89565b92915050565b60006020820190508181036000830152610dd081610c98565b9050919050565b60006020820190508181036000830152610df081610cbb565b9050919050565b60006020820190508181036000830152610e1081610cde565b9050919050565b60006020820190508181036000830152610e3081610d01565b9050919050565b60006020820190508181036000830152610e5081610d24565b9050919050565b60006020820190508181036000830152610e7081610d47565b9050919050565b60006020820190508181036000830152610e9081610d6a565b9050919050565b6000602082019050610eac6000830184610d8d565b92915050565b600082825260208201905092915050565b6000610ece82610ed5565b9050919050565b600073ffffffffffffffffffffffffffffffffffffffff82169050919050565b6000819050919050565b7f496e76616c696420616464726573730000000000000000000000000000000000600082015250565b7f4f776e61626c653a206e6577206f776e657220697320746865207a65726f206160008201527f6464726573730000000000000000000000000000000000000000000000000000602082015250565b7f496e697469616c697a61626c653a20636f6e747261637420697320616c72656160008201527f647920696e697469616c697a6564000000000000000000000000000000000000602082015250565b7f3c4558434553535f434f4c4c41544552414c5f5341464554595f4d415247494e60008201527f5f4d494e00000000000000000000000000000000000000000000000000000000602082015250565b7f4f776e61626c653a2063616c6c6572206973206e6f7420746865206f776e6572600082015250565b7f3e524544454d5054494f4e5f4645455f4d415800000000000000000000000000600082015250565b7f3e4d494e54494e475f4645455f4d415800000000000000000000000000000000600082015250565b61109981610ec3565b81146110a457600080fd5b50565b6110b081610ef5565b81146110bb57600080fd5b5056fea2646970667358221220b2f75870816804c178ccb0c9429eb593b94bff0458a40464da9cfcaec293a80264736f6c63430008040033",
  "devdoc": {
    "kind": "dev",
    "methods": {
      "owner()": {
        "details": "Returns the address of the current owner."
      },
      "renounceOwnership()": {
        "details": "Leaves the contract without owner. It will not be possible to call `onlyOwner` functions anymore. Can only be called by the current owner. NOTE: Renouncing ownership will leave the contract without an owner, thereby removing any functionality that is only available to the owner."
      },
      "transferOwnership(address)": {
        "details": "Transfers ownership of the contract to a new account (`newOwner`). Can only be called by the current owner."
      }
    },
    "version": 1
  },
  "userdoc": {
    "kind": "user",
    "methods": {},
    "version": 1
  },
  "storageLayout": {
    "storage": [
      {
        "astId": 99,
        "contract": "contracts/TreasuryPolicy.sol:TreasuryPolicy",
        "label": "_owner",
        "offset": 0,
        "slot": "0",
        "type": "t_address"
      },
      {
        "astId": 51,
        "contract": "contracts/TreasuryPolicy.sol:TreasuryPolicy",
        "label": "_initialized",
        "offset": 20,
        "slot": "0",
        "type": "t_bool"
      },
      {
        "astId": 54,
        "contract": "contracts/TreasuryPolicy.sol:TreasuryPolicy",
        "label": "_initializing",
        "offset": 21,
        "slot": "0",
        "type": "t_bool"
      },
      {
        "astId": 6850,
        "contract": "contracts/TreasuryPolicy.sol:TreasuryPolicy",
        "label": "treasury",
        "offset": 0,
        "slot": "1",
        "type": "t_address"
      },
      {
        "astId": 6859,
        "contract": "contracts/TreasuryPolicy.sol:TreasuryPolicy",
        "label": "redemption_fee",
        "offset": 0,
        "slot": "2",
        "type": "t_uint256"
      },
      {
        "astId": 6865,
        "contract": "contracts/TreasuryPolicy.sol:TreasuryPolicy",
        "label": "minting_fee",
        "offset": 0,
        "slot": "3",
        "type": "t_uint256"
      },
      {
        "astId": 6871,
        "contract": "contracts/TreasuryPolicy.sol:TreasuryPolicy",
        "label": "excess_collateral_safety_margin",
        "offset": 0,
        "slot": "4",
        "type": "t_uint256"
      }
    ],
    "types": {
      "t_address": {
        "encoding": "inplace",
        "label": "address",
        "numberOfBytes": "20"
      },
      "t_bool": {
        "encoding": "inplace",
        "label": "bool",
        "numberOfBytes": "1"
      },
      "t_uint256": {
        "encoding": "inplace",
        "label": "uint256",
        "numberOfBytes": "32"
      }
    }
  }
}